{
    "_format": "hh-sol-artifact-1",
    "contractName": "UserInfo",
    "sourceName": "contracts/UserInfo.sol",
    "abi": [
        {
            "inputs": [
                {
                    "internalType": "address",
                    "name": "_token",
                    "type": "address"
                },
                {
                    "internalType": "address",
                    "name": "_kan",
                    "type": "address"
                },
                {
                    "internalType": "address",
                    "name": "_kai",
                    "type": "address"
                }
            ],
            "stateMutability": "nonpayable",
            "type": "constructor"
        },
        {
            "inputs": [
                {
                    "internalType": "address",
                    "name": "_address",
                    "type": "address"
                }
            ],
            "name": "getUserItem",
            "outputs": [
                {
                    "internalType": "uint256[]",
                    "name": "",
                    "type": "uint256[]"
                },
                {
                    "internalType": "uint256[]",
                    "name": "",
                    "type": "uint256[]"
                },
                {
                    "internalType": "string[]",
                    "name": "",
                    "type": "string[]"
                }
            ],
            "stateMutability": "view",
            "type": "function"
        },
        {
            "inputs": [
                {
                    "internalType": "address",
                    "name": "_address",
                    "type": "address"
                }
            ],
            "name": "getUserNft",
            "outputs": [
                {
                    "internalType": "uint256[]",
                    "name": "",
                    "type": "uint256[]"
                },
                {
                    "internalType": "uint256[]",
                    "name": "",
                    "type": "uint256[]"
                },
                {
                    "internalType": "string[]",
                    "name": "",
                    "type": "string[]"
                }
            ],
            "stateMutability": "view",
            "type": "function"
        },
        {
            "inputs": [],
            "name": "kai",
            "outputs": [
                {
                    "internalType": "contract IERC721",
                    "name": "",
                    "type": "address"
                }
            ],
            "stateMutability": "view",
            "type": "function"
        },
        {
            "inputs": [],
            "name": "kan",
            "outputs": [
                {
                    "internalType": "contract IERC721",
                    "name": "",
                    "type": "address"
                }
            ],
            "stateMutability": "view",
            "type": "function"
        },
        {
            "inputs": [],
            "name": "token",
            "outputs": [
                {
                    "internalType": "contract IERC20",
                    "name": "",
                    "type": "address"
                }
            ],
            "stateMutability": "view",
            "type": "function"
        }
    ],
    "bytecode": "0x60806040523480156200001157600080fd5b50604051620013fc380380620013fc833981810160405281019062000037919062000119565b826000806101000a81548173ffffffffffffffffffffffffffffffffffffffff021916908373ffffffffffffffffffffffffffffffffffffffff16021790555081600160006101000a81548173ffffffffffffffffffffffffffffffffffffffff021916908373ffffffffffffffffffffffffffffffffffffffff16021790555080600260006101000a81548173ffffffffffffffffffffffffffffffffffffffff021916908373ffffffffffffffffffffffffffffffffffffffff160217905550505050620001bd565b6000815190506200011381620001a3565b92915050565b6000806000606084860312156200012f57600080fd5b60006200013f8682870162000102565b9350506020620001528682870162000102565b9250506040620001658682870162000102565b9150509250925092565b60006200017c8262000183565b9050919050565b600073ffffffffffffffffffffffffffffffffffffffff82169050919050565b620001ae816200016f565b8114620001ba57600080fd5b50565b61122f80620001cd6000396000f3fe608060405234801561001057600080fd5b50600436106100575760003560e01c80633592c5081461005c578063837c18eb1461008e578063daa6eb38146100c0578063e8a2b16a146100de578063fc0c546a146100fc575b600080fd5b61007660048036038101906100719190610c76565b61011a565b60405161008593929190610ed0565b60405180910390f35b6100a860048036038101906100a39190610c76565b610647565b6040516100b793929190610ed0565b60405180910390f35b6100c8610b74565b6040516100d59190610f37565b60405180910390f35b6100e6610b9a565b6040516100f39190610f37565b60405180910390f35b610104610bc0565b6040516101119190610f1c565b60405180910390f35b60608060606000600260009054906101000a900473ffffffffffffffffffffffffffffffffffffffff1673ffffffffffffffffffffffffffffffffffffffff166370a08231866040518263ffffffff1660e01b815260040161017c9190610e8c565b60206040518083038186803b15801561019457600080fd5b505afa1580156101a8573d6000803e3d6000fd5b505050506040513d601f19601f820116820180604052508101906101cc9190610ce0565b905060008167ffffffffffffffff811115610210577f4e487b7100000000000000000000000000000000000000000000000000000000600052604160045260246000fd5b60405190808252806020026020018201604052801561023e5781602001602082028036833780820191505090505b50905060008267ffffffffffffffff811115610283577f4e487b7100000000000000000000000000000000000000000000000000000000600052604160045260246000fd5b6040519080825280602002602001820160405280156102b15781602001602082028036833780820191505090505b50905060008367ffffffffffffffff8111156102f6577f4e487b7100000000000000000000000000000000000000000000000000000000600052604160045260246000fd5b60405190808252806020026020018201604052801561032957816020015b60608152602001906001900390816103145790505b50905060005b84811015610632576000600260009054906101000a900473ffffffffffffffffffffffffffffffffffffffff1673ffffffffffffffffffffffffffffffffffffffff16632f745c598b846040518363ffffffff1660e01b8152600401610396929190610ea7565b60206040518083038186803b1580156103ae57600080fd5b505afa1580156103c2573d6000803e3d6000fd5b505050506040513d601f19601f820116820180604052508101906103e69190610ce0565b90506000600260009054906101000a900473ffffffffffffffffffffffffffffffffffffffff1673ffffffffffffffffffffffffffffffffffffffff1663d5ec2d83836040518263ffffffff1660e01b81526004016104459190610f52565b60206040518083038186803b15801561045d57600080fd5b505afa158015610471573d6000803e3d6000fd5b505050506040513d601f19601f820116820180604052508101906104959190610ce0565b90506000600260009054906101000a900473ffffffffffffffffffffffffffffffffffffffff1673ffffffffffffffffffffffffffffffffffffffff1663c87b56dd846040518263ffffffff1660e01b81526004016104f49190610f52565b60006040518083038186803b15801561050c57600080fd5b505afa158015610520573d6000803e3d6000fd5b505050506040513d6000823e3d601f19601f820116820180604052508101906105499190610c9f565b905082878581518110610585577f4e487b7100000000000000000000000000000000000000000000000000000000600052603260045260246000fd5b602002602001018181525050818685815181106105cb577f4e487b7100000000000000000000000000000000000000000000000000000000600052603260045260246000fd5b60200260200101818152505080858581518110610611577f4e487b7100000000000000000000000000000000000000000000000000000000600052603260045260246000fd5b6020026020010181905250505050808061062a90611113565b91505061032f565b50828282965096509650505050509193909250565b60608060606000600160009054906101000a900473ffffffffffffffffffffffffffffffffffffffff1673ffffffffffffffffffffffffffffffffffffffff166370a08231866040518263ffffffff1660e01b81526004016106a99190610e8c565b60206040518083038186803b1580156106c157600080fd5b505afa1580156106d5573d6000803e3d6000fd5b505050506040513d601f19601f820116820180604052508101906106f99190610ce0565b905060008167ffffffffffffffff81111561073d577f4e487b7100000000000000000000000000000000000000000000000000000000600052604160045260246000fd5b60405190808252806020026020018201604052801561076b5781602001602082028036833780820191505090505b50905060008267ffffffffffffffff8111156107b0577f4e487b7100000000000000000000000000000000000000000000000000000000600052604160045260246000fd5b6040519080825280602002602001820160405280156107de5781602001602082028036833780820191505090505b50905060008367ffffffffffffffff811115610823577f4e487b7100000000000000000000000000000000000000000000000000000000600052604160045260246000fd5b60405190808252806020026020018201604052801561085657816020015b60608152602001906001900390816108415790505b50905060005b84811015610b5f576000600160009054906101000a900473ffffffffffffffffffffffffffffffffffffffff1673ffffffffffffffffffffffffffffffffffffffff16632f745c598b846040518363ffffffff1660e01b81526004016108c3929190610ea7565b60206040518083038186803b1580156108db57600080fd5b505afa1580156108ef573d6000803e3d6000fd5b505050506040513d601f19601f820116820180604052508101906109139190610ce0565b90506000600160009054906101000a900473ffffffffffffffffffffffffffffffffffffffff1673ffffffffffffffffffffffffffffffffffffffff1663d5ec2d83836040518263ffffffff1660e01b81526004016109729190610f52565b60206040518083038186803b15801561098a57600080fd5b505afa15801561099e573d6000803e3d6000fd5b505050506040513d601f19601f820116820180604052508101906109c29190610ce0565b90506000600160009054906101000a900473ffffffffffffffffffffffffffffffffffffffff1673ffffffffffffffffffffffffffffffffffffffff1663c87b56dd846040518263ffffffff1660e01b8152600401610a219190610f52565b60006040518083038186803b158015610a3957600080fd5b505afa158015610a4d573d6000803e3d6000fd5b505050506040513d6000823e3d601f19601f82011682018060405250810190610a769190610c9f565b905082878581518110610ab2577f4e487b7100000000000000000000000000000000000000000000000000000000600052603260045260246000fd5b60200260200101818152505081868581518110610af8577f4e487b7100000000000000000000000000000000000000000000000000000000600052603260045260246000fd5b60200260200101818152505080858581518110610b3e577f4e487b7100000000000000000000000000000000000000000000000000000000600052603260045260246000fd5b60200260200101819052505050508080610b5790611113565b91505061085c565b50828282965096509650505050509193909250565b600160009054906101000a900473ffffffffffffffffffffffffffffffffffffffff1681565b600260009054906101000a900473ffffffffffffffffffffffffffffffffffffffff1681565b60008054906101000a900473ffffffffffffffffffffffffffffffffffffffff1681565b6000610bf7610bf284610f9e565b610f6d565b905082815260208101848484011115610c0f57600080fd5b610c1a8482856110e0565b509392505050565b600081359050610c31816111cb565b92915050565b600082601f830112610c4857600080fd5b8151610c58848260208601610be4565b91505092915050565b600081519050610c70816111e2565b92915050565b600060208284031215610c8857600080fd5b6000610c9684828501610c22565b91505092915050565b600060208284031215610cb157600080fd5b600082015167ffffffffffffffff811115610ccb57600080fd5b610cd784828501610c37565b91505092915050565b600060208284031215610cf257600080fd5b6000610d0084828501610c61565b91505092915050565b6000610d158383610e35565b905092915050565b6000610d298383610e6e565b60208301905092915050565b610d3e8161105c565b82525050565b6000610d4f82610fee565b610d598185611029565b935083602082028501610d6b85610fce565b8060005b85811015610da75784840389528151610d888582610d09565b9450610d938361100f565b925060208a01995050600181019050610d6f565b50829750879550505050505092915050565b6000610dc482610ff9565b610dce818561103a565b9350610dd983610fde565b8060005b83811015610e0a578151610df18882610d1d565b9750610dfc8361101c565b925050600181019050610ddd565b5085935050505092915050565b610e2081611098565b82525050565b610e2f816110bc565b82525050565b6000610e4082611004565b610e4a818561104b565b9350610e5a8185602086016110e0565b610e63816111ba565b840191505092915050565b610e778161108e565b82525050565b610e868161108e565b82525050565b6000602082019050610ea16000830184610d35565b92915050565b6000604082019050610ebc6000830185610d35565b610ec96020830184610e7d565b9392505050565b60006060820190508181036000830152610eea8186610db9565b90508181036020830152610efe8185610db9565b90508181036040830152610f128184610d44565b9050949350505050565b6000602082019050610f316000830184610e17565b92915050565b6000602082019050610f4c6000830184610e26565b92915050565b6000602082019050610f676000830184610e7d565b92915050565b6000604051905081810181811067ffffffffffffffff82111715610f9457610f9361118b565b5b8060405250919050565b600067ffffffffffffffff821115610fb957610fb861118b565b5b601f19601f8301169050602081019050919050565b6000819050602082019050919050565b6000819050602082019050919050565b600081519050919050565b600081519050919050565b600081519050919050565b6000602082019050919050565b6000602082019050919050565b600082825260208201905092915050565b600082825260208201905092915050565b600082825260208201905092915050565b60006110678261106e565b9050919050565b600073ffffffffffffffffffffffffffffffffffffffff82169050919050565b6000819050919050565b60006110a3826110aa565b9050919050565b60006110b58261106e565b9050919050565b60006110c7826110ce565b9050919050565b60006110d98261106e565b9050919050565b60005b838110156110fe5780820151818401526020810190506110e3565b8381111561110d576000848401525b50505050565b600061111e8261108e565b91507fffffffffffffffffffffffffffffffffffffffffffffffffffffffffffffffff8214156111515761115061115c565b5b600182019050919050565b7f4e487b7100000000000000000000000000000000000000000000000000000000600052601160045260246000fd5b7f4e487b7100000000000000000000000000000000000000000000000000000000600052604160045260246000fd5b6000601f19601f8301169050919050565b6111d48161105c565b81146111df57600080fd5b50565b6111eb8161108e565b81146111f657600080fd5b5056fea26469706673582212205e1a7f8981b1e2c1e98572b31fd4af81f08460355ffd29bd82ea7d591ca74c2c64736f6c63430008000033",
    "linkReferences": {},
    "deployedLinkReferences": {}
}