{
  "_format": "hh-sol-artifact-1",
  "contractName": "KaiStore",
  "sourceName": "contracts/KaiStore.sol",
  "abi": [
    {
      "inputs": [
        {
          "internalType": "address",
          "name": "erc20",
          "type": "address"
        },
        {
          "internalType": "address",
          "name": "erc721",
          "type": "address"
        }
      ],
      "stateMutability": "nonpayable",
      "type": "constructor"
    },
    {
      "anonymous": false,
      "inputs": [
        {
          "indexed": false,
          "internalType": "address",
          "name": "buyer",
          "type": "address"
        },
        {
          "indexed": false,
          "internalType": "uint256",
          "name": "itemId",
          "type": "uint256"
        },
        {
          "indexed": false,
          "internalType": "string",
          "name": "uri",
          "type": "string"
        },
        {
          "indexed": false,
          "internalType": "uint256",
          "name": "timestamp",
          "type": "uint256"
        }
      ],
      "name": "Bought",
      "type": "event"
    },
    {
      "anonymous": false,
      "inputs": [
        {
          "indexed": true,
          "internalType": "address",
          "name": "previousOwner",
          "type": "address"
        },
        {
          "indexed": true,
          "internalType": "address",
          "name": "newOwner",
          "type": "address"
        }
      ],
      "name": "OwnershipTransferred",
      "type": "event"
    },
    {
      "inputs": [
        {
          "internalType": "uint256",
          "name": "num",
          "type": "uint256"
        },
        {
          "internalType": "string",
          "name": "uri",
          "type": "string"
        },
        {
          "internalType": "uint256",
          "name": "itemId",
          "type": "uint256"
        }
      ],
      "name": "buy",
      "outputs": [],
      "stateMutability": "nonpayable",
      "type": "function"
    },
    {
      "inputs": [],
      "name": "dev",
      "outputs": [
        {
          "internalType": "address",
          "name": "",
          "type": "address"
        }
      ],
      "stateMutability": "view",
      "type": "function"
    },
    {
      "inputs": [],
      "name": "isPaused",
      "outputs": [
        {
          "internalType": "bool",
          "name": "",
          "type": "bool"
        }
      ],
      "stateMutability": "view",
      "type": "function"
    },
    {
      "inputs": [],
      "name": "nft",
      "outputs": [
        {
          "internalType": "contract IERC721",
          "name": "",
          "type": "address"
        }
      ],
      "stateMutability": "view",
      "type": "function"
    },
    {
      "inputs": [],
      "name": "owner",
      "outputs": [
        {
          "internalType": "address",
          "name": "",
          "type": "address"
        }
      ],
      "stateMutability": "view",
      "type": "function"
    },
    {
      "inputs": [
        {
          "internalType": "uint256",
          "name": "",
          "type": "uint256"
        }
      ],
      "name": "prices",
      "outputs": [
        {
          "internalType": "uint256",
          "name": "",
          "type": "uint256"
        }
      ],
      "stateMutability": "view",
      "type": "function"
    },
    {
      "inputs": [],
      "name": "renounceOwnership",
      "outputs": [],
      "stateMutability": "nonpayable",
      "type": "function"
    },
    {
      "inputs": [
        {
          "internalType": "address",
          "name": "newDev",
          "type": "address"
        }
      ],
      "name": "setDev",
      "outputs": [],
      "stateMutability": "nonpayable",
      "type": "function"
    },
    {
      "inputs": [
        {
          "internalType": "address",
          "name": "_nft",
          "type": "address"
        }
      ],
      "name": "setNFT",
      "outputs": [],
      "stateMutability": "nonpayable",
      "type": "function"
    },
    {
      "inputs": [
        {
          "internalType": "bool",
          "name": "_pause",
          "type": "bool"
        }
      ],
      "name": "setPause",
      "outputs": [],
      "stateMutability": "nonpayable",
      "type": "function"
    },
    {
      "inputs": [
        {
          "internalType": "uint256[]",
          "name": "itemIds",
          "type": "uint256[]"
        },
        {
          "internalType": "uint256[]",
          "name": "newPrices",
          "type": "uint256[]"
        }
      ],
      "name": "setPrice",
      "outputs": [],
      "stateMutability": "nonpayable",
      "type": "function"
    },
    {
      "inputs": [
        {
          "internalType": "address",
          "name": "_token",
          "type": "address"
        }
      ],
      "name": "setToken",
      "outputs": [],
      "stateMutability": "nonpayable",
      "type": "function"
    },
    {
      "inputs": [],
      "name": "token",
      "outputs": [
        {
          "internalType": "contract IERC20",
          "name": "",
          "type": "address"
        }
      ],
      "stateMutability": "view",
      "type": "function"
    },
    {
      "inputs": [
        {
          "internalType": "address",
          "name": "newOwner",
          "type": "address"
        }
      ],
      "name": "transferOwnership",
      "outputs": [],
      "stateMutability": "nonpayable",
      "type": "function"
    }
  ],
  "bytecode": "0x60806040523480156200001157600080fd5b5060405162001e0438038062001e04833981810160405281019062000037919062000220565b620000576200004b6200013d60201b60201c565b6200014560201b60201c565b81600160006101000a81548173ffffffffffffffffffffffffffffffffffffffff021916908373ffffffffffffffffffffffffffffffffffffffff16021790555080600260006101000a81548173ffffffffffffffffffffffffffffffffffffffff021916908373ffffffffffffffffffffffffffffffffffffffff16021790555033600360006101000a81548173ffffffffffffffffffffffffffffffffffffffff021916908373ffffffffffffffffffffffffffffffffffffffff1602179055506000600360146101000a81548160ff0219169083151502179055505050620002af565b600033905090565b60008060009054906101000a900473ffffffffffffffffffffffffffffffffffffffff169050816000806101000a81548173ffffffffffffffffffffffffffffffffffffffff021916908373ffffffffffffffffffffffffffffffffffffffff1602179055508173ffffffffffffffffffffffffffffffffffffffff168173ffffffffffffffffffffffffffffffffffffffff167f8be0079c531659141344cd1fd0a4f28419497f9722a3daafe3b4186f6b6457e060405160405180910390a35050565b6000815190506200021a8162000295565b92915050565b600080604083850312156200023457600080fd5b6000620002448582860162000209565b9250506020620002578582860162000209565b9150509250929050565b60006200026e8262000275565b9050919050565b600073ffffffffffffffffffffffffffffffffffffffff82169050919050565b620002a08162000261565b8114620002ac57600080fd5b50565b611b4580620002bf6000396000f3fe608060405234801561001057600080fd5b50600436106100ea5760003560e01c8063bedb86fb1161008c578063e41f9ef311610066578063e41f9ef314610211578063f2fde38b1461022d578063f56e9c6614610249578063fc0c546a14610265576100ea565b8063bedb86fb146101bd578063cec02c8f146101d9578063d477f05f146101f5576100ea565b80638da5cb5b116100c85780638da5cb5b1461013357806391cca3db14610151578063b187bd261461016f578063bc31c1c11461018d576100ea565b8063144fa6d7146100ef57806347ccca021461010b578063715018a614610129575b600080fd5b61010960048036038101906101049190611070565b610283565b005b610113610343565b60405161012091906116cf565b60405180910390f35b610131610369565b005b61013b6103f1565b60405161014891906115bd565b60405180910390f35b61015961041a565b60405161016691906115bd565b60405180910390f35b610177610440565b6040516101849190611699565b60405180910390f35b6101a760048036038101906101a29190611157565b610453565b6040516101b4919061180c565b60405180910390f35b6101d760048036038101906101d29190611105565b61046b565b005b6101f360048036038101906101ee9190611180565b610504565b005b61020f600480360381019061020a9190611070565b61072c565b005b61022b60048036038101906102269190611099565b6107ec565b005b61024760048036038101906102429190611070565b610968565b005b610263600480360381019061025e9190611070565b610a60565b005b61026d610b20565b60405161027a91906116b4565b60405180910390f35b61028b610b46565b73ffffffffffffffffffffffffffffffffffffffff166102a96103f1565b73ffffffffffffffffffffffffffffffffffffffff16146102ff576040517f08c379a00000000000000000000000000000000000000000000000000000000081526004016102f69061176c565b60405180910390fd5b80600160006101000a81548173ffffffffffffffffffffffffffffffffffffffff021916908373ffffffffffffffffffffffffffffffffffffffff16021790555050565b600260009054906101000a900473ffffffffffffffffffffffffffffffffffffffff1681565b610371610b46565b73ffffffffffffffffffffffffffffffffffffffff1661038f6103f1565b73ffffffffffffffffffffffffffffffffffffffff16146103e5576040517f08c379a00000000000000000000000000000000000000000000000000000000081526004016103dc9061176c565b60405180910390fd5b6103ef6000610b4e565b565b60008060009054906101000a900473ffffffffffffffffffffffffffffffffffffffff16905090565b600360009054906101000a900473ffffffffffffffffffffffffffffffffffffffff1681565b600360149054906101000a900460ff1681565b60046020528060005260406000206000915090505481565b610473610b46565b73ffffffffffffffffffffffffffffffffffffffff166104916103f1565b73ffffffffffffffffffffffffffffffffffffffff16146104e7576040517f08c379a00000000000000000000000000000000000000000000000000000000081526004016104de9061176c565b60405180910390fd5b80600360146101000a81548160ff02191690831515021790555050565b600360149054906101000a900460ff1615610554576040517f08c379a000000000000000000000000000000000000000000000000000000000815260040161054b906117cc565b60405180910390fd5b6000831180156105655750600a8311155b6105a4576040517f08c379a000000000000000000000000000000000000000000000000000000000815260040161059b9061170c565b60405180910390fd5b61063a33600360009054906101000a900473ffffffffffffffffffffffffffffffffffffffff166105f1866004600087815260200190815260200160002054610c1290919063ffffffff16565b600160009054906101000a900473ffffffffffffffffffffffffffffffffffffffff1673ffffffffffffffffffffffffffffffffffffffff16610c28909392919063ffffffff16565b60005b8381101561072657600260009054906101000a900473ffffffffffffffffffffffffffffffffffffffff1673ffffffffffffffffffffffffffffffffffffffff1663ba7aef433385856040518463ffffffff1660e01b81526004016106a49392919061160f565b600060405180830381600087803b1580156106be57600080fd5b505af11580156106d2573d6000803e3d6000fd5b505050507ff72946bee5691ef0a61627f533e3f0eef1d52c852c709bccb51d1a250223ee943383854260405161070b949392919061164d565b60405180910390a1808061071e90611a12565b91505061063d565b50505050565b610734610b46565b73ffffffffffffffffffffffffffffffffffffffff166107526103f1565b73ffffffffffffffffffffffffffffffffffffffff16146107a8576040517f08c379a000000000000000000000000000000000000000000000000000000000815260040161079f9061176c565b60405180910390fd5b80600360006101000a81548173ffffffffffffffffffffffffffffffffffffffff021916908373ffffffffffffffffffffffffffffffffffffffff16021790555050565b6107f4610b46565b73ffffffffffffffffffffffffffffffffffffffff166108126103f1565b73ffffffffffffffffffffffffffffffffffffffff1614610868576040517f08c379a000000000000000000000000000000000000000000000000000000000815260040161085f9061176c565b60405180910390fd5b80518251146108ac576040517f08c379a00000000000000000000000000000000000000000000000000000000081526004016108a39061178c565b60405180910390fd5b60005b8251811015610963578181815181106108f1577f4e487b7100000000000000000000000000000000000000000000000000000000600052603260045260246000fd5b602002602001015160046000858481518110610936577f4e487b7100000000000000000000000000000000000000000000000000000000600052603260045260246000fd5b6020026020010151815260200190815260200160002081905550808061095b90611a12565b9150506108af565b505050565b610970610b46565b73ffffffffffffffffffffffffffffffffffffffff1661098e6103f1565b73ffffffffffffffffffffffffffffffffffffffff16146109e4576040517f08c379a00000000000000000000000000000000000000000000000000000000081526004016109db9061176c565b60405180910390fd5b600073ffffffffffffffffffffffffffffffffffffffff168173ffffffffffffffffffffffffffffffffffffffff161415610a54576040517f08c379a0000000000000000000000000000000000000000000000000000000008152600401610a4b9061172c565b60405180910390fd5b610a5d81610b4e565b50565b610a68610b46565b73ffffffffffffffffffffffffffffffffffffffff16610a866103f1565b73ffffffffffffffffffffffffffffffffffffffff1614610adc576040517f08c379a0000000000000000000000000000000000000000000000000000000008152600401610ad39061176c565b60405180910390fd5b80600260006101000a81548173ffffffffffffffffffffffffffffffffffffffff021916908373ffffffffffffffffffffffffffffffffffffffff16021790555050565b600160009054906101000a900473ffffffffffffffffffffffffffffffffffffffff1681565b600033905090565b60008060009054906101000a900473ffffffffffffffffffffffffffffffffffffffff169050816000806101000a81548173ffffffffffffffffffffffffffffffffffffffff021916908373ffffffffffffffffffffffffffffffffffffffff1602179055508173ffffffffffffffffffffffffffffffffffffffff168173ffffffffffffffffffffffffffffffffffffffff167f8be0079c531659141344cd1fd0a4f28419497f9722a3daafe3b4186f6b6457e060405160405180910390a35050565b60008183610c2091906118e6565b905092915050565b610cab846323b872dd60e01b858585604051602401610c49939291906115d8565b604051602081830303815290604052907bffffffffffffffffffffffffffffffffffffffffffffffffffffffff19166020820180517bffffffffffffffffffffffffffffffffffffffffffffffffffffffff8381831617835250505050610cb1565b50505050565b6000610d13826040518060400160405280602081526020017f5361666545524332303a206c6f772d6c6576656c2063616c6c206661696c65648152508573ffffffffffffffffffffffffffffffffffffffff16610d789092919063ffffffff16565b9050600081511115610d735780806020019051810190610d33919061112e565b610d72576040517f08c379a0000000000000000000000000000000000000000000000000000000008152600401610d69906117ec565b60405180910390fd5b5b505050565b6060610d878484600085610d90565b90509392505050565b606082471015610dd5576040517f08c379a0000000000000000000000000000000000000000000000000000000008152600401610dcc9061174c565b60405180910390fd5b610dde85610ea4565b610e1d576040517f08c379a0000000000000000000000000000000000000000000000000000000008152600401610e14906117ac565b60405180910390fd5b6000808673ffffffffffffffffffffffffffffffffffffffff168587604051610e4691906115a6565b60006040518083038185875af1925050503d8060008114610e83576040519150601f19603f3d011682016040523d82523d6000602084013e610e88565b606091505b5091509150610e98828286610eb7565b92505050949350505050565b600080823b905060008111915050919050565b60608315610ec757829050610f17565b600083511115610eda5782518084602001fd5b816040517f08c379a0000000000000000000000000000000000000000000000000000000008152600401610f0e91906116ea565b60405180910390fd5b9392505050565b6000610f31610f2c84611858565b611827565b90508083825260208201905082856020860282011115610f5057600080fd5b60005b85811015610f805781610f66888261105b565b845260208401935060208301925050600181019050610f53565b5050509392505050565b6000610f9d610f9884611884565b611827565b905082815260208101848484011115610fb557600080fd5b610fc08482856119d0565b509392505050565b600081359050610fd781611aca565b92915050565b600082601f830112610fee57600080fd5b8135610ffe848260208601610f1e565b91505092915050565b60008135905061101681611ae1565b92915050565b60008151905061102b81611ae1565b92915050565b600082601f83011261104257600080fd5b8135611052848260208601610f8a565b91505092915050565b60008135905061106a81611af8565b92915050565b60006020828403121561108257600080fd5b600061109084828501610fc8565b91505092915050565b600080604083850312156110ac57600080fd5b600083013567ffffffffffffffff8111156110c657600080fd5b6110d285828601610fdd565b925050602083013567ffffffffffffffff8111156110ef57600080fd5b6110fb85828601610fdd565b9150509250929050565b60006020828403121561111757600080fd5b600061112584828501611007565b91505092915050565b60006020828403121561114057600080fd5b600061114e8482850161101c565b91505092915050565b60006020828403121561116957600080fd5b60006111778482850161105b565b91505092915050565b60008060006060848603121561119557600080fd5b60006111a38682870161105b565b935050602084013567ffffffffffffffff8111156111c057600080fd5b6111cc86828701611031565b92505060406111dd8682870161105b565b9150509250925092565b6111f081611940565b82525050565b6111ff81611952565b82525050565b6000611210826118b4565b61121a81856118ca565b935061122a8185602086016119df565b80840191505092915050565b61123f81611988565b82525050565b61124e816119ac565b82525050565b600061125f826118bf565b61126981856118d5565b93506112798185602086016119df565b61128281611ab9565b840191505092915050565b600061129a604d836118d5565b91507f6275793a206e756d626572206f66204e465420746f20627579206d757374206260008301527f652067726561746572207468616e203020616e6420736d616c6c65722074686160208301527f6e206f7220657175616c203130000000000000000000000000000000000000006040830152606082019050919050565b60006113266026836118d5565b91507f4f776e61626c653a206e6577206f776e657220697320746865207a65726f206160008301527f64647265737300000000000000000000000000000000000000000000000000006020830152604082019050919050565b600061138c6026836118d5565b91507f416464726573733a20696e73756666696369656e742062616c616e636520666f60008301527f722063616c6c00000000000000000000000000000000000000000000000000006020830152604082019050919050565b60006113f26020836118d5565b91507f4f776e61626c653a2063616c6c6572206973206e6f7420746865206f776e65726000830152602082019050919050565b60006114326025836118d5565b91507f73657450726963653a20617272617973206c656e67746820617265206e6f742060008301527f657175616c0000000000000000000000000000000000000000000000000000006020830152604082019050919050565b6000611498601d836118d5565b91507f416464726573733a2063616c6c20746f206e6f6e2d636f6e74726163740000006000830152602082019050919050565b60006114d86029836118d5565b91507f53746f72653a20636f6e7472616374206973206265696e67207061757365642060008301527f63757272656e746c7900000000000000000000000000000000000000000000006020830152604082019050919050565b600061153e602a836118d5565b91507f5361666545524332303a204552433230206f7065726174696f6e20646964206e60008301527f6f742073756363656564000000000000000000000000000000000000000000006020830152604082019050919050565b6115a08161197e565b82525050565b60006115b28284611205565b915081905092915050565b60006020820190506115d260008301846111e7565b92915050565b60006060820190506115ed60008301866111e7565b6115fa60208301856111e7565b6116076040830184611597565b949350505050565b600060608201905061162460008301866111e7565b81810360208301526116368185611254565b90506116456040830184611597565b949350505050565b600060808201905061166260008301876111e7565b61166f6020830186611597565b81810360408301526116818185611254565b90506116906060830184611597565b95945050505050565b60006020820190506116ae60008301846111f6565b92915050565b60006020820190506116c96000830184611236565b92915050565b60006020820190506116e46000830184611245565b92915050565b600060208201905081810360008301526117048184611254565b905092915050565b600060208201905081810360008301526117258161128d565b9050919050565b6000602082019050818103600083015261174581611319565b9050919050565b600060208201905081810360008301526117658161137f565b9050919050565b60006020820190508181036000830152611785816113e5565b9050919050565b600060208201905081810360008301526117a581611425565b9050919050565b600060208201905081810360008301526117c58161148b565b9050919050565b600060208201905081810360008301526117e5816114cb565b9050919050565b6000602082019050818103600083015261180581611531565b9050919050565b60006020820190506118216000830184611597565b92915050565b6000604051905081810181811067ffffffffffffffff8211171561184e5761184d611a8a565b5b8060405250919050565b600067ffffffffffffffff82111561187357611872611a8a565b5b602082029050602081019050919050565b600067ffffffffffffffff82111561189f5761189e611a8a565b5b601f19601f8301169050602081019050919050565b600081519050919050565b600081519050919050565b600081905092915050565b600082825260208201905092915050565b60006118f18261197e565b91506118fc8361197e565b9250817fffffffffffffffffffffffffffffffffffffffffffffffffffffffffffffffff048311821515161561193557611934611a5b565b5b828202905092915050565b600061194b8261195e565b9050919050565b60008115159050919050565b600073ffffffffffffffffffffffffffffffffffffffff82169050919050565b6000819050919050565b60006119938261199a565b9050919050565b60006119a58261195e565b9050919050565b60006119b7826119be565b9050919050565b60006119c98261195e565b9050919050565b82818337600083830152505050565b60005b838110156119fd5780820151818401526020810190506119e2565b83811115611a0c576000848401525b50505050565b6000611a1d8261197e565b91507fffffffffffffffffffffffffffffffffffffffffffffffffffffffffffffffff821415611a5057611a4f611a5b565b5b600182019050919050565b7f4e487b7100000000000000000000000000000000000000000000000000000000600052601160045260246000fd5b7f4e487b7100000000000000000000000000000000000000000000000000000000600052604160045260246000fd5b6000601f19601f8301169050919050565b611ad381611940565b8114611ade57600080fd5b50565b611aea81611952565b8114611af557600080fd5b50565b611b018161197e565b8114611b0c57600080fd5b5056fea2646970667358221220028356010e48fa95da84de0faf6c3a698da346fa5e8494e7df0eb1d21cdb925264736f6c63430008000033",
  "linkReferences": {},
  "deployedLinkReferences": {}
}