{
    "_format": "hh-sol-artifact-1",
    "contractName": "Store",
    "sourceName": "contracts/Store.sol",
    "abi": [
        {
            "inputs": [
                {
                    "internalType": "address",
                    "name": "erc20",
                    "type": "address"
                },
                {
                    "internalType": "address",
                    "name": "erc721",
                    "type": "address"
                }
            ],
            "stateMutability": "nonpayable",
            "type": "constructor"
        },
        {
            "anonymous": false,
            "inputs": [
                {
                    "indexed": false,
                    "internalType": "address",
                    "name": "buyer",
                    "type": "address"
                },
                {
                    "indexed": false,
                    "internalType": "uint256",
                    "name": "itemId",
                    "type": "uint256"
                },
                {
                    "indexed": false,
                    "internalType": "string",
                    "name": "uri",
                    "type": "string"
                },
                {
                    "indexed": false,
                    "internalType": "uint256",
                    "name": "timestamp",
                    "type": "uint256"
                }
            ],
            "name": "Bought",
            "type": "event"
        },
        {
            "anonymous": false,
            "inputs": [
                {
                    "indexed": true,
                    "internalType": "address",
                    "name": "previousOwner",
                    "type": "address"
                },
                {
                    "indexed": true,
                    "internalType": "address",
                    "name": "newOwner",
                    "type": "address"
                }
            ],
            "name": "OwnershipTransferred",
            "type": "event"
        },
        {
            "inputs": [
                {
                    "internalType": "uint256",
                    "name": "num",
                    "type": "uint256"
                },
                {
                    "internalType": "string",
                    "name": "uri",
                    "type": "string"
                },
                {
                    "internalType": "uint256",
                    "name": "itemId",
                    "type": "uint256"
                }
            ],
            "name": "buy",
            "outputs": [],
            "stateMutability": "nonpayable",
            "type": "function"
        },
        {
            "inputs": [],
            "name": "dev",
            "outputs": [
                {
                    "internalType": "address",
                    "name": "",
                    "type": "address"
                }
            ],
            "stateMutability": "view",
            "type": "function"
        },
        {
            "inputs": [],
            "name": "isPaused",
            "outputs": [
                {
                    "internalType": "bool",
                    "name": "",
                    "type": "bool"
                }
            ],
            "stateMutability": "view",
            "type": "function"
        },
        {
            "inputs": [],
            "name": "nft",
            "outputs": [
                {
                    "internalType": "contract IERC721",
                    "name": "",
                    "type": "address"
                }
            ],
            "stateMutability": "view",
            "type": "function"
        },
        {
            "inputs": [],
            "name": "owner",
            "outputs": [
                {
                    "internalType": "address",
                    "name": "",
                    "type": "address"
                }
            ],
            "stateMutability": "view",
            "type": "function"
        },
        {
            "inputs": [
                {
                    "internalType": "uint256",
                    "name": "",
                    "type": "uint256"
                }
            ],
            "name": "prices",
            "outputs": [
                {
                    "internalType": "uint256",
                    "name": "",
                    "type": "uint256"
                }
            ],
            "stateMutability": "view",
            "type": "function"
        },
        {
            "inputs": [
                {
                    "internalType": "uint256",
                    "name": "",
                    "type": "uint256"
                }
            ],
            "name": "quantity",
            "outputs": [
                {
                    "internalType": "uint256",
                    "name": "",
                    "type": "uint256"
                }
            ],
            "stateMutability": "view",
            "type": "function"
        },
        {
            "inputs": [],
            "name": "renounceOwnership",
            "outputs": [],
            "stateMutability": "nonpayable",
            "type": "function"
        },
        {
            "inputs": [
                {
                    "internalType": "address",
                    "name": "newDev",
                    "type": "address"
                }
            ],
            "name": "setDev",
            "outputs": [],
            "stateMutability": "nonpayable",
            "type": "function"
        },
        {
            "inputs": [
                {
                    "internalType": "address",
                    "name": "_nft",
                    "type": "address"
                }
            ],
            "name": "setNFT",
            "outputs": [],
            "stateMutability": "nonpayable",
            "type": "function"
        },
        {
            "inputs": [
                {
                    "internalType": "bool",
                    "name": "_pause",
                    "type": "bool"
                }
            ],
            "name": "setPause",
            "outputs": [],
            "stateMutability": "nonpayable",
            "type": "function"
        },
        {
            "inputs": [
                {
                    "internalType": "uint256[]",
                    "name": "itemIds",
                    "type": "uint256[]"
                },
                {
                    "internalType": "uint256[]",
                    "name": "newPrices",
                    "type": "uint256[]"
                }
            ],
            "name": "setPrice",
            "outputs": [],
            "stateMutability": "nonpayable",
            "type": "function"
        },
        {
            "inputs": [
                {
                    "internalType": "uint256[]",
                    "name": "_itemIds",
                    "type": "uint256[]"
                },
                {
                    "internalType": "uint256[]",
                    "name": "_newQuantities",
                    "type": "uint256[]"
                }
            ],
            "name": "setQuantity",
            "outputs": [],
            "stateMutability": "nonpayable",
            "type": "function"
        },
        {
            "inputs": [
                {
                    "internalType": "address",
                    "name": "_token",
                    "type": "address"
                }
            ],
            "name": "setToken",
            "outputs": [],
            "stateMutability": "nonpayable",
            "type": "function"
        },
        {
            "inputs": [],
            "name": "token",
            "outputs": [
                {
                    "internalType": "contract IERC20",
                    "name": "",
                    "type": "address"
                }
            ],
            "stateMutability": "view",
            "type": "function"
        },
        {
            "inputs": [
                {
                    "internalType": "address",
                    "name": "newOwner",
                    "type": "address"
                }
            ],
            "name": "transferOwnership",
            "outputs": [],
            "stateMutability": "nonpayable",
            "type": "function"
        }
    ],
    "bytecode": "0x60806040523480156200001157600080fd5b50604051620021a0380380620021a0833981810160405281019062000037919062000220565b620000576200004b6200013d60201b60201c565b6200014560201b60201c565b81600160006101000a81548173ffffffffffffffffffffffffffffffffffffffff021916908373ffffffffffffffffffffffffffffffffffffffff16021790555080600260006101000a81548173ffffffffffffffffffffffffffffffffffffffff021916908373ffffffffffffffffffffffffffffffffffffffff16021790555033600360006101000a81548173ffffffffffffffffffffffffffffffffffffffff021916908373ffffffffffffffffffffffffffffffffffffffff1602179055506000600360146101000a81548160ff0219169083151502179055505050620002af565b600033905090565b60008060009054906101000a900473ffffffffffffffffffffffffffffffffffffffff169050816000806101000a81548173ffffffffffffffffffffffffffffffffffffffff021916908373ffffffffffffffffffffffffffffffffffffffff1602179055508173ffffffffffffffffffffffffffffffffffffffff168173ffffffffffffffffffffffffffffffffffffffff167f8be0079c531659141344cd1fd0a4f28419497f9722a3daafe3b4186f6b6457e060405160405180910390a35050565b6000815190506200021a8162000295565b92915050565b600080604083850312156200023457600080fd5b6000620002448582860162000209565b9250506020620002578582860162000209565b9150509250929050565b60006200026e8262000275565b9050919050565b600073ffffffffffffffffffffffffffffffffffffffff82169050919050565b620002a08162000261565b8114620002ac57600080fd5b50565b611ee180620002bf6000396000f3fe608060405234801561001057600080fd5b50600436106101005760003560e01c8063bc31c1c111610097578063e41f9ef311610066578063e41f9ef314610273578063f2fde38b1461028f578063f56e9c66146102ab578063fc0c546a146102c757610100565b8063bc31c1c1146101ef578063bedb86fb1461021f578063cec02c8f1461023b578063d477f05f1461025757610100565b8063715018a6116100d3578063715018a61461018b5780638da5cb5b1461019557806391cca3db146101b3578063b187bd26146101d157610100565b8063144fa6d714610105578063299b552e146101215780633ddab6a91461013d57806347ccca021461016d575b600080fd5b61011f600480360381019061011a91906112f2565b6102e5565b005b61013b6004803603810190610136919061131b565b6103a5565b005b610157600480360381019061015291906113d9565b610521565b6040516101649190611b74565b60405180910390f35b610175610539565b60405161018291906119f7565b60405180910390f35b61019361055f565b005b61019d6105e7565b6040516101aa91906118e5565b60405180910390f35b6101bb610610565b6040516101c891906118e5565b60405180910390f35b6101d9610636565b6040516101e691906119c1565b60405180910390f35b610209600480360381019061020491906113d9565b610649565b6040516102169190611b74565b60405180910390f35b61023960048036038101906102349190611387565b610661565b005b61025560048036038101906102509190611402565b6106fa565b005b610271600480360381019061026c91906112f2565b6109ae565b005b61028d6004803603810190610288919061131b565b610a6e565b005b6102a960048036038101906102a491906112f2565b610bea565b005b6102c560048036038101906102c091906112f2565b610ce2565b005b6102cf610da2565b6040516102dc91906119dc565b60405180910390f35b6102ed610dc8565b73ffffffffffffffffffffffffffffffffffffffff1661030b6105e7565b73ffffffffffffffffffffffffffffffffffffffff1614610361576040517f08c379a000000000000000000000000000000000000000000000000000000000815260040161035890611ab4565b60405180910390fd5b80600160006101000a81548173ffffffffffffffffffffffffffffffffffffffff021916908373ffffffffffffffffffffffffffffffffffffffff16021790555050565b6103ad610dc8565b73ffffffffffffffffffffffffffffffffffffffff166103cb6105e7565b73ffffffffffffffffffffffffffffffffffffffff1614610421576040517f08c379a000000000000000000000000000000000000000000000000000000000815260040161041890611ab4565b60405180910390fd5b8051825114610465576040517f08c379a000000000000000000000000000000000000000000000000000000000815260040161045c90611ad4565b60405180910390fd5b60005b825181101561051c578181815181106104aa577f4e487b7100000000000000000000000000000000000000000000000000000000600052603260045260246000fd5b6020026020010151600460008584815181106104ef577f4e487b7100000000000000000000000000000000000000000000000000000000600052603260045260246000fd5b6020026020010151815260200190815260200160002081905550808061051490611dae565b915050610468565b505050565b60046020528060005260406000206000915090505481565b600260009054906101000a900473ffffffffffffffffffffffffffffffffffffffff1681565b610567610dc8565b73ffffffffffffffffffffffffffffffffffffffff166105856105e7565b73ffffffffffffffffffffffffffffffffffffffff16146105db576040517f08c379a00000000000000000000000000000000000000000000000000000000081526004016105d290611ab4565b60405180910390fd5b6105e56000610dd0565b565b60008060009054906101000a900473ffffffffffffffffffffffffffffffffffffffff16905090565b600360009054906101000a900473ffffffffffffffffffffffffffffffffffffffff1681565b600360149054906101000a900460ff1681565b60056020528060005260406000206000915090505481565b610669610dc8565b73ffffffffffffffffffffffffffffffffffffffff166106876105e7565b73ffffffffffffffffffffffffffffffffffffffff16146106dd576040517f08c379a00000000000000000000000000000000000000000000000000000000081526004016106d490611ab4565b60405180910390fd5b80600360146101000a81548160ff02191690831515021790555050565b600360149054906101000a900460ff161561074a576040517f08c379a000000000000000000000000000000000000000000000000000000000815260040161074190611b34565b60405180910390fd5b60008311801561075b5750600a8311155b61079a576040517f08c379a000000000000000000000000000000000000000000000000000000000815260040161079190611a34565b60405180910390fd5b60046000828152602001908152602001600020548311156107f0576040517f08c379a00000000000000000000000000000000000000000000000000000000081526004016107e790611a94565b60405180910390fd5b61088633600360009054906101000a900473ffffffffffffffffffffffffffffffffffffffff1661083d866005600087815260200190815260200160002054610e9490919063ffffffff16565b600160009054906101000a900473ffffffffffffffffffffffffffffffffffffffff1673ffffffffffffffffffffffffffffffffffffffff16610eaa909392919063ffffffff16565b8260046000838152602001908152602001600020546108a59190611ca8565b600460008381526020019081526020016000208190555060005b838110156109a857600260009054906101000a900473ffffffffffffffffffffffffffffffffffffffff1673ffffffffffffffffffffffffffffffffffffffff1663ba7aef433385856040518463ffffffff1660e01b815260040161092693929190611937565b600060405180830381600087803b15801561094057600080fd5b505af1158015610954573d6000803e3d6000fd5b505050507ff72946bee5691ef0a61627f533e3f0eef1d52c852c709bccb51d1a250223ee943383854260405161098d9493929190611975565b60405180910390a180806109a090611dae565b9150506108bf565b50505050565b6109b6610dc8565b73ffffffffffffffffffffffffffffffffffffffff166109d46105e7565b73ffffffffffffffffffffffffffffffffffffffff1614610a2a576040517f08c379a0000000000000000000000000000000000000000000000000000000008152600401610a2190611ab4565b60405180910390fd5b80600360006101000a81548173ffffffffffffffffffffffffffffffffffffffff021916908373ffffffffffffffffffffffffffffffffffffffff16021790555050565b610a76610dc8565b73ffffffffffffffffffffffffffffffffffffffff16610a946105e7565b73ffffffffffffffffffffffffffffffffffffffff1614610aea576040517f08c379a0000000000000000000000000000000000000000000000000000000008152600401610ae190611ab4565b60405180910390fd5b8051825114610b2e576040517f08c379a0000000000000000000000000000000000000000000000000000000008152600401610b2590611af4565b60405180910390fd5b60005b8251811015610be557818181518110610b73577f4e487b7100000000000000000000000000000000000000000000000000000000600052603260045260246000fd5b602002602001015160056000858481518110610bb8577f4e487b7100000000000000000000000000000000000000000000000000000000600052603260045260246000fd5b60200260200101518152602001908152602001600020819055508080610bdd90611dae565b915050610b31565b505050565b610bf2610dc8565b73ffffffffffffffffffffffffffffffffffffffff16610c106105e7565b73ffffffffffffffffffffffffffffffffffffffff1614610c66576040517f08c379a0000000000000000000000000000000000000000000000000000000008152600401610c5d90611ab4565b60405180910390fd5b600073ffffffffffffffffffffffffffffffffffffffff168173ffffffffffffffffffffffffffffffffffffffff161415610cd6576040517f08c379a0000000000000000000000000000000000000000000000000000000008152600401610ccd90611a54565b60405180910390fd5b610cdf81610dd0565b50565b610cea610dc8565b73ffffffffffffffffffffffffffffffffffffffff16610d086105e7565b73ffffffffffffffffffffffffffffffffffffffff1614610d5e576040517f08c379a0000000000000000000000000000000000000000000000000000000008152600401610d5590611ab4565b60405180910390fd5b80600260006101000a81548173ffffffffffffffffffffffffffffffffffffffff021916908373ffffffffffffffffffffffffffffffffffffffff16021790555050565b600160009054906101000a900473ffffffffffffffffffffffffffffffffffffffff1681565b600033905090565b60008060009054906101000a900473ffffffffffffffffffffffffffffffffffffffff169050816000806101000a81548173ffffffffffffffffffffffffffffffffffffffff021916908373ffffffffffffffffffffffffffffffffffffffff1602179055508173ffffffffffffffffffffffffffffffffffffffff168173ffffffffffffffffffffffffffffffffffffffff167f8be0079c531659141344cd1fd0a4f28419497f9722a3daafe3b4186f6b6457e060405160405180910390a35050565b60008183610ea29190611c4e565b905092915050565b610f2d846323b872dd60e01b858585604051602401610ecb93929190611900565b604051602081830303815290604052907bffffffffffffffffffffffffffffffffffffffffffffffffffffffff19166020820180517bffffffffffffffffffffffffffffffffffffffffffffffffffffffff8381831617835250505050610f33565b50505050565b6000610f95826040518060400160405280602081526020017f5361666545524332303a206c6f772d6c6576656c2063616c6c206661696c65648152508573ffffffffffffffffffffffffffffffffffffffff16610ffa9092919063ffffffff16565b9050600081511115610ff55780806020019051810190610fb591906113b0565b610ff4576040517f08c379a0000000000000000000000000000000000000000000000000000000008152600401610feb90611b54565b60405180910390fd5b5b505050565b60606110098484600085611012565b90509392505050565b606082471015611057576040517f08c379a000000000000000000000000000000000000000000000000000000000815260040161104e90611a74565b60405180910390fd5b61106085611126565b61109f576040517f08c379a000000000000000000000000000000000000000000000000000000000815260040161109690611b14565b60405180910390fd5b6000808673ffffffffffffffffffffffffffffffffffffffff1685876040516110c891906118ce565b60006040518083038185875af1925050503d8060008114611105576040519150601f19603f3d011682016040523d82523d6000602084013e61110a565b606091505b509150915061111a828286611139565b92505050949350505050565b600080823b905060008111915050919050565b6060831561114957829050611199565b60008351111561115c5782518084602001fd5b816040517f08c379a00000000000000000000000000000000000000000000000000000000081526004016111909190611a12565b60405180910390fd5b9392505050565b60006111b36111ae84611bc0565b611b8f565b905080838252602082019050828560208602820111156111d257600080fd5b60005b8581101561120257816111e888826112dd565b8452602084019350602083019250506001810190506111d5565b5050509392505050565b600061121f61121a84611bec565b611b8f565b90508281526020810184848401111561123757600080fd5b611242848285611d6c565b509392505050565b60008135905061125981611e66565b92915050565b600082601f83011261127057600080fd5b81356112808482602086016111a0565b91505092915050565b60008135905061129881611e7d565b92915050565b6000815190506112ad81611e7d565b92915050565b600082601f8301126112c457600080fd5b81356112d484826020860161120c565b91505092915050565b6000813590506112ec81611e94565b92915050565b60006020828403121561130457600080fd5b60006113128482850161124a565b91505092915050565b6000806040838503121561132e57600080fd5b600083013567ffffffffffffffff81111561134857600080fd5b6113548582860161125f565b925050602083013567ffffffffffffffff81111561137157600080fd5b61137d8582860161125f565b9150509250929050565b60006020828403121561139957600080fd5b60006113a784828501611289565b91505092915050565b6000602082840312156113c257600080fd5b60006113d08482850161129e565b91505092915050565b6000602082840312156113eb57600080fd5b60006113f9848285016112dd565b91505092915050565b60008060006060848603121561141757600080fd5b6000611425868287016112dd565b935050602084013567ffffffffffffffff81111561144257600080fd5b61144e868287016112b3565b925050604061145f868287016112dd565b9150509250925092565b61147281611cdc565b82525050565b61148181611cee565b82525050565b600061149282611c1c565b61149c8185611c32565b93506114ac818560208601611d7b565b80840191505092915050565b6114c181611d24565b82525050565b6114d081611d48565b82525050565b60006114e182611c27565b6114eb8185611c3d565b93506114fb818560208601611d7b565b61150481611e55565b840191505092915050565b600061151c604d83611c3d565b91507f6275793a206e756d626572206f66204e465420746f20627579206d757374206260008301527f652067726561746572207468616e203020616e6420736d616c6c65722074686160208301527f6e206f7220657175616c203130000000000000000000000000000000000000006040830152606082019050919050565b60006115a8602683611c3d565b91507f4f776e61626c653a206e6577206f776e657220697320746865207a65726f206160008301527f64647265737300000000000000000000000000000000000000000000000000006020830152604082019050919050565b600061160e602683611c3d565b91507f416464726573733a20696e73756666696369656e742062616c616e636520666f60008301527f722063616c6c00000000000000000000000000000000000000000000000000006020830152604082019050919050565b6000611674601f83611c3d565b91507f6275793a206e6f7420656e6f756768207175616e7469747920746f20627579006000830152602082019050919050565b60006116b4602083611c3d565b91507f4f776e61626c653a2063616c6c6572206973206e6f7420746865206f776e65726000830152602082019050919050565b60006116f4602c83611c3d565b91507f7365745175616e746974793a20626f7468206172726179206c656e677468206d60008301527f75737420626520657175616c00000000000000000000000000000000000000006020830152604082019050919050565b600061175a602583611c3d565b91507f73657450726963653a20617272617973206c656e67746820617265206e6f742060008301527f657175616c0000000000000000000000000000000000000000000000000000006020830152604082019050919050565b60006117c0601d83611c3d565b91507f416464726573733a2063616c6c20746f206e6f6e2d636f6e74726163740000006000830152602082019050919050565b6000611800602983611c3d565b91507f53746f72653a20636f6e7472616374206973206265696e67207061757365642060008301527f63757272656e746c7900000000000000000000000000000000000000000000006020830152604082019050919050565b6000611866602a83611c3d565b91507f5361666545524332303a204552433230206f7065726174696f6e20646964206e60008301527f6f742073756363656564000000000000000000000000000000000000000000006020830152604082019050919050565b6118c881611d1a565b82525050565b60006118da8284611487565b915081905092915050565b60006020820190506118fa6000830184611469565b92915050565b60006060820190506119156000830186611469565b6119226020830185611469565b61192f60408301846118bf565b949350505050565b600060608201905061194c6000830186611469565b818103602083015261195e81856114d6565b905061196d60408301846118bf565b949350505050565b600060808201905061198a6000830187611469565b61199760208301866118bf565b81810360408301526119a981856114d6565b90506119b860608301846118bf565b95945050505050565b60006020820190506119d66000830184611478565b92915050565b60006020820190506119f160008301846114b8565b92915050565b6000602082019050611a0c60008301846114c7565b92915050565b60006020820190508181036000830152611a2c81846114d6565b905092915050565b60006020820190508181036000830152611a4d8161150f565b9050919050565b60006020820190508181036000830152611a6d8161159b565b9050919050565b60006020820190508181036000830152611a8d81611601565b9050919050565b60006020820190508181036000830152611aad81611667565b9050919050565b60006020820190508181036000830152611acd816116a7565b9050919050565b60006020820190508181036000830152611aed816116e7565b9050919050565b60006020820190508181036000830152611b0d8161174d565b9050919050565b60006020820190508181036000830152611b2d816117b3565b9050919050565b60006020820190508181036000830152611b4d816117f3565b9050919050565b60006020820190508181036000830152611b6d81611859565b9050919050565b6000602082019050611b8960008301846118bf565b92915050565b6000604051905081810181811067ffffffffffffffff82111715611bb657611bb5611e26565b5b8060405250919050565b600067ffffffffffffffff821115611bdb57611bda611e26565b5b602082029050602081019050919050565b600067ffffffffffffffff821115611c0757611c06611e26565b5b601f19601f8301169050602081019050919050565b600081519050919050565b600081519050919050565b600081905092915050565b600082825260208201905092915050565b6000611c5982611d1a565b9150611c6483611d1a565b9250817fffffffffffffffffffffffffffffffffffffffffffffffffffffffffffffffff0483118215151615611c9d57611c9c611df7565b5b828202905092915050565b6000611cb382611d1a565b9150611cbe83611d1a565b925082821015611cd157611cd0611df7565b5b828203905092915050565b6000611ce782611cfa565b9050919050565b60008115159050919050565b600073ffffffffffffffffffffffffffffffffffffffff82169050919050565b6000819050919050565b6000611d2f82611d36565b9050919050565b6000611d4182611cfa565b9050919050565b6000611d5382611d5a565b9050919050565b6000611d6582611cfa565b9050919050565b82818337600083830152505050565b60005b83811015611d99578082015181840152602081019050611d7e565b83811115611da8576000848401525b50505050565b6000611db982611d1a565b91507fffffffffffffffffffffffffffffffffffffffffffffffffffffffffffffffff821415611dec57611deb611df7565b5b600182019050919050565b7f4e487b7100000000000000000000000000000000000000000000000000000000600052601160045260246000fd5b7f4e487b7100000000000000000000000000000000000000000000000000000000600052604160045260246000fd5b6000601f19601f8301169050919050565b611e6f81611cdc565b8114611e7a57600080fd5b50565b611e8681611cee565b8114611e9157600080fd5b50565b611e9d81611d1a565b8114611ea857600080fd5b5056fea26469706673582212207ead452f8b6e3c4b1632061e780593583f15173bf73c083bb974a19fcf13e25664736f6c63430008000033",
    "linkReferences": {},
    "deployedLinkReferences": {}
}