{
  "_format": "hh-sol-artifact-1",
  "contractName": "Token",
  "sourceName": "contracts/Token.sol",
  "abi": [
    {
      "inputs": [
        {
          "internalType": "string",
          "name": "name",
          "type": "string"
        },
        {
          "internalType": "string",
          "name": "symbol",
          "type": "string"
        },
        {
          "internalType": "uint256",
          "name": "amount",
          "type": "uint256"
        }
      ],
      "stateMutability": "nonpayable",
      "type": "constructor"
    },
    {
      "anonymous": false,
      "inputs": [
        {
          "indexed": true,
          "internalType": "address",
          "name": "owner",
          "type": "address"
        },
        {
          "indexed": true,
          "internalType": "address",
          "name": "spender",
          "type": "address"
        },
        {
          "indexed": false,
          "internalType": "uint256",
          "name": "value",
          "type": "uint256"
        }
      ],
      "name": "Approval",
      "type": "event"
    },
    {
      "anonymous": false,
      "inputs": [
        {
          "indexed": true,
          "internalType": "address",
          "name": "previousOwner",
          "type": "address"
        },
        {
          "indexed": true,
          "internalType": "address",
          "name": "newOwner",
          "type": "address"
        }
      ],
      "name": "OwnershipTransferred",
      "type": "event"
    },
    {
      "anonymous": false,
      "inputs": [
        {
          "indexed": true,
          "internalType": "address",
          "name": "from",
          "type": "address"
        },
        {
          "indexed": true,
          "internalType": "address",
          "name": "to",
          "type": "address"
        },
        {
          "indexed": false,
          "internalType": "uint256",
          "name": "value",
          "type": "uint256"
        }
      ],
      "name": "Transfer",
      "type": "event"
    },
    {
      "inputs": [
        {
          "internalType": "address",
          "name": "owner",
          "type": "address"
        },
        {
          "internalType": "address",
          "name": "spender",
          "type": "address"
        }
      ],
      "name": "allowance",
      "outputs": [
        {
          "internalType": "uint256",
          "name": "",
          "type": "uint256"
        }
      ],
      "stateMutability": "view",
      "type": "function"
    },
    {
      "inputs": [
        {
          "internalType": "address",
          "name": "spender",
          "type": "address"
        },
        {
          "internalType": "uint256",
          "name": "amount",
          "type": "uint256"
        }
      ],
      "name": "approve",
      "outputs": [
        {
          "internalType": "bool",
          "name": "",
          "type": "bool"
        }
      ],
      "stateMutability": "nonpayable",
      "type": "function"
    },
    {
      "inputs": [
        {
          "internalType": "address",
          "name": "account",
          "type": "address"
        }
      ],
      "name": "balanceOf",
      "outputs": [
        {
          "internalType": "uint256",
          "name": "",
          "type": "uint256"
        }
      ],
      "stateMutability": "view",
      "type": "function"
    },
    {
      "inputs": [
        {
          "internalType": "uint256",
          "name": "amount",
          "type": "uint256"
        }
      ],
      "name": "burn",
      "outputs": [],
      "stateMutability": "nonpayable",
      "type": "function"
    },
    {
      "inputs": [
        {
          "internalType": "address",
          "name": "account",
          "type": "address"
        },
        {
          "internalType": "uint256",
          "name": "amount",
          "type": "uint256"
        }
      ],
      "name": "burnFrom",
      "outputs": [],
      "stateMutability": "nonpayable",
      "type": "function"
    },
    {
      "inputs": [],
      "name": "decimals",
      "outputs": [
        {
          "internalType": "uint8",
          "name": "",
          "type": "uint8"
        }
      ],
      "stateMutability": "view",
      "type": "function"
    },
    {
      "inputs": [
        {
          "internalType": "address",
          "name": "spender",
          "type": "address"
        },
        {
          "internalType": "uint256",
          "name": "subtractedValue",
          "type": "uint256"
        }
      ],
      "name": "decreaseAllowance",
      "outputs": [
        {
          "internalType": "bool",
          "name": "",
          "type": "bool"
        }
      ],
      "stateMutability": "nonpayable",
      "type": "function"
    },
    {
      "inputs": [
        {
          "internalType": "address",
          "name": "spender",
          "type": "address"
        },
        {
          "internalType": "uint256",
          "name": "addedValue",
          "type": "uint256"
        }
      ],
      "name": "increaseAllowance",
      "outputs": [
        {
          "internalType": "bool",
          "name": "",
          "type": "bool"
        }
      ],
      "stateMutability": "nonpayable",
      "type": "function"
    },
    {
      "inputs": [],
      "name": "name",
      "outputs": [
        {
          "internalType": "string",
          "name": "",
          "type": "string"
        }
      ],
      "stateMutability": "view",
      "type": "function"
    },
    {
      "inputs": [],
      "name": "owner",
      "outputs": [
        {
          "internalType": "address",
          "name": "",
          "type": "address"
        }
      ],
      "stateMutability": "view",
      "type": "function"
    },
    {
      "inputs": [],
      "name": "renounceOwnership",
      "outputs": [],
      "stateMutability": "nonpayable",
      "type": "function"
    },
    {
      "inputs": [],
      "name": "symbol",
      "outputs": [
        {
          "internalType": "string",
          "name": "",
          "type": "string"
        }
      ],
      "stateMutability": "view",
      "type": "function"
    },
    {
      "inputs": [],
      "name": "totalSupply",
      "outputs": [
        {
          "internalType": "uint256",
          "name": "",
          "type": "uint256"
        }
      ],
      "stateMutability": "view",
      "type": "function"
    },
    {
      "inputs": [
        {
          "internalType": "address",
          "name": "recipient",
          "type": "address"
        },
        {
          "internalType": "uint256",
          "name": "amount",
          "type": "uint256"
        }
      ],
      "name": "transfer",
      "outputs": [
        {
          "internalType": "bool",
          "name": "",
          "type": "bool"
        }
      ],
      "stateMutability": "nonpayable",
      "type": "function"
    },
    {
      "inputs": [
        {
          "internalType": "address",
          "name": "sender",
          "type": "address"
        },
        {
          "internalType": "address",
          "name": "recipient",
          "type": "address"
        },
        {
          "internalType": "uint256",
          "name": "amount",
          "type": "uint256"
        }
      ],
      "name": "transferFrom",
      "outputs": [
        {
          "internalType": "bool",
          "name": "",
          "type": "bool"
        }
      ],
      "stateMutability": "nonpayable",
      "type": "function"
    },
    {
      "inputs": [
        {
          "internalType": "address",
          "name": "newOwner",
          "type": "address"
        }
      ],
      "name": "transferOwnership",
      "outputs": [],
      "stateMutability": "nonpayable",
      "type": "function"
    }
  ],
  "bytecode": "0x60806040523480156200001157600080fd5b506040516200257d3803806200257d833981810160405281019062000037919062000465565b82828160039080519060200190620000519291906200032c565b5080600490805190602001906200006a9291906200032c565b5050506200008d62000081620000d260201b60201c565b620000da60201b60201c565b620000c933620000a2620001a060201b60201c565b600a620000b09190620006af565b83620000bd9190620007ec565b620001a960201b60201c565b50505062000984565b600033905090565b6000600560009054906101000a900473ffffffffffffffffffffffffffffffffffffffff16905081600560006101000a81548173ffffffffffffffffffffffffffffffffffffffff021916908373ffffffffffffffffffffffffffffffffffffffff1602179055508173ffffffffffffffffffffffffffffffffffffffff168173ffffffffffffffffffffffffffffffffffffffff167f8be0079c531659141344cd1fd0a4f28419497f9722a3daafe3b4186f6b6457e060405160405180910390a35050565b60006006905090565b600073ffffffffffffffffffffffffffffffffffffffff168273ffffffffffffffffffffffffffffffffffffffff1614156200021c576040517f08c379a0000000000000000000000000000000000000000000000000000000008152600401620002139062000540565b60405180910390fd5b62000230600083836200032260201b60201c565b8060026000828254620002449190620005f7565b92505081905550806000808473ffffffffffffffffffffffffffffffffffffffff1673ffffffffffffffffffffffffffffffffffffffff16815260200190815260200160002060008282546200029b9190620005f7565b925050819055508173ffffffffffffffffffffffffffffffffffffffff16600073ffffffffffffffffffffffffffffffffffffffff167fddf252ad1be2c89b69c2b068fc378daa952ba7f163c4a11628f55a4df523b3ef8360405162000302919062000562565b60405180910390a36200031e600083836200032760201b60201c565b5050565b505050565b505050565b8280546200033a906200089a565b90600052602060002090601f0160209004810192826200035e5760008555620003aa565b82601f106200037957805160ff1916838001178555620003aa565b82800160010185558215620003aa579182015b82811115620003a95782518255916020019190600101906200038c565b5b509050620003b99190620003bd565b5090565b5b80821115620003d8576000816000905550600101620003be565b5090565b6000620003f3620003ed84620005b3565b6200057f565b9050828152602081018484840111156200040c57600080fd5b6200041984828562000864565b509392505050565b600082601f8301126200043357600080fd5b815162000445848260208601620003dc565b91505092915050565b6000815190506200045f816200096a565b92915050565b6000806000606084860312156200047b57600080fd5b600084015167ffffffffffffffff8111156200049657600080fd5b620004a48682870162000421565b935050602084015167ffffffffffffffff811115620004c257600080fd5b620004d08682870162000421565b9250506040620004e3868287016200044e565b9150509250925092565b6000620004fc601f83620005e6565b91507f45524332303a206d696e7420746f20746865207a65726f2061646472657373006000830152602082019050919050565b6200053a816200084d565b82525050565b600060208201905081810360008301526200055b81620004ed565b9050919050565b60006020820190506200057960008301846200052f565b92915050565b6000604051905081810181811067ffffffffffffffff82111715620005a957620005a86200092e565b5b8060405250919050565b600067ffffffffffffffff821115620005d157620005d06200092e565b5b601f19601f8301169050602081019050919050565b600082825260208201905092915050565b600062000604826200084d565b915062000611836200084d565b9250827fffffffffffffffffffffffffffffffffffffffffffffffffffffffffffffffff03821115620006495762000648620008d0565b5b828201905092915050565b6000808291508390505b6001851115620006a6578086048111156200067e576200067d620008d0565b5b60018516156200068e5780820291505b80810290506200069e856200095d565b94506200065e565b94509492505050565b6000620006bc826200084d565b9150620006c98362000857565b9250620006f87fffffffffffffffffffffffffffffffffffffffffffffffffffffffffffffffff848462000700565b905092915050565b600082620007125760019050620007e5565b81620007225760009050620007e5565b81600181146200073b576002811462000746576200077c565b6001915050620007e5565b60ff8411156200075b576200075a620008d0565b5b8360020a915084821115620007755762000774620008d0565b5b50620007e5565b5060208310610133831016604e8410600b8410161715620007b65782820a905083811115620007b057620007af620008d0565b5b620007e5565b620007c5848484600162000654565b92509050818404811115620007df57620007de620008d0565b5b81810290505b9392505050565b6000620007f9826200084d565b915062000806836200084d565b9250817fffffffffffffffffffffffffffffffffffffffffffffffffffffffffffffffff0483118215151615620008425762000841620008d0565b5b828202905092915050565b6000819050919050565b600060ff82169050919050565b60005b838110156200088457808201518184015260208101905062000867565b8381111562000894576000848401525b50505050565b60006002820490506001821680620008b357607f821691505b60208210811415620008ca57620008c9620008ff565b5b50919050565b7f4e487b7100000000000000000000000000000000000000000000000000000000600052601160045260246000fd5b7f4e487b7100000000000000000000000000000000000000000000000000000000600052602260045260246000fd5b7f4e487b7100000000000000000000000000000000000000000000000000000000600052604160045260246000fd5b60008160011c9050919050565b62000975816200084d565b81146200098157600080fd5b50565b611be980620009946000396000f3fe608060405234801561001057600080fd5b50600436106101005760003560e01c8063715018a611610097578063a457c2d711610066578063a457c2d71461029d578063a9059cbb146102cd578063dd62ed3e146102fd578063f2fde38b1461032d57610100565b8063715018a61461023b57806379cc6790146102455780638da5cb5b1461026157806395d89b411461027f57610100565b8063313ce567116100d3578063313ce567146101a157806339509351146101bf57806342966c68146101ef57806370a082311461020b57610100565b806306fdde0314610105578063095ea7b31461012357806318160ddd1461015357806323b872dd14610171575b600080fd5b61010d610349565b60405161011a91906117de565b60405180910390f35b61013d6004803603810190610138919061122c565b6103db565b60405161014a91906117c3565b60405180910390f35b61015b6103f9565b6040516101689190611980565b60405180910390f35b61018b600480360381019061018691906111dd565b610403565b60405161019891906117c3565b60405180910390f35b6101a96104fb565b6040516101b6919061199b565b60405180910390f35b6101d960048036038101906101d4919061122c565b610504565b6040516101e691906117c3565b60405180910390f35b61020960048036038101906102049190611268565b6105b0565b005b61022560048036038101906102209190611178565b6105c4565b6040516102329190611980565b60405180910390f35b61024361060c565b005b61025f600480360381019061025a919061122c565b610694565b005b61026961070f565b60405161027691906117a8565b60405180910390f35b610287610739565b60405161029491906117de565b60405180910390f35b6102b760048036038101906102b2919061122c565b6107cb565b6040516102c491906117c3565b60405180910390f35b6102e760048036038101906102e2919061122c565b6108b6565b6040516102f491906117c3565b60405180910390f35b610317600480360381019061031291906111a1565b6108d4565b6040516103249190611980565b60405180910390f35b61034760048036038101906103429190611178565b61095b565b005b60606003805461035890611ae4565b80601f016020809104026020016040519081016040528092919081815260200182805461038490611ae4565b80156103d15780601f106103a6576101008083540402835291602001916103d1565b820191906000526020600020905b8154815290600101906020018083116103b457829003601f168201915b5050505050905090565b60006103ef6103e8610a53565b8484610a5b565b6001905092915050565b6000600254905090565b6000610410848484610c26565b6000600160008673ffffffffffffffffffffffffffffffffffffffff1673ffffffffffffffffffffffffffffffffffffffff168152602001908152602001600020600061045b610a53565b73ffffffffffffffffffffffffffffffffffffffff1673ffffffffffffffffffffffffffffffffffffffff168152602001908152602001600020549050828110156104db576040517f08c379a00000000000000000000000000000000000000000000000000000000081526004016104d2906118a0565b60405180910390fd5b6104ef856104e7610a53565b858403610a5b565b60019150509392505050565b60006006905090565b60006105a6610511610a53565b84846001600061051f610a53565b73ffffffffffffffffffffffffffffffffffffffff1673ffffffffffffffffffffffffffffffffffffffff16815260200190815260200160002060008873ffffffffffffffffffffffffffffffffffffffff1673ffffffffffffffffffffffffffffffffffffffff168152602001908152602001600020546105a191906119d2565b610a5b565b6001905092915050565b6105c16105bb610a53565b82610ea7565b50565b60008060008373ffffffffffffffffffffffffffffffffffffffff1673ffffffffffffffffffffffffffffffffffffffff168152602001908152602001600020549050919050565b610614610a53565b73ffffffffffffffffffffffffffffffffffffffff1661063261070f565b73ffffffffffffffffffffffffffffffffffffffff1614610688576040517f08c379a000000000000000000000000000000000000000000000000000000000815260040161067f906118c0565b60405180910390fd5b610692600061107e565b565b60006106a7836106a2610a53565b6108d4565b9050818110156106ec576040517f08c379a00000000000000000000000000000000000000000000000000000000081526004016106e3906118e0565b60405180910390fd5b610700836106f8610a53565b848403610a5b565b61070a8383610ea7565b505050565b6000600560009054906101000a900473ffffffffffffffffffffffffffffffffffffffff16905090565b60606004805461074890611ae4565b80601f016020809104026020016040519081016040528092919081815260200182805461077490611ae4565b80156107c15780601f10610796576101008083540402835291602001916107c1565b820191906000526020600020905b8154815290600101906020018083116107a457829003601f168201915b5050505050905090565b600080600160006107da610a53565b73ffffffffffffffffffffffffffffffffffffffff1673ffffffffffffffffffffffffffffffffffffffff16815260200190815260200160002060008573ffffffffffffffffffffffffffffffffffffffff1673ffffffffffffffffffffffffffffffffffffffff16815260200190815260200160002054905082811015610897576040517f08c379a000000000000000000000000000000000000000000000000000000000815260040161088e90611960565b60405180910390fd5b6108ab6108a2610a53565b85858403610a5b565b600191505092915050565b60006108ca6108c3610a53565b8484610c26565b6001905092915050565b6000600160008473ffffffffffffffffffffffffffffffffffffffff1673ffffffffffffffffffffffffffffffffffffffff16815260200190815260200160002060008373ffffffffffffffffffffffffffffffffffffffff1673ffffffffffffffffffffffffffffffffffffffff16815260200190815260200160002054905092915050565b610963610a53565b73ffffffffffffffffffffffffffffffffffffffff1661098161070f565b73ffffffffffffffffffffffffffffffffffffffff16146109d7576040517f08c379a00000000000000000000000000000000000000000000000000000000081526004016109ce906118c0565b60405180910390fd5b600073ffffffffffffffffffffffffffffffffffffffff168173ffffffffffffffffffffffffffffffffffffffff161415610a47576040517f08c379a0000000000000000000000000000000000000000000000000000000008152600401610a3e90611840565b60405180910390fd5b610a508161107e565b50565b600033905090565b600073ffffffffffffffffffffffffffffffffffffffff168373ffffffffffffffffffffffffffffffffffffffff161415610acb576040517f08c379a0000000000000000000000000000000000000000000000000000000008152600401610ac290611940565b60405180910390fd5b600073ffffffffffffffffffffffffffffffffffffffff168273ffffffffffffffffffffffffffffffffffffffff161415610b3b576040517f08c379a0000000000000000000000000000000000000000000000000000000008152600401610b3290611860565b60405180910390fd5b80600160008573ffffffffffffffffffffffffffffffffffffffff1673ffffffffffffffffffffffffffffffffffffffff16815260200190815260200160002060008473ffffffffffffffffffffffffffffffffffffffff1673ffffffffffffffffffffffffffffffffffffffff168152602001908152602001600020819055508173ffffffffffffffffffffffffffffffffffffffff168373ffffffffffffffffffffffffffffffffffffffff167f8c5be1e5ebec7d5bd14f71427d1e84f3dd0314c0f7b2291e5b200ac8c7c3b92583604051610c199190611980565b60405180910390a3505050565b600073ffffffffffffffffffffffffffffffffffffffff168373ffffffffffffffffffffffffffffffffffffffff161415610c96576040517f08c379a0000000000000000000000000000000000000000000000000000000008152600401610c8d90611920565b60405180910390fd5b600073ffffffffffffffffffffffffffffffffffffffff168273ffffffffffffffffffffffffffffffffffffffff161415610d06576040517f08c379a0000000000000000000000000000000000000000000000000000000008152600401610cfd90611800565b60405180910390fd5b610d11838383611144565b60008060008573ffffffffffffffffffffffffffffffffffffffff1673ffffffffffffffffffffffffffffffffffffffff16815260200190815260200160002054905081811015610d97576040517f08c379a0000000000000000000000000000000000000000000000000000000008152600401610d8e90611880565b60405180910390fd5b8181036000808673ffffffffffffffffffffffffffffffffffffffff1673ffffffffffffffffffffffffffffffffffffffff16815260200190815260200160002081905550816000808573ffffffffffffffffffffffffffffffffffffffff1673ffffffffffffffffffffffffffffffffffffffff1681526020019081526020016000206000828254610e2a91906119d2565b925050819055508273ffffffffffffffffffffffffffffffffffffffff168473ffffffffffffffffffffffffffffffffffffffff167fddf252ad1be2c89b69c2b068fc378daa952ba7f163c4a11628f55a4df523b3ef84604051610e8e9190611980565b60405180910390a3610ea1848484611149565b50505050565b600073ffffffffffffffffffffffffffffffffffffffff168273ffffffffffffffffffffffffffffffffffffffff161415610f17576040517f08c379a0000000000000000000000000000000000000000000000000000000008152600401610f0e90611900565b60405180910390fd5b610f2382600083611144565b60008060008473ffffffffffffffffffffffffffffffffffffffff1673ffffffffffffffffffffffffffffffffffffffff16815260200190815260200160002054905081811015610fa9576040517f08c379a0000000000000000000000000000000000000000000000000000000008152600401610fa090611820565b60405180910390fd5b8181036000808573ffffffffffffffffffffffffffffffffffffffff1673ffffffffffffffffffffffffffffffffffffffff1681526020019081526020016000208190555081600260008282546110009190611a28565b92505081905550600073ffffffffffffffffffffffffffffffffffffffff168373ffffffffffffffffffffffffffffffffffffffff167fddf252ad1be2c89b69c2b068fc378daa952ba7f163c4a11628f55a4df523b3ef846040516110659190611980565b60405180910390a361107983600084611149565b505050565b6000600560009054906101000a900473ffffffffffffffffffffffffffffffffffffffff16905081600560006101000a81548173ffffffffffffffffffffffffffffffffffffffff021916908373ffffffffffffffffffffffffffffffffffffffff1602179055508173ffffffffffffffffffffffffffffffffffffffff168173ffffffffffffffffffffffffffffffffffffffff167f8be0079c531659141344cd1fd0a4f28419497f9722a3daafe3b4186f6b6457e060405160405180910390a35050565b505050565b505050565b60008135905061115d81611b85565b92915050565b60008135905061117281611b9c565b92915050565b60006020828403121561118a57600080fd5b60006111988482850161114e565b91505092915050565b600080604083850312156111b457600080fd5b60006111c28582860161114e565b92505060206111d38582860161114e565b9150509250929050565b6000806000606084860312156111f257600080fd5b60006112008682870161114e565b93505060206112118682870161114e565b925050604061122286828701611163565b9150509250925092565b6000806040838503121561123f57600080fd5b600061124d8582860161114e565b925050602061125e85828601611163565b9150509250929050565b60006020828403121561127a57600080fd5b600061128884828501611163565b91505092915050565b61129a81611a5c565b82525050565b6112a981611a6e565b82525050565b60006112ba826119b6565b6112c481856119c1565b93506112d4818560208601611ab1565b6112dd81611b74565b840191505092915050565b60006112f56023836119c1565b91507f45524332303a207472616e7366657220746f20746865207a65726f206164647260008301527f65737300000000000000000000000000000000000000000000000000000000006020830152604082019050919050565b600061135b6022836119c1565b91507f45524332303a206275726e20616d6f756e7420657863656564732062616c616e60008301527f63650000000000000000000000000000000000000000000000000000000000006020830152604082019050919050565b60006113c16026836119c1565b91507f4f776e61626c653a206e6577206f776e657220697320746865207a65726f206160008301527f64647265737300000000000000000000000000000000000000000000000000006020830152604082019050919050565b60006114276022836119c1565b91507f45524332303a20617070726f766520746f20746865207a65726f20616464726560008301527f73730000000000000000000000000000000000000000000000000000000000006020830152604082019050919050565b600061148d6026836119c1565b91507f45524332303a207472616e7366657220616d6f756e742065786365656473206260008301527f616c616e636500000000000000000000000000000000000000000000000000006020830152604082019050919050565b60006114f36028836119c1565b91507f45524332303a207472616e7366657220616d6f756e742065786365656473206160008301527f6c6c6f77616e63650000000000000000000000000000000000000000000000006020830152604082019050919050565b60006115596020836119c1565b91507f4f776e61626c653a2063616c6c6572206973206e6f7420746865206f776e65726000830152602082019050919050565b60006115996024836119c1565b91507f45524332303a206275726e20616d6f756e74206578636565647320616c6c6f7760008301527f616e6365000000000000000000000000000000000000000000000000000000006020830152604082019050919050565b60006115ff6021836119c1565b91507f45524332303a206275726e2066726f6d20746865207a65726f2061646472657360008301527f73000000000000000000000000000000000000000000000000000000000000006020830152604082019050919050565b60006116656025836119c1565b91507f45524332303a207472616e736665722066726f6d20746865207a65726f20616460008301527f64726573730000000000000000000000000000000000000000000000000000006020830152604082019050919050565b60006116cb6024836119c1565b91507f45524332303a20617070726f76652066726f6d20746865207a65726f2061646460008301527f72657373000000000000000000000000000000000000000000000000000000006020830152604082019050919050565b60006117316025836119c1565b91507f45524332303a2064656372656173656420616c6c6f77616e63652062656c6f7760008301527f207a65726f0000000000000000000000000000000000000000000000000000006020830152604082019050919050565b61179381611a9a565b82525050565b6117a281611aa4565b82525050565b60006020820190506117bd6000830184611291565b92915050565b60006020820190506117d860008301846112a0565b92915050565b600060208201905081810360008301526117f881846112af565b905092915050565b60006020820190508181036000830152611819816112e8565b9050919050565b600060208201905081810360008301526118398161134e565b9050919050565b60006020820190508181036000830152611859816113b4565b9050919050565b600060208201905081810360008301526118798161141a565b9050919050565b6000602082019050818103600083015261189981611480565b9050919050565b600060208201905081810360008301526118b9816114e6565b9050919050565b600060208201905081810360008301526118d98161154c565b9050919050565b600060208201905081810360008301526118f98161158c565b9050919050565b60006020820190508181036000830152611919816115f2565b9050919050565b6000602082019050818103600083015261193981611658565b9050919050565b60006020820190508181036000830152611959816116be565b9050919050565b6000602082019050818103600083015261197981611724565b9050919050565b6000602082019050611995600083018461178a565b92915050565b60006020820190506119b06000830184611799565b92915050565b600081519050919050565b600082825260208201905092915050565b60006119dd82611a9a565b91506119e883611a9a565b9250827fffffffffffffffffffffffffffffffffffffffffffffffffffffffffffffffff03821115611a1d57611a1c611b16565b5b828201905092915050565b6000611a3382611a9a565b9150611a3e83611a9a565b925082821015611a5157611a50611b16565b5b828203905092915050565b6000611a6782611a7a565b9050919050565b60008115159050919050565b600073ffffffffffffffffffffffffffffffffffffffff82169050919050565b6000819050919050565b600060ff82169050919050565b60005b83811015611acf578082015181840152602081019050611ab4565b83811115611ade576000848401525b50505050565b60006002820490506001821680611afc57607f821691505b60208210811415611b1057611b0f611b45565b5b50919050565b7f4e487b7100000000000000000000000000000000000000000000000000000000600052601160045260246000fd5b7f4e487b7100000000000000000000000000000000000000000000000000000000600052602260045260246000fd5b6000601f19601f8301169050919050565b611b8e81611a5c565b8114611b9957600080fd5b50565b611ba581611a9a565b8114611bb057600080fd5b5056fea2646970667358221220996ebfdbec67e5d82bcef5de56c4711a7225cbd839b2bbdc701aa782feff73f164736f6c63430008000033",
  "linkReferences": {},
  "deployedLinkReferences": {}
}