{
  "_format": "hh-sol-artifact-1",
  "contractName": "Marketplace",
  "sourceName": "contracts/Marketplace.sol",
  "abi": [
    {
      "inputs": [
        {
          "internalType": "address",
          "name": "erc20",
          "type": "address"
        },
        {
          "internalType": "address",
          "name": "erc721",
          "type": "address"
        }
      ],
      "stateMutability": "nonpayable",
      "type": "constructor"
    },
    {
      "anonymous": false,
      "inputs": [
        {
          "indexed": false,
          "internalType": "uint256",
          "name": "saleId",
          "type": "uint256"
        },
        {
          "indexed": false,
          "internalType": "uint256",
          "name": "tokenId",
          "type": "uint256"
        },
        {
          "indexed": false,
          "internalType": "address",
          "name": "seller",
          "type": "address"
        },
        {
          "indexed": false,
          "internalType": "address",
          "name": "buyer",
          "type": "address"
        },
        {
          "indexed": false,
          "internalType": "address",
          "name": "feeReceiver",
          "type": "address"
        },
        {
          "indexed": false,
          "internalType": "uint256",
          "name": "fee",
          "type": "uint256"
        },
        {
          "indexed": false,
          "internalType": "uint256",
          "name": "lastUpdated",
          "type": "uint256"
        }
      ],
      "name": "FeeTransfered",
      "type": "event"
    },
    {
      "anonymous": false,
      "inputs": [
        {
          "indexed": true,
          "internalType": "address",
          "name": "previousOwner",
          "type": "address"
        },
        {
          "indexed": true,
          "internalType": "address",
          "name": "newOwner",
          "type": "address"
        }
      ],
      "name": "OwnershipTransferred",
      "type": "event"
    },
    {
      "anonymous": false,
      "inputs": [
        {
          "indexed": true,
          "internalType": "uint256",
          "name": "saleId",
          "type": "uint256"
        },
        {
          "indexed": true,
          "internalType": "uint256",
          "name": "tokenId",
          "type": "uint256"
        },
        {
          "indexed": true,
          "internalType": "address",
          "name": "seller",
          "type": "address"
        },
        {
          "indexed": false,
          "internalType": "uint256",
          "name": "price",
          "type": "uint256"
        },
        {
          "indexed": false,
          "internalType": "uint256",
          "name": "lastUpdated",
          "type": "uint256"
        }
      ],
      "name": "SaleCanceled",
      "type": "event"
    },
    {
      "anonymous": false,
      "inputs": [
        {
          "indexed": true,
          "internalType": "uint256",
          "name": "saleId",
          "type": "uint256"
        },
        {
          "indexed": true,
          "internalType": "uint256",
          "name": "tokenId",
          "type": "uint256"
        },
        {
          "indexed": true,
          "internalType": "address",
          "name": "seller",
          "type": "address"
        },
        {
          "indexed": false,
          "internalType": "uint256",
          "name": "price",
          "type": "uint256"
        },
        {
          "indexed": false,
          "internalType": "bool",
          "name": "isSold",
          "type": "bool"
        },
        {
          "indexed": false,
          "internalType": "uint256",
          "name": "lastUpdated",
          "type": "uint256"
        }
      ],
      "name": "SaleCreated",
      "type": "event"
    },
    {
      "anonymous": false,
      "inputs": [
        {
          "indexed": true,
          "internalType": "uint256",
          "name": "saleId",
          "type": "uint256"
        },
        {
          "indexed": true,
          "internalType": "uint256",
          "name": "tokenId",
          "type": "uint256"
        },
        {
          "indexed": false,
          "internalType": "address",
          "name": "seller",
          "type": "address"
        },
        {
          "indexed": false,
          "internalType": "uint256",
          "name": "price",
          "type": "uint256"
        },
        {
          "indexed": false,
          "internalType": "bool",
          "name": "isSold",
          "type": "bool"
        },
        {
          "indexed": false,
          "internalType": "uint256",
          "name": "lastUpdated",
          "type": "uint256"
        }
      ],
      "name": "SaleSold",
      "type": "event"
    },
    {
      "anonymous": false,
      "inputs": [
        {
          "indexed": true,
          "internalType": "uint256",
          "name": "saleId",
          "type": "uint256"
        },
        {
          "indexed": true,
          "internalType": "uint256",
          "name": "tokenId",
          "type": "uint256"
        },
        {
          "indexed": true,
          "internalType": "address",
          "name": "seller",
          "type": "address"
        },
        {
          "indexed": false,
          "internalType": "uint256",
          "name": "price",
          "type": "uint256"
        },
        {
          "indexed": false,
          "internalType": "uint256",
          "name": "lastUpdated",
          "type": "uint256"
        }
      ],
      "name": "SaleUpdated",
      "type": "event"
    },
    {
      "inputs": [
        {
          "internalType": "uint256",
          "name": "saleId",
          "type": "uint256"
        }
      ],
      "name": "cancelSale",
      "outputs": [],
      "stateMutability": "nonpayable",
      "type": "function"
    },
    {
      "inputs": [
        {
          "internalType": "uint256",
          "name": "saleId",
          "type": "uint256"
        },
        {
          "internalType": "uint256",
          "name": "newPrice",
          "type": "uint256"
        }
      ],
      "name": "changeSalePrice",
      "outputs": [],
      "stateMutability": "nonpayable",
      "type": "function"
    },
    {
      "inputs": [
        {
          "internalType": "uint256",
          "name": "tokenId",
          "type": "uint256"
        },
        {
          "internalType": "uint256",
          "name": "price",
          "type": "uint256"
        }
      ],
      "name": "createSale",
      "outputs": [],
      "stateMutability": "nonpayable",
      "type": "function"
    },
    {
      "inputs": [],
      "name": "feePercentX10",
      "outputs": [
        {
          "internalType": "uint256",
          "name": "",
          "type": "uint256"
        }
      ],
      "stateMutability": "view",
      "type": "function"
    },
    {
      "inputs": [],
      "name": "feeReceiver",
      "outputs": [
        {
          "internalType": "address",
          "name": "",
          "type": "address"
        }
      ],
      "stateMutability": "view",
      "type": "function"
    },
    {
      "inputs": [
        {
          "internalType": "uint256",
          "name": "page",
          "type": "uint256"
        },
        {
          "internalType": "uint256",
          "name": "size",
          "type": "uint256"
        }
      ],
      "name": "getActiveSalesByPage",
      "outputs": [
        {
          "internalType": "uint256[]",
          "name": "saleIds",
          "type": "uint256[]"
        },
        {
          "internalType": "uint256[]",
          "name": "tokenIds",
          "type": "uint256[]"
        },
        {
          "internalType": "address[]",
          "name": "sellers",
          "type": "address[]"
        },
        {
          "internalType": "uint256[]",
          "name": "prices",
          "type": "uint256[]"
        },
        {
          "internalType": "uint256[]",
          "name": "lastUpdateds",
          "type": "uint256[]"
        }
      ],
      "stateMutability": "view",
      "type": "function"
    },
    {
      "inputs": [],
      "name": "getUserCreatedSales",
      "outputs": [
        {
          "internalType": "uint256[]",
          "name": "saleIds",
          "type": "uint256[]"
        },
        {
          "internalType": "uint256[]",
          "name": "tokenIds",
          "type": "uint256[]"
        },
        {
          "internalType": "address[]",
          "name": "sellers",
          "type": "address[]"
        },
        {
          "internalType": "uint256[]",
          "name": "prices",
          "type": "uint256[]"
        },
        {
          "internalType": "uint256[]",
          "name": "lastUpdateds",
          "type": "uint256[]"
        }
      ],
      "stateMutability": "view",
      "type": "function"
    },
    {
      "inputs": [],
      "name": "nft",
      "outputs": [
        {
          "internalType": "contract IERC721",
          "name": "",
          "type": "address"
        }
      ],
      "stateMutability": "view",
      "type": "function"
    },
    {
      "inputs": [
        {
          "internalType": "address",
          "name": "operator",
          "type": "address"
        },
        {
          "internalType": "address",
          "name": "from",
          "type": "address"
        },
        {
          "internalType": "uint256",
          "name": "tokenId",
          "type": "uint256"
        },
        {
          "internalType": "bytes",
          "name": "data",
          "type": "bytes"
        }
      ],
      "name": "onERC721Received",
      "outputs": [
        {
          "internalType": "bytes4",
          "name": "",
          "type": "bytes4"
        }
      ],
      "stateMutability": "pure",
      "type": "function"
    },
    {
      "inputs": [],
      "name": "owner",
      "outputs": [
        {
          "internalType": "address",
          "name": "",
          "type": "address"
        }
      ],
      "stateMutability": "view",
      "type": "function"
    },
    {
      "inputs": [
        {
          "internalType": "uint256",
          "name": "saleId",
          "type": "uint256"
        }
      ],
      "name": "purchaseSale",
      "outputs": [],
      "stateMutability": "nonpayable",
      "type": "function"
    },
    {
      "inputs": [],
      "name": "renounceOwnership",
      "outputs": [],
      "stateMutability": "nonpayable",
      "type": "function"
    },
    {
      "inputs": [
        {
          "internalType": "uint256",
          "name": "",
          "type": "uint256"
        }
      ],
      "name": "salesById",
      "outputs": [
        {
          "internalType": "uint256",
          "name": "saleId",
          "type": "uint256"
        },
        {
          "internalType": "uint256",
          "name": "tokenId",
          "type": "uint256"
        },
        {
          "internalType": "address",
          "name": "seller",
          "type": "address"
        },
        {
          "internalType": "address",
          "name": "buyer",
          "type": "address"
        },
        {
          "internalType": "uint256",
          "name": "price",
          "type": "uint256"
        },
        {
          "internalType": "bool",
          "name": "isSold",
          "type": "bool"
        },
        {
          "internalType": "bool",
          "name": "isActive",
          "type": "bool"
        },
        {
          "internalType": "uint256",
          "name": "lastUpdated",
          "type": "uint256"
        }
      ],
      "stateMutability": "view",
      "type": "function"
    },
    {
      "inputs": [
        {
          "internalType": "uint256",
          "name": "newFee",
          "type": "uint256"
        }
      ],
      "name": "setFee",
      "outputs": [],
      "stateMutability": "nonpayable",
      "type": "function"
    },
    {
      "inputs": [
        {
          "internalType": "address",
          "name": "newFeeReceiver",
          "type": "address"
        }
      ],
      "name": "setFeeReceiver",
      "outputs": [],
      "stateMutability": "nonpayable",
      "type": "function"
    },
    {
      "inputs": [],
      "name": "token",
      "outputs": [
        {
          "internalType": "contract IERC20",
          "name": "",
          "type": "address"
        }
      ],
      "stateMutability": "view",
      "type": "function"
    },
    {
      "inputs": [
        {
          "internalType": "address",
          "name": "newOwner",
          "type": "address"
        }
      ],
      "name": "transferOwnership",
      "outputs": [],
      "stateMutability": "nonpayable",
      "type": "function"
    }
  ],
  "bytecode": "0x60806040523480156200001157600080fd5b50604051620038353803806200383583398181016040528101906200003791906200020d565b620000576200004b6200012a60201b60201c565b6200013260201b60201c565b81600660006101000a81548173ffffffffffffffffffffffffffffffffffffffff021916908373ffffffffffffffffffffffffffffffffffffffff16021790555080600760006101000a81548173ffffffffffffffffffffffffffffffffffffffff021916908373ffffffffffffffffffffffffffffffffffffffff160217905550603260048190555033600560006101000a81548173ffffffffffffffffffffffffffffffffffffffff021916908373ffffffffffffffffffffffffffffffffffffffff16021790555050506200029c565b600033905090565b60008060009054906101000a900473ffffffffffffffffffffffffffffffffffffffff169050816000806101000a81548173ffffffffffffffffffffffffffffffffffffffff021916908373ffffffffffffffffffffffffffffffffffffffff1602179055508173ffffffffffffffffffffffffffffffffffffffff168173ffffffffffffffffffffffffffffffffffffffff167f8be0079c531659141344cd1fd0a4f28419497f9722a3daafe3b4186f6b6457e060405160405180910390a35050565b600081519050620002078162000282565b92915050565b600080604083850312156200022157600080fd5b60006200023185828601620001f6565b92505060206200024485828601620001f6565b9150509250929050565b60006200025b8262000262565b9050919050565b600073ffffffffffffffffffffffffffffffffffffffff82169050919050565b6200028d816200024e565b81146200029957600080fd5b50565b61358980620002ac6000396000f3fe608060405234801561001057600080fd5b506004361061010b5760003560e01c8063b3f00674116100a2578063c82e474b11610071578063c82e474b146102a3578063efdcd974146102bf578063f2fde38b146102db578063f47cf5da146102f7578063fc0c546a146103135761010b565b8063b3f0067414610214578063bd94b00514610232578063c05a6a2d1461024e578063c4c281251461026c5761010b565b80636019061b116100de5780636019061b146101b457806369fe0e2d146101d0578063715018a6146101ec5780638da5cb5b146101f65761010b565b8063150b7a021461011057806321b7e7e114610140578063355ddccf1461016257806347ccca0214610196575b600080fd5b61012a6004803603810190610125919061260b565b610331565b6040516101379190612e7a565b60405180910390f35b610148610346565b604051610159959493929190612e04565b60405180910390f35b61017c600480360381019061017791906126dd565b610910565b60405161018d959493929190612e04565b60405180910390f35b61019e6110ed565b6040516101ab9190612eb0565b60405180910390f35b6101ce60048036038101906101c991906126dd565b611113565b005b6101ea60048036038101906101e591906126b4565b6114ea565b005b6101f46115b4565b005b6101fe61163c565b60405161020b9190612d6d565b60405180910390f35b61021c611665565b6040516102299190612d6d565b60405180910390f35b61024c600480360381019061024791906126b4565b61168b565b005b6102566118d7565b60405161026391906130ab565b60405180910390f35b610286600480360381019061028191906126b4565b6118dd565b60405161029a989796959493929190613195565b60405180910390f35b6102bd60048036038101906102b891906126dd565b61197f565b005b6102d960048036038101906102d491906125b9565b611b77565b005b6102f560048036038101906102f091906125b9565b611ca7565b005b610311600480360381019061030c91906126b4565b611d9f565b005b61031b6123d9565b6040516103289190612e95565b60405180910390f35b600063150b7a0260e01b905095945050505050565b6060806060806060600061035a60016123ff565b9050600080600190505b828111610424573373ffffffffffffffffffffffffffffffffffffffff166008600083815260200190815260200160002060020160009054906101000a900473ffffffffffffffffffffffffffffffffffffffff1673ffffffffffffffffffffffffffffffffffffffff161480156103fc57506008600082815260200190815260200160002060050160019054906101000a900460ff165b156104115760018261040e9190613296565b91505b808061041c90613467565b915050610364565b508067ffffffffffffffff811115610465577f4e487b7100000000000000000000000000000000000000000000000000000000600052604160045260246000fd5b6040519080825280602002602001820160405280156104935781602001602082028036833780820191505090505b5096508067ffffffffffffffff8111156104d6577f4e487b7100000000000000000000000000000000000000000000000000000000600052604160045260246000fd5b6040519080825280602002602001820160405280156105045781602001602082028036833780820191505090505b5095508067ffffffffffffffff811115610547577f4e487b7100000000000000000000000000000000000000000000000000000000600052604160045260246000fd5b6040519080825280602002602001820160405280156105755781602001602082028036833780820191505090505b5094508067ffffffffffffffff8111156105b8577f4e487b7100000000000000000000000000000000000000000000000000000000600052604160045260246000fd5b6040519080825280602002602001820160405280156105e65781602001602082028036833780820191505090505b5093508067ffffffffffffffff811115610629577f4e487b7100000000000000000000000000000000000000000000000000000000600052604160045260246000fd5b6040519080825280602002602001820160405280156106575781602001602082028036833780820191505090505b509250600080600190505b838111610905573373ffffffffffffffffffffffffffffffffffffffff166008600083815260200190815260200160002060020160009054906101000a900473ffffffffffffffffffffffffffffffffffffffff1673ffffffffffffffffffffffffffffffffffffffff161480156106fa57506008600082815260200190815260200160002060050160019054906101000a900460ff165b156108f257600060086000838152602001908152602001600020905080600001548a8481518110610754577f4e487b7100000000000000000000000000000000000000000000000000000000600052603260045260246000fd5b602002602001018181525050806001015489848151811061079e577f4e487b7100000000000000000000000000000000000000000000000000000000600052603260045260246000fd5b6020026020010181815250508060020160009054906101000a900473ffffffffffffffffffffffffffffffffffffffff16888481518110610808577f4e487b7100000000000000000000000000000000000000000000000000000000600052603260045260246000fd5b602002602001019073ffffffffffffffffffffffffffffffffffffffff16908173ffffffffffffffffffffffffffffffffffffffff16815250508060040154878481518110610880577f4e487b7100000000000000000000000000000000000000000000000000000000600052603260045260246000fd5b60200260200101818152505080600601548684815181106108ca577f4e487b7100000000000000000000000000000000000000000000000000000000600052603260045260246000fd5b6020026020010181815250508383806108e290613467565b945014156108f05750610905565b505b80806108fd90613467565b915050610662565b505050509091929394565b6060806060806060600087101580156109295750600086115b610968576040517f08c379a000000000000000000000000000000000000000000000000000000000815260040161095f9061302b565b60405180910390fd5b600061097460026123ff565b61097e60036123ff565b61098860016123ff565b6109929190613377565b61099c9190613377565b905086886109aa919061331d565b811015610bf157600067ffffffffffffffff8111156109f2577f4e487b7100000000000000000000000000000000000000000000000000000000600052604160045260246000fd5b604051908082528060200260200182016040528015610a205781602001602082028036833780820191505090505b509550600067ffffffffffffffff811115610a64577f4e487b7100000000000000000000000000000000000000000000000000000000600052604160045260246000fd5b604051908082528060200260200182016040528015610a925781602001602082028036833780820191505090505b509450600067ffffffffffffffff811115610ad6577f4e487b7100000000000000000000000000000000000000000000000000000000600052604160045260246000fd5b604051908082528060200260200182016040528015610b045781602001602082028036833780820191505090505b509350600067ffffffffffffffff811115610b48577f4e487b7100000000000000000000000000000000000000000000000000000000600052604160045260246000fd5b604051908082528060200260200182016040528015610b765781602001602082028036833780820191505090505b509250600067ffffffffffffffff811115610bba577f4e487b7100000000000000000000000000000000000000000000000000000000600052604160045260246000fd5b604051908082528060200260200182016040528015610be85781602001602082028036833780820191505090505b509150506110e3565b6000818860018b610c029190613296565b610c0c919061331d565b11610c175787610c2f565b8789610c23919061331d565b82610c2e9190613377565b5b90508067ffffffffffffffff811115610c71577f4e487b7100000000000000000000000000000000000000000000000000000000600052604160045260246000fd5b604051908082528060200260200182016040528015610c9f5781602001602082028036833780820191505090505b5096508067ffffffffffffffff811115610ce2577f4e487b7100000000000000000000000000000000000000000000000000000000600052604160045260246000fd5b604051908082528060200260200182016040528015610d105781602001602082028036833780820191505090505b5095508067ffffffffffffffff811115610d53577f4e487b7100000000000000000000000000000000000000000000000000000000600052604160045260246000fd5b604051908082528060200260200182016040528015610d815781602001602082028036833780820191505090505b5094508067ffffffffffffffff811115610dc4577f4e487b7100000000000000000000000000000000000000000000000000000000600052604160045260246000fd5b604051908082528060200260200182016040528015610df25781602001602082028036833780820191505090505b5093508067ffffffffffffffff811115610e35577f4e487b7100000000000000000000000000000000000000000000000000000000600052604160045260246000fd5b604051908082528060200260200182016040528015610e635781602001602082028036833780820191505090505b5092506000806000600190505b610e7a60016123ff565b81116110dd576008600082815260200190815260200160002060050160019054906101000a900460ff16156110ca578180610eb490613467565b9250508a8c610ec3919061331d565b8211156110c957600060086000838152602001908152602001600020905080600001548b8581518110610f1f577f4e487b7100000000000000000000000000000000000000000000000000000000600052603260045260246000fd5b60200260200101818152505080600101548a8581518110610f69577f4e487b7100000000000000000000000000000000000000000000000000000000600052603260045260246000fd5b6020026020010181815250508060020160009054906101000a900473ffffffffffffffffffffffffffffffffffffffff16898581518110610fd3577f4e487b7100000000000000000000000000000000000000000000000000000000600052603260045260246000fd5b602002602001019073ffffffffffffffffffffffffffffffffffffffff16908173ffffffffffffffffffffffffffffffffffffffff1681525050806004015488858151811061104b577f4e487b7100000000000000000000000000000000000000000000000000000000600052603260045260246000fd5b6020026020010181815250508060060154878581518110611095577f4e487b7100000000000000000000000000000000000000000000000000000000600052603260045260246000fd5b60200260200101818152505060018c6110ae9190613377565b84806110b990613467565b955014156110c757506110dd565b505b5b80806110d590613467565b915050610e70565b50505050505b9295509295909350565b600760009054906101000a900473ffffffffffffffffffffffffffffffffffffffff1681565b60008111611156576040517f08c379a000000000000000000000000000000000000000000000000000000000815260040161114d90612ecb565b60405180910390fd5b3373ffffffffffffffffffffffffffffffffffffffff16600760009054906101000a900473ffffffffffffffffffffffffffffffffffffffff1673ffffffffffffffffffffffffffffffffffffffff16636352211e846040518263ffffffff1660e01b81526004016111c891906130ab565b60206040518083038186803b1580156111e057600080fd5b505afa1580156111f4573d6000803e3d6000fd5b505050506040513d601f19601f8201168201806040525081019061121891906125e2565b73ffffffffffffffffffffffffffffffffffffffff161461126e576040517f08c379a000000000000000000000000000000000000000000000000000000000815260040161126590612fcb565b60405180910390fd5b611278600161240d565b600061128460016123ff565b9050600760009054906101000a900473ffffffffffffffffffffffffffffffffffffffff1673ffffffffffffffffffffffffffffffffffffffff166342842e0e3330866040518463ffffffff1660e01b81526004016112e593929190612d88565b600060405180830381600087803b1580156112ff57600080fd5b505af1158015611313573d6000803e3d6000fd5b505050506040518061010001604052808281526020018481526020013373ffffffffffffffffffffffffffffffffffffffff168152602001600073ffffffffffffffffffffffffffffffffffffffff1681526020018381526020016000151581526020016001151581526020014281525060086000838152602001908152602001600020600082015181600001556020820151816001015560408201518160020160006101000a81548173ffffffffffffffffffffffffffffffffffffffff021916908373ffffffffffffffffffffffffffffffffffffffff16021790555060608201518160030160006101000a81548173ffffffffffffffffffffffffffffffffffffffff021916908373ffffffffffffffffffffffffffffffffffffffff1602179055506080820151816004015560a08201518160050160006101000a81548160ff02191690831515021790555060c08201518160050160016101000a81548160ff02191690831515021790555060e082015181600601559050503373ffffffffffffffffffffffffffffffffffffffff1683827fd035e36eed79dc051f4a1821b06d9defcfe2a74be16adb4991291117112a50f0856000426040516114dd939291906130c6565b60405180910390a4505050565b6114f2612423565b73ffffffffffffffffffffffffffffffffffffffff1661151061163c565b73ffffffffffffffffffffffffffffffffffffffff1614611566576040517f08c379a000000000000000000000000000000000000000000000000000000000815260040161155d9061300b565b60405180910390fd5b60648111156115aa576040517f08c379a00000000000000000000000000000000000000000000000000000000081526004016115a19061308b565b60405180910390fd5b8060048190555050565b6115bc612423565b73ffffffffffffffffffffffffffffffffffffffff166115da61163c565b73ffffffffffffffffffffffffffffffffffffffff1614611630576040517f08c379a00000000000000000000000000000000000000000000000000000000081526004016116279061300b565b60405180910390fd5b61163a600061242b565b565b60008060009054906101000a900473ffffffffffffffffffffffffffffffffffffffff16905090565b600560009054906101000a900473ffffffffffffffffffffffffffffffffffffffff1681565b806008600082815260200190815260200160002060020160009054906101000a900473ffffffffffffffffffffffffffffffffffffffff1673ffffffffffffffffffffffffffffffffffffffff163373ffffffffffffffffffffffffffffffffffffffff1614611730576040517f08c379a000000000000000000000000000000000000000000000000000000000815260040161172790612f4b565b60405180910390fd5b60006008600084815260200190815260200160002090508060050160019054906101000a900460ff16611798576040517f08c379a000000000000000000000000000000000000000000000000000000000815260040161178f90612eeb565b60405180910390fd5b600760009054906101000a900473ffffffffffffffffffffffffffffffffffffffff1673ffffffffffffffffffffffffffffffffffffffff166323b872dd303384600101546040518463ffffffff1660e01b81526004016117fb93929190612d88565b600060405180830381600087803b15801561181557600080fd5b505af1158015611829573d6000803e3d6000fd5b5050505060008160050160016101000a81548160ff021916908315150217905550611854600361240d565b8060020160009054906101000a900473ffffffffffffffffffffffffffffffffffffffff1673ffffffffffffffffffffffffffffffffffffffff168160010154847f9cf3aa3c21065a435a0fd60111abd0ae5148ec0805525a8ade76e8c0632b89cd8460040154426040516118ca9291906130fd565b60405180910390a4505050565b60045481565b60086020528060005260406000206000915090508060000154908060010154908060020160009054906101000a900473ffffffffffffffffffffffffffffffffffffffff16908060030160009054906101000a900473ffffffffffffffffffffffffffffffffffffffff16908060040154908060050160009054906101000a900460ff16908060050160019054906101000a900460ff16908060060154905088565b816008600082815260200190815260200160002060020160009054906101000a900473ffffffffffffffffffffffffffffffffffffffff1673ffffffffffffffffffffffffffffffffffffffff163373ffffffffffffffffffffffffffffffffffffffff1614611a24576040517f08c379a0000000000000000000000000000000000000000000000000000000008152600401611a1b90612f4b565b60405180910390fd5b60006008600085815260200190815260200160002090508060050160019054906101000a900460ff168015611a6857508060050160009054906101000a900460ff16155b611aa7576040517f08c379a0000000000000000000000000000000000000000000000000000000008152600401611a9e90612fab565b60405180910390fd5b60008311611aea576040517f08c379a0000000000000000000000000000000000000000000000000000000008152600401611ae190612feb565b60405180910390fd5b8281600401819055508060020160009054906101000a900473ffffffffffffffffffffffffffffffffffffffff1673ffffffffffffffffffffffffffffffffffffffff168160010154857fb5ff818b1e47858abe4b8dbeee7509d67cc6b3e461dc17faf8340a2defdaa8d7846004015442604051611b699291906130fd565b60405180910390a450505050565b611b7f612423565b73ffffffffffffffffffffffffffffffffffffffff16611b9d61163c565b73ffffffffffffffffffffffffffffffffffffffff1614611bf3576040517f08c379a0000000000000000000000000000000000000000000000000000000008152600401611bea9061300b565b60405180910390fd5b600073ffffffffffffffffffffffffffffffffffffffff168173ffffffffffffffffffffffffffffffffffffffff161415611c63576040517f08c379a0000000000000000000000000000000000000000000000000000000008152600401611c5a9061306b565b60405180910390fd5b80600560006101000a81548173ffffffffffffffffffffffffffffffffffffffff021916908373ffffffffffffffffffffffffffffffffffffffff16021790555050565b611caf612423565b73ffffffffffffffffffffffffffffffffffffffff16611ccd61163c565b73ffffffffffffffffffffffffffffffffffffffff1614611d23576040517f08c379a0000000000000000000000000000000000000000000000000000000008152600401611d1a9061300b565b60405180910390fd5b600073ffffffffffffffffffffffffffffffffffffffff168173ffffffffffffffffffffffffffffffffffffffff161415611d93576040517f08c379a0000000000000000000000000000000000000000000000000000000008152600401611d8a90612f0b565b60405180910390fd5b611d9c8161242b565b50565b6000600860008381526020019081526020016000209050600081600401549050600115158260050160019054906101000a900460ff161515148015611df95750600015158260050160009054906101000a900460ff161515145b611e38576040517f08c379a0000000000000000000000000000000000000000000000000000000008152600401611e2f90612f2b565b60405180910390fd5b8160020160009054906101000a900473ffffffffffffffffffffffffffffffffffffffff1673ffffffffffffffffffffffffffffffffffffffff163373ffffffffffffffffffffffffffffffffffffffff161415611ecb576040517f08c379a0000000000000000000000000000000000000000000000000000000008152600401611ec290612f6b565b60405180910390fd5b6000600660009054906101000a900473ffffffffffffffffffffffffffffffffffffffff1673ffffffffffffffffffffffffffffffffffffffff166323b872dd33600560009054906101000a900473ffffffffffffffffffffffffffffffffffffffff16611f586103e8611f4a600454896124ef90919063ffffffff16565b61250590919063ffffffff16565b6040518463ffffffff1660e01b8152600401611f7693929190612d88565b602060405180830381600087803b158015611f9057600080fd5b505af1158015611fa4573d6000803e3d6000fd5b505050506040513d601f19601f82011682018060405250810190611fc8919061268b565b90508061200a576040517f08c379a00000000000000000000000000000000000000000000000000000000081526004016120019061304b565b60405180910390fd5b6000600660009054906101000a900473ffffffffffffffffffffffffffffffffffffffff1673ffffffffffffffffffffffffffffffffffffffff166323b872dd338660020160009054906101000a900473ffffffffffffffffffffffffffffffffffffffff166120a66103e86120986004546103e86120899190613377565b8a6124ef90919063ffffffff16565b61250590919063ffffffff16565b6040518463ffffffff1660e01b81526004016120c493929190612d88565b602060405180830381600087803b1580156120de57600080fd5b505af11580156120f2573d6000803e3d6000fd5b505050506040513d601f19601f82011682018060405250810190612116919061268b565b905080612158576040517f08c379a000000000000000000000000000000000000000000000000000000000815260040161214f90612f8b565b60405180910390fd5b600084600101549050600760009054906101000a900473ffffffffffffffffffffffffffffffffffffffff1673ffffffffffffffffffffffffffffffffffffffff166323b872dd3033846040518463ffffffff1660e01b81526004016121c093929190612d88565b600060405180830381600087803b1580156121da57600080fd5b505af11580156121ee573d6000803e3d6000fd5b50505050600042905060018660050160006101000a81548160ff02191690831515021790555060008660050160016101000a81548160ff021916908315150217905550338660030160006101000a81548173ffffffffffffffffffffffffffffffffffffffff021916908373ffffffffffffffffffffffffffffffffffffffff160217905550808660060181905550612287600261240d565b81877fa1ffbf809f5113e0312f081bb16d51434d610320b7ea557250fdcbded2fbd4478860020160009054906101000a900473ffffffffffffffffffffffffffffffffffffffff16888a60050160009054906101000a900460ff16866040516122f39493929190612dbf565b60405180910390a37f7c8ecd76e70d007ea55274b3222da38779706d055ca4fe9a1e61dfc2a7e0c1e387838860020160009054906101000a900473ffffffffffffffffffffffffffffffffffffffff168960030160009054906101000a900473ffffffffffffffffffffffffffffffffffffffff16600560009054906101000a900473ffffffffffffffffffffffffffffffffffffffff166123b46103e86123a66004548e6124ef90919063ffffffff16565b61250590919063ffffffff16565b876040516123c89796959493929190613126565b60405180910390a150505050505050565b600660009054906101000a900473ffffffffffffffffffffffffffffffffffffffff1681565b600081600001549050919050565b6001816000016000828254019250508190555050565b600033905090565b60008060009054906101000a900473ffffffffffffffffffffffffffffffffffffffff169050816000806101000a81548173ffffffffffffffffffffffffffffffffffffffff021916908373ffffffffffffffffffffffffffffffffffffffff1602179055508173ffffffffffffffffffffffffffffffffffffffff168173ffffffffffffffffffffffffffffffffffffffff167f8be0079c531659141344cd1fd0a4f28419497f9722a3daafe3b4186f6b6457e060405160405180910390a35050565b600081836124fd919061331d565b905092915050565b6000818361251391906132ec565b905092915050565b60008135905061252a8161350e565b92915050565b60008151905061253f8161350e565b92915050565b60008151905061255481613525565b92915050565b60008083601f84011261256c57600080fd5b8235905067ffffffffffffffff81111561258557600080fd5b60208301915083600182028301111561259d57600080fd5b9250929050565b6000813590506125b38161353c565b92915050565b6000602082840312156125cb57600080fd5b60006125d98482850161251b565b91505092915050565b6000602082840312156125f457600080fd5b600061260284828501612530565b91505092915050565b60008060008060006080868803121561262357600080fd5b60006126318882890161251b565b95505060206126428882890161251b565b9450506040612653888289016125a4565b935050606086013567ffffffffffffffff81111561267057600080fd5b61267c8882890161255a565b92509250509295509295909350565b60006020828403121561269d57600080fd5b60006126ab84828501612545565b91505092915050565b6000602082840312156126c657600080fd5b60006126d4848285016125a4565b91505092915050565b600080604083850312156126f057600080fd5b60006126fe858286016125a4565b925050602061270f858286016125a4565b9150509250929050565b60006127258383612749565b60208301905092915050565b600061273d8383612d4f565b60208301905092915050565b612752816133ab565b82525050565b612761816133ab565b82525050565b600061277282613233565b61277c8185613263565b935061278783613213565b8060005b838110156127b857815161279f8882612719565b97506127aa83613249565b92505060018101905061278b565b5085935050505092915050565b60006127d08261323e565b6127da8185613274565b93506127e583613223565b8060005b838110156128165781516127fd8882612731565b975061280883613256565b9250506001810190506127e9565b5085935050505092915050565b61282c816133bd565b82525050565b61283b816133c9565b82525050565b61284a8161341f565b82525050565b61285981613443565b82525050565b600061286c602883613285565b91507f63726561746553616c653a205072696365206d757374206265206174206c656160008301527f73742031207765690000000000000000000000000000000000000000000000006020830152604082019050919050565b60006128d2601b83613285565b91507f63616e63656c53616c653a2053616c652077617320656e6465642e00000000006000830152602082019050919050565b6000612912602683613285565b91507f4f776e61626c653a206e6577206f776e657220697320746865207a65726f206160008301527f64647265737300000000000000000000000000000000000000000000000000006020830152604082019050919050565b6000612978601983613285565b91507f70757263686173653a2053616c652077617320656e6465642e000000000000006000830152602082019050919050565b60006129b8601383613285565b91507f496e76616c69642073616c652073656c6c6572000000000000000000000000006000830152602082019050919050565b60006129f8602b83613285565b91507f707572636861736553616c653a2042757965722069732073656c6c6572206f6660008301527f2074686973206974656d2e0000000000000000000000000000000000000000006020830152604082019050919050565b6000612a5e601883613285565b91507f4661696c656420746f207472616e7366657220746f6b656e00000000000000006000830152602082019050919050565b6000612a9e602083613285565b91507f6368616e676553616c6550726963653a2053616c652077617320656e6465642e6000830152602082019050919050565b6000612ade602583613285565b91507f63726561746553616c653a20596f7520646f206e6f74206f776e20746869732060008301527f746f6b656e0000000000000000000000000000000000000000000000000000006020830152604082019050919050565b6000612b44602d83613285565b91507f6368616e676553616c6550726963653a205072696365206d757374206265206160008301527f74206c65617374203120776569000000000000000000000000000000000000006020830152604082019050919050565b6000612baa602083613285565b91507f4f776e61626c653a2063616c6c6572206973206e6f7420746865206f776e65726000830152602082019050919050565b6000612bea603a83613285565b91507f67657441637469766553616c65734279506167653a205061676520616e64207360008301527f697a65206d7573742062652067726561746572207468616e20300000000000006020830152604082019050919050565b6000612c50602483613285565b91507f707572636861736553616c653a204661696c656420746f207472616e7366657260008301527f20666565000000000000000000000000000000000000000000000000000000006020830152604082019050919050565b6000612cb6601c83613285565b91507f73657446656552656365697665723a206e756c6c2061646472657373000000006000830152602082019050919050565b6000612cf6602c83613285565b91507f7365744665653a204665652070657263656e74206d75737420626520736d616c60008301527f6c6572207468616e2031302500000000000000000000000000000000000000006020830152604082019050919050565b612d5881613415565b82525050565b612d6781613415565b82525050565b6000602082019050612d826000830184612758565b92915050565b6000606082019050612d9d6000830186612758565b612daa6020830185612758565b612db76040830184612d5e565b949350505050565b6000608082019050612dd46000830187612758565b612de16020830186612d5e565b612dee6040830185612823565b612dfb6060830184612d5e565b95945050505050565b600060a0820190508181036000830152612e1e81886127c5565b90508181036020830152612e3281876127c5565b90508181036040830152612e468186612767565b90508181036060830152612e5a81856127c5565b90508181036080830152612e6e81846127c5565b90509695505050505050565b6000602082019050612e8f6000830184612832565b92915050565b6000602082019050612eaa6000830184612841565b92915050565b6000602082019050612ec56000830184612850565b92915050565b60006020820190508181036000830152612ee48161285f565b9050919050565b60006020820190508181036000830152612f04816128c5565b9050919050565b60006020820190508181036000830152612f2481612905565b9050919050565b60006020820190508181036000830152612f448161296b565b9050919050565b60006020820190508181036000830152612f64816129ab565b9050919050565b60006020820190508181036000830152612f84816129eb565b9050919050565b60006020820190508181036000830152612fa481612a51565b9050919050565b60006020820190508181036000830152612fc481612a91565b9050919050565b60006020820190508181036000830152612fe481612ad1565b9050919050565b6000602082019050818103600083015261300481612b37565b9050919050565b6000602082019050818103600083015261302481612b9d565b9050919050565b6000602082019050818103600083015261304481612bdd565b9050919050565b6000602082019050818103600083015261306481612c43565b9050919050565b6000602082019050818103600083015261308481612ca9565b9050919050565b600060208201905081810360008301526130a481612ce9565b9050919050565b60006020820190506130c06000830184612d5e565b92915050565b60006060820190506130db6000830186612d5e565b6130e86020830185612823565b6130f56040830184612d5e565b949350505050565b60006040820190506131126000830185612d5e565b61311f6020830184612d5e565b9392505050565b600060e08201905061313b600083018a612d5e565b6131486020830189612d5e565b6131556040830188612758565b6131626060830187612758565b61316f6080830186612758565b61317c60a0830185612d5e565b61318960c0830184612d5e565b98975050505050505050565b6000610100820190506131ab600083018b612d5e565b6131b8602083018a612d5e565b6131c56040830189612758565b6131d26060830188612758565b6131df6080830187612d5e565b6131ec60a0830186612823565b6131f960c0830185612823565b61320660e0830184612d5e565b9998505050505050505050565b6000819050602082019050919050565b6000819050602082019050919050565b600081519050919050565b600081519050919050565b6000602082019050919050565b6000602082019050919050565b600082825260208201905092915050565b600082825260208201905092915050565b600082825260208201905092915050565b60006132a182613415565b91506132ac83613415565b9250827fffffffffffffffffffffffffffffffffffffffffffffffffffffffffffffffff038211156132e1576132e06134b0565b5b828201905092915050565b60006132f782613415565b915061330283613415565b925082613312576133116134df565b5b828204905092915050565b600061332882613415565b915061333383613415565b9250817fffffffffffffffffffffffffffffffffffffffffffffffffffffffffffffffff048311821515161561336c5761336b6134b0565b5b828202905092915050565b600061338282613415565b915061338d83613415565b9250828210156133a05761339f6134b0565b5b828203905092915050565b60006133b6826133f5565b9050919050565b60008115159050919050565b60007fffffffff0000000000000000000000000000000000000000000000000000000082169050919050565b600073ffffffffffffffffffffffffffffffffffffffff82169050919050565b6000819050919050565b600061342a82613431565b9050919050565b600061343c826133f5565b9050919050565b600061344e82613455565b9050919050565b6000613460826133f5565b9050919050565b600061347282613415565b91507fffffffffffffffffffffffffffffffffffffffffffffffffffffffffffffffff8214156134a5576134a46134b0565b5b600182019050919050565b7f4e487b7100000000000000000000000000000000000000000000000000000000600052601160045260246000fd5b7f4e487b7100000000000000000000000000000000000000000000000000000000600052601260045260246000fd5b613517816133ab565b811461352257600080fd5b50565b61352e816133bd565b811461353957600080fd5b50565b61354581613415565b811461355057600080fd5b5056fea26469706673582212201834398976765e56fc69392840ca0aa413c59245db52927f784eac77882ccb6464736f6c63430008000033",
  "linkReferences": {},
  "deployedLinkReferences": {}
}