{
    "_format": "hh-sol-artifact-1",
    "contractName": "KingAnimalNFT",
    "sourceName": "contracts/KingAnimalNFT.sol",
    "abi": [
        {
            "inputs": [],
            "stateMutability": "nonpayable",
            "type": "constructor"
        },
        {
            "anonymous": false,
            "inputs": [
                {
                    "indexed": true,
                    "internalType": "address",
                    "name": "owner",
                    "type": "address"
                },
                {
                    "indexed": true,
                    "internalType": "address",
                    "name": "approved",
                    "type": "address"
                },
                {
                    "indexed": true,
                    "internalType": "uint256",
                    "name": "tokenId",
                    "type": "uint256"
                }
            ],
            "name": "Approval",
            "type": "event"
        },
        {
            "anonymous": false,
            "inputs": [
                {
                    "indexed": true,
                    "internalType": "address",
                    "name": "owner",
                    "type": "address"
                },
                {
                    "indexed": true,
                    "internalType": "address",
                    "name": "operator",
                    "type": "address"
                },
                {
                    "indexed": false,
                    "internalType": "bool",
                    "name": "approved",
                    "type": "bool"
                }
            ],
            "name": "ApprovalForAll",
            "type": "event"
        },
        {
            "anonymous": false,
            "inputs": [
                {
                    "indexed": false,
                    "internalType": "address",
                    "name": "account",
                    "type": "address"
                }
            ],
            "name": "Paused",
            "type": "event"
        },
        {
            "anonymous": false,
            "inputs": [
                {
                    "indexed": true,
                    "internalType": "bytes32",
                    "name": "role",
                    "type": "bytes32"
                },
                {
                    "indexed": true,
                    "internalType": "bytes32",
                    "name": "previousAdminRole",
                    "type": "bytes32"
                },
                {
                    "indexed": true,
                    "internalType": "bytes32",
                    "name": "newAdminRole",
                    "type": "bytes32"
                }
            ],
            "name": "RoleAdminChanged",
            "type": "event"
        },
        {
            "anonymous": false,
            "inputs": [
                {
                    "indexed": true,
                    "internalType": "bytes32",
                    "name": "role",
                    "type": "bytes32"
                },
                {
                    "indexed": true,
                    "internalType": "address",
                    "name": "account",
                    "type": "address"
                },
                {
                    "indexed": true,
                    "internalType": "address",
                    "name": "sender",
                    "type": "address"
                }
            ],
            "name": "RoleGranted",
            "type": "event"
        },
        {
            "anonymous": false,
            "inputs": [
                {
                    "indexed": true,
                    "internalType": "bytes32",
                    "name": "role",
                    "type": "bytes32"
                },
                {
                    "indexed": true,
                    "internalType": "address",
                    "name": "account",
                    "type": "address"
                },
                {
                    "indexed": true,
                    "internalType": "address",
                    "name": "sender",
                    "type": "address"
                }
            ],
            "name": "RoleRevoked",
            "type": "event"
        },
        {
            "anonymous": false,
            "inputs": [
                {
                    "indexed": true,
                    "internalType": "address",
                    "name": "from",
                    "type": "address"
                },
                {
                    "indexed": true,
                    "internalType": "address",
                    "name": "to",
                    "type": "address"
                },
                {
                    "indexed": true,
                    "internalType": "uint256",
                    "name": "tokenId",
                    "type": "uint256"
                }
            ],
            "name": "Transfer",
            "type": "event"
        },
        {
            "anonymous": false,
            "inputs": [
                {
                    "indexed": false,
                    "internalType": "address",
                    "name": "account",
                    "type": "address"
                }
            ],
            "name": "Unpaused",
            "type": "event"
        },
        {
            "inputs": [],
            "name": "DEFAULT_ADMIN_ROLE",
            "outputs": [
                {
                    "internalType": "bytes32",
                    "name": "",
                    "type": "bytes32"
                }
            ],
            "stateMutability": "view",
            "type": "function"
        },
        {
            "inputs": [],
            "name": "MINTER_ROLE",
            "outputs": [
                {
                    "internalType": "bytes32",
                    "name": "",
                    "type": "bytes32"
                }
            ],
            "stateMutability": "view",
            "type": "function"
        },
        {
            "inputs": [],
            "name": "PAUSER_ROLE",
            "outputs": [
                {
                    "internalType": "bytes32",
                    "name": "",
                    "type": "bytes32"
                }
            ],
            "stateMutability": "view",
            "type": "function"
        },
        {
            "inputs": [],
            "name": "_tokenIdCounter",
            "outputs": [
                {
                    "internalType": "uint256",
                    "name": "_value",
                    "type": "uint256"
                }
            ],
            "stateMutability": "view",
            "type": "function"
        },
        {
            "inputs": [
                {
                    "internalType": "address",
                    "name": "to",
                    "type": "address"
                },
                {
                    "internalType": "uint256",
                    "name": "tokenId",
                    "type": "uint256"
                }
            ],
            "name": "approve",
            "outputs": [],
            "stateMutability": "nonpayable",
            "type": "function"
        },
        {
            "inputs": [
                {
                    "internalType": "address",
                    "name": "owner",
                    "type": "address"
                }
            ],
            "name": "balanceOf",
            "outputs": [
                {
                    "internalType": "uint256",
                    "name": "",
                    "type": "uint256"
                }
            ],
            "stateMutability": "view",
            "type": "function"
        },
        {
            "inputs": [
                {
                    "internalType": "uint256",
                    "name": "tokenId",
                    "type": "uint256"
                }
            ],
            "name": "burn",
            "outputs": [],
            "stateMutability": "nonpayable",
            "type": "function"
        },
        {
            "inputs": [
                {
                    "internalType": "uint256",
                    "name": "tokenId",
                    "type": "uint256"
                }
            ],
            "name": "getApproved",
            "outputs": [
                {
                    "internalType": "address",
                    "name": "",
                    "type": "address"
                }
            ],
            "stateMutability": "view",
            "type": "function"
        },
        {
            "inputs": [
                {
                    "internalType": "uint256",
                    "name": "tokenId",
                    "type": "uint256"
                }
            ],
            "name": "getNftInfo",
            "outputs": [
                {
                    "internalType": "uint256",
                    "name": "",
                    "type": "uint256"
                }
            ],
            "stateMutability": "view",
            "type": "function"
        },
        {
            "inputs": [
                {
                    "internalType": "bytes32",
                    "name": "role",
                    "type": "bytes32"
                }
            ],
            "name": "getRoleAdmin",
            "outputs": [
                {
                    "internalType": "bytes32",
                    "name": "",
                    "type": "bytes32"
                }
            ],
            "stateMutability": "view",
            "type": "function"
        },
        {
            "inputs": [
                {
                    "internalType": "bytes32",
                    "name": "role",
                    "type": "bytes32"
                },
                {
                    "internalType": "address",
                    "name": "account",
                    "type": "address"
                }
            ],
            "name": "grantRole",
            "outputs": [],
            "stateMutability": "nonpayable",
            "type": "function"
        },
        {
            "inputs": [
                {
                    "internalType": "bytes32",
                    "name": "role",
                    "type": "bytes32"
                },
                {
                    "internalType": "address",
                    "name": "account",
                    "type": "address"
                }
            ],
            "name": "hasRole",
            "outputs": [
                {
                    "internalType": "bool",
                    "name": "",
                    "type": "bool"
                }
            ],
            "stateMutability": "view",
            "type": "function"
        },
        {
            "inputs": [
                {
                    "internalType": "address",
                    "name": "owner",
                    "type": "address"
                },
                {
                    "internalType": "address",
                    "name": "operator",
                    "type": "address"
                }
            ],
            "name": "isApprovedForAll",
            "outputs": [
                {
                    "internalType": "bool",
                    "name": "",
                    "type": "bool"
                }
            ],
            "stateMutability": "view",
            "type": "function"
        },
        {
            "inputs": [
                {
                    "internalType": "uint256",
                    "name": "",
                    "type": "uint256"
                }
            ],
            "name": "itemById",
            "outputs": [
                {
                    "internalType": "uint256",
                    "name": "itemId",
                    "type": "uint256"
                }
            ],
            "stateMutability": "view",
            "type": "function"
        },
        {
            "inputs": [
                {
                    "internalType": "address",
                    "name": "user",
                    "type": "address"
                },
                {
                    "internalType": "string",
                    "name": "uri",
                    "type": "string"
                },
                {
                    "internalType": "uint256",
                    "name": "itemId",
                    "type": "uint256"
                }
            ],
            "name": "mint",
            "outputs": [],
            "stateMutability": "nonpayable",
            "type": "function"
        },
        {
            "inputs": [],
            "name": "name",
            "outputs": [
                {
                    "internalType": "string",
                    "name": "",
                    "type": "string"
                }
            ],
            "stateMutability": "view",
            "type": "function"
        },
        {
            "inputs": [
                {
                    "internalType": "uint256",
                    "name": "tokenId",
                    "type": "uint256"
                }
            ],
            "name": "ownerOf",
            "outputs": [
                {
                    "internalType": "address",
                    "name": "",
                    "type": "address"
                }
            ],
            "stateMutability": "view",
            "type": "function"
        },
        {
            "inputs": [],
            "name": "pause",
            "outputs": [],
            "stateMutability": "nonpayable",
            "type": "function"
        },
        {
            "inputs": [],
            "name": "paused",
            "outputs": [
                {
                    "internalType": "bool",
                    "name": "",
                    "type": "bool"
                }
            ],
            "stateMutability": "view",
            "type": "function"
        },
        {
            "inputs": [
                {
                    "internalType": "bytes32",
                    "name": "role",
                    "type": "bytes32"
                },
                {
                    "internalType": "address",
                    "name": "account",
                    "type": "address"
                }
            ],
            "name": "renounceRole",
            "outputs": [],
            "stateMutability": "nonpayable",
            "type": "function"
        },
        {
            "inputs": [
                {
                    "internalType": "bytes32",
                    "name": "role",
                    "type": "bytes32"
                },
                {
                    "internalType": "address",
                    "name": "account",
                    "type": "address"
                }
            ],
            "name": "revokeRole",
            "outputs": [],
            "stateMutability": "nonpayable",
            "type": "function"
        },
        {
            "inputs": [
                {
                    "internalType": "address",
                    "name": "from",
                    "type": "address"
                },
                {
                    "internalType": "address",
                    "name": "to",
                    "type": "address"
                },
                {
                    "internalType": "uint256",
                    "name": "tokenId",
                    "type": "uint256"
                }
            ],
            "name": "safeTransferFrom",
            "outputs": [],
            "stateMutability": "nonpayable",
            "type": "function"
        },
        {
            "inputs": [
                {
                    "internalType": "address",
                    "name": "from",
                    "type": "address"
                },
                {
                    "internalType": "address",
                    "name": "to",
                    "type": "address"
                },
                {
                    "internalType": "uint256",
                    "name": "tokenId",
                    "type": "uint256"
                },
                {
                    "internalType": "bytes",
                    "name": "_data",
                    "type": "bytes"
                }
            ],
            "name": "safeTransferFrom",
            "outputs": [],
            "stateMutability": "nonpayable",
            "type": "function"
        },
        {
            "inputs": [
                {
                    "internalType": "address",
                    "name": "operator",
                    "type": "address"
                },
                {
                    "internalType": "bool",
                    "name": "approved",
                    "type": "bool"
                }
            ],
            "name": "setApprovalForAll",
            "outputs": [],
            "stateMutability": "nonpayable",
            "type": "function"
        },
        {
            "inputs": [
                {
                    "internalType": "uint256",
                    "name": "tokenId",
                    "type": "uint256"
                },
                {
                    "internalType": "uint256",
                    "name": "itemId",
                    "type": "uint256"
                }
            ],
            "name": "setItemId",
            "outputs": [],
            "stateMutability": "nonpayable",
            "type": "function"
        },
        {
            "inputs": [
                {
                    "internalType": "uint256",
                    "name": "tokenId",
                    "type": "uint256"
                },
                {
                    "internalType": "string",
                    "name": "uri",
                    "type": "string"
                }
            ],
            "name": "setTokenURI",
            "outputs": [],
            "stateMutability": "nonpayable",
            "type": "function"
        },
        {
            "inputs": [
                {
                    "internalType": "bytes4",
                    "name": "interfaceId",
                    "type": "bytes4"
                }
            ],
            "name": "supportsInterface",
            "outputs": [
                {
                    "internalType": "bool",
                    "name": "",
                    "type": "bool"
                }
            ],
            "stateMutability": "view",
            "type": "function"
        },
        {
            "inputs": [],
            "name": "symbol",
            "outputs": [
                {
                    "internalType": "string",
                    "name": "",
                    "type": "string"
                }
            ],
            "stateMutability": "view",
            "type": "function"
        },
        {
            "inputs": [
                {
                    "internalType": "uint256",
                    "name": "index",
                    "type": "uint256"
                }
            ],
            "name": "tokenByIndex",
            "outputs": [
                {
                    "internalType": "uint256",
                    "name": "",
                    "type": "uint256"
                }
            ],
            "stateMutability": "view",
            "type": "function"
        },
        {
            "inputs": [
                {
                    "internalType": "address",
                    "name": "owner",
                    "type": "address"
                },
                {
                    "internalType": "uint256",
                    "name": "index",
                    "type": "uint256"
                }
            ],
            "name": "tokenOfOwnerByIndex",
            "outputs": [
                {
                    "internalType": "uint256",
                    "name": "",
                    "type": "uint256"
                }
            ],
            "stateMutability": "view",
            "type": "function"
        },
        {
            "inputs": [
                {
                    "internalType": "uint256",
                    "name": "tokenId",
                    "type": "uint256"
                }
            ],
            "name": "tokenURI",
            "outputs": [
                {
                    "internalType": "string",
                    "name": "",
                    "type": "string"
                }
            ],
            "stateMutability": "view",
            "type": "function"
        },
        {
            "inputs": [],
            "name": "totalSupply",
            "outputs": [
                {
                    "internalType": "uint256",
                    "name": "",
                    "type": "uint256"
                }
            ],
            "stateMutability": "view",
            "type": "function"
        },
        {
            "inputs": [
                {
                    "internalType": "address",
                    "name": "from",
                    "type": "address"
                },
                {
                    "internalType": "address",
                    "name": "to",
                    "type": "address"
                },
                {
                    "internalType": "uint256",
                    "name": "tokenId",
                    "type": "uint256"
                }
            ],
            "name": "transferFrom",
            "outputs": [],
            "stateMutability": "nonpayable",
            "type": "function"
        },
        {
            "inputs": [],
            "name": "unpause",
            "outputs": [],
            "stateMutability": "nonpayable",
            "type": "function"
        }
    ],
    "bytecode": "0x60806040523480156200001157600080fd5b506040518060400160405280600f81526020017f4b696e6720416e696d616c204e465400000000000000000000000000000000008152506040518060400160405280600381526020017f4b414e0000000000000000000000000000000000000000000000000000000000815250816000908051906020019062000096929190620002c7565b508060019080519060200190620000af929190620002c7565b5050506000600b60006101000a81548160ff021916908315150217905550620000e26000801b336200014c60201b60201c565b620001147f65d7a28e3265b37a6474929f336521b332c1681b933f6cb9f3376673440d862a336200014c60201b60201c565b620001467f9f2df0fed2c77648de5860a4cc508cd0818c85b8b8a1ab4ceeef8d981c8956a6336200014c60201b60201c565b620003dc565b6200015e82826200016260201b60201c565b5050565b6200017482826200025460201b60201c565b62000250576001600c600084815260200190815260200160002060000160008373ffffffffffffffffffffffffffffffffffffffff1673ffffffffffffffffffffffffffffffffffffffff16815260200190815260200160002060006101000a81548160ff021916908315150217905550620001f5620002bf60201b60201c565b73ffffffffffffffffffffffffffffffffffffffff168173ffffffffffffffffffffffffffffffffffffffff16837f2f8788117e7eff1d82e926ec794901d17c78024a50270940304540a733656f0d60405160405180910390a45b5050565b6000600c600084815260200190815260200160002060000160008373ffffffffffffffffffffffffffffffffffffffff1673ffffffffffffffffffffffffffffffffffffffff16815260200190815260200160002060009054906101000a900460ff16905092915050565b600033905090565b828054620002d59062000377565b90600052602060002090601f016020900481019282620002f9576000855562000345565b82601f106200031457805160ff191683800117855562000345565b8280016001018555821562000345579182015b828111156200034457825182559160200191906001019062000327565b5b50905062000354919062000358565b5090565b5b808211156200037357600081600090555060010162000359565b5090565b600060028204905060018216806200039057607f821691505b60208210811415620003a757620003a6620003ad565b5b50919050565b7f4e487b7100000000000000000000000000000000000000000000000000000000600052602260045260246000fd5b6147ea80620003ec6000396000f3fe608060405234801561001057600080fd5b50600436106102065760003560e01c80636352211e1161011a578063b88d4fde116100ad578063d53913931161007c578063d5391393146105e7578063d547741f14610605578063d5ec2d8314610621578063e63ab1e914610651578063e985e9c51461066f57610206565b8063b88d4fde1461054f578063ba7aef431461056b578063c51a794514610587578063c87b56dd146105b757610206565b806391d14854116100e957806391d14854146104c757806395d89b41146104f7578063a217fddf14610515578063a22cb4651461053357610206565b80636352211e1461043f57806370a082311461046f5780638456cb591461049f57806384c4bd4b146104a957610206565b80632f2ff15d1161019d57806342842e0e1161016c57806342842e0e1461039d57806342966c68146103b95780634f6ccce7146103d557806350edef68146104055780635c975abb1461042157610206565b80632f2ff15d1461032b5780632f745c591461034757806336568abe146103775780633f4ba83a1461039357610206565b8063162094c4116101d9578063162094c4146102a557806318160ddd146102c157806323b872dd146102df578063248a9ca3146102fb57610206565b806301ffc9a71461020b57806306fdde031461023b578063081812fc14610259578063095ea7b314610289575b600080fd5b6102256004803603810190610220919061342d565b61069f565b6040516102329190613fa2565b60405180910390f35b6102436106b1565b6040516102509190613fd8565b60405180910390f35b610273600480360381019061026e919061347f565b610743565b6040516102809190613f3b565b60405180910390f35b6102a3600480360381019061029e919061338c565b6107c8565b005b6102bf60048036038101906102ba91906134a8565b6108e0565b005b6102c9610921565b6040516102d691906142da565b60405180910390f35b6102f960048036038101906102f4919061321f565b61092e565b005b610315600480360381019061031091906133c8565b61098e565b6040516103229190613fbd565b60405180910390f35b610345600480360381019061034091906133f1565b6109ae565b005b610361600480360381019061035c919061338c565b6109d7565b60405161036e91906142da565b60405180910390f35b610391600480360381019061038c91906133f1565b610a7c565b005b61039b610aff565b005b6103b760048036038101906103b2919061321f565b610b3c565b005b6103d360048036038101906103ce919061347f565b610b5c565b005b6103ef60048036038101906103ea919061347f565b610bb8565b6040516103fc91906142da565b60405180910390f35b61041f600480360381019061041a91906134fc565b610c4f565b005b610429610c90565b6040516104369190613fa2565b60405180910390f35b6104596004803603810190610454919061347f565b610ca7565b6040516104669190613f3b565b60405180910390f35b610489600480360381019061048491906131ba565b610d59565b60405161049691906142da565b60405180910390f35b6104a7610e11565b005b6104b1610e4e565b6040516104be91906142da565b60405180910390f35b6104e160048036038101906104dc91906133f1565b610e5a565b6040516104ee9190613fa2565b60405180910390f35b6104ff610ec5565b60405161050c9190613fd8565b60405180910390f35b61051d610f57565b60405161052a9190613fbd565b60405180910390f35b61054d600480360381019061054891906132e9565b610f5e565b005b6105696004803603810190610564919061326e565b6110df565b005b61058560048036038101906105809190613325565b611141565b005b6105a1600480360381019061059c919061347f565b611184565b6040516105ae91906142da565b60405180910390f35b6105d160048036038101906105cc919061347f565b6111a2565b6040516105de9190613fd8565b60405180910390f35b6105ef6111b4565b6040516105fc9190613fbd565b60405180910390f35b61061f600480360381019061061a91906133f1565b6111d8565b005b61063b6004803603810190610636919061347f565b611201565b60405161064891906142da565b60405180910390f35b610659611221565b6040516106669190613fbd565b60405180910390f35b610689600480360381019061068491906131e3565b611245565b6040516106969190613fa2565b60405180910390f35b60006106aa826112d9565b9050919050565b6060600080546106c0906145c8565b80601f01602080910402602001604051908101604052809291908181526020018280546106ec906145c8565b80156107395780601f1061070e57610100808354040283529160200191610739565b820191906000526020600020905b81548152906001019060200180831161071c57829003601f168201915b5050505050905090565b600061074e82611353565b61078d576040517f08c379a0000000000000000000000000000000000000000000000000000000008152600401610784906141da565b60405180910390fd5b6004600083815260200190815260200160002060009054906101000a900473ffffffffffffffffffffffffffffffffffffffff169050919050565b60006107d382610ca7565b90508073ffffffffffffffffffffffffffffffffffffffff168373ffffffffffffffffffffffffffffffffffffffff161415610844576040517f08c379a000000000000000000000000000000000000000000000000000000000815260040161083b9061423a565b60405180910390fd5b8073ffffffffffffffffffffffffffffffffffffffff166108636113bf565b73ffffffffffffffffffffffffffffffffffffffff16148061089257506108918161088c6113bf565b611245565b5b6108d1576040517f08c379a00000000000000000000000000000000000000000000000000000000081526004016108c89061411a565b60405180910390fd5b6108db83836113c7565b505050565b7f9f2df0fed2c77648de5860a4cc508cd0818c85b8b8a1ab4ceeef8d981c8956a66109128161090d6113bf565b611480565b61091c838361151d565b505050565b6000600880549050905090565b61093f6109396113bf565b82611591565b61097e576040517f08c379a00000000000000000000000000000000000000000000000000000000081526004016109759061425a565b60405180910390fd5b61098983838361166f565b505050565b6000600c6000838152602001908152602001600020600101549050919050565b6109b78261098e565b6109c8816109c36113bf565b611480565b6109d283836118cb565b505050565b60006109e283610d59565b8210610a23576040517f08c379a0000000000000000000000000000000000000000000000000000000008152600401610a1a9061403a565b60405180910390fd5b600660008473ffffffffffffffffffffffffffffffffffffffff1673ffffffffffffffffffffffffffffffffffffffff168152602001908152602001600020600083815260200190815260200160002054905092915050565b610a846113bf565b73ffffffffffffffffffffffffffffffffffffffff168173ffffffffffffffffffffffffffffffffffffffff1614610af1576040517f08c379a0000000000000000000000000000000000000000000000000000000008152600401610ae8906142ba565b60405180910390fd5b610afb82826119ac565b5050565b7f65d7a28e3265b37a6474929f336521b332c1681b933f6cb9f3376673440d862a610b3181610b2c6113bf565b611480565b610b39611a8e565b50565b610b57838383604051806020016040528060008152506110df565b505050565b610b6d610b676113bf565b82611591565b610bac576040517f08c379a0000000000000000000000000000000000000000000000000000000008152600401610ba39061429a565b60405180910390fd5b610bb581611b30565b50565b6000610bc2610921565b8210610c03576040517f08c379a0000000000000000000000000000000000000000000000000000000008152600401610bfa9061427a565b60405180910390fd5b60088281548110610c3d577f4e487b7100000000000000000000000000000000000000000000000000000000600052603260045260246000fd5b90600052602060002001549050919050565b7f9f2df0fed2c77648de5860a4cc508cd0818c85b8b8a1ab4ceeef8d981c8956a6610c8181610c7c6113bf565b611480565b610c8b8383611b3c565b505050565b6000600b60009054906101000a900460ff16905090565b6000806002600084815260200190815260200160002060009054906101000a900473ffffffffffffffffffffffffffffffffffffffff169050600073ffffffffffffffffffffffffffffffffffffffff168173ffffffffffffffffffffffffffffffffffffffff161415610d50576040517f08c379a0000000000000000000000000000000000000000000000000000000008152600401610d479061415a565b60405180910390fd5b80915050919050565b60008073ffffffffffffffffffffffffffffffffffffffff168273ffffffffffffffffffffffffffffffffffffffff161415610dca576040517f08c379a0000000000000000000000000000000000000000000000000000000008152600401610dc19061413a565b60405180910390fd5b600360008373ffffffffffffffffffffffffffffffffffffffff1673ffffffffffffffffffffffffffffffffffffffff168152602001908152602001600020549050919050565b7f65d7a28e3265b37a6474929f336521b332c1681b933f6cb9f3376673440d862a610e4381610e3e6113bf565b611480565b610e4b611b6f565b50565b600d8060000154905081565b6000600c600084815260200190815260200160002060000160008373ffffffffffffffffffffffffffffffffffffffff1673ffffffffffffffffffffffffffffffffffffffff16815260200190815260200160002060009054906101000a900460ff16905092915050565b606060018054610ed4906145c8565b80601f0160208091040260200160405190810160405280929190818152602001828054610f00906145c8565b8015610f4d5780601f10610f2257610100808354040283529160200191610f4d565b820191906000526020600020905b815481529060010190602001808311610f3057829003601f168201915b5050505050905090565b6000801b81565b610f666113bf565b73ffffffffffffffffffffffffffffffffffffffff168273ffffffffffffffffffffffffffffffffffffffff161415610fd4576040517f08c379a0000000000000000000000000000000000000000000000000000000008152600401610fcb906140ba565b60405180910390fd5b8060056000610fe16113bf565b73ffffffffffffffffffffffffffffffffffffffff1673ffffffffffffffffffffffffffffffffffffffff16815260200190815260200160002060008473ffffffffffffffffffffffffffffffffffffffff1673ffffffffffffffffffffffffffffffffffffffff16815260200190815260200160002060006101000a81548160ff0219169083151502179055508173ffffffffffffffffffffffffffffffffffffffff1661108e6113bf565b73ffffffffffffffffffffffffffffffffffffffff167f17307eab39ab6107e8899845ad3d59bd9653f200f220920489ca2b5937696c31836040516110d39190613fa2565b60405180910390a35050565b6110f06110ea6113bf565b83611591565b61112f576040517f08c379a00000000000000000000000000000000000000000000000000000000081526004016111269061425a565b60405180910390fd5b61113b84848484611c12565b50505050565b7f9f2df0fed2c77648de5860a4cc508cd0818c85b8b8a1ab4ceeef8d981c8956a66111738161116e6113bf565b611480565b61117e848484611c6e565b50505050565b600e6020528060005260406000206000915090508060000154905081565b60606111ad82611caa565b9050919050565b7f9f2df0fed2c77648de5860a4cc508cd0818c85b8b8a1ab4ceeef8d981c8956a681565b6111e18261098e565b6111f2816111ed6113bf565b611480565b6111fc83836119ac565b505050565b6000600e6000838152602001908152602001600020600001549050919050565b7f65d7a28e3265b37a6474929f336521b332c1681b933f6cb9f3376673440d862a81565b6000600560008473ffffffffffffffffffffffffffffffffffffffff1673ffffffffffffffffffffffffffffffffffffffff16815260200190815260200160002060008373ffffffffffffffffffffffffffffffffffffffff1673ffffffffffffffffffffffffffffffffffffffff16815260200190815260200160002060009054906101000a900460ff16905092915050565b60007f7965db0b000000000000000000000000000000000000000000000000000000007bffffffffffffffffffffffffffffffffffffffffffffffffffffffff1916827bffffffffffffffffffffffffffffffffffffffffffffffffffffffff1916148061134c575061134b82611dfc565b5b9050919050565b60008073ffffffffffffffffffffffffffffffffffffffff166002600084815260200190815260200160002060009054906101000a900473ffffffffffffffffffffffffffffffffffffffff1673ffffffffffffffffffffffffffffffffffffffff1614159050919050565b600033905090565b816004600083815260200190815260200160002060006101000a81548173ffffffffffffffffffffffffffffffffffffffff021916908373ffffffffffffffffffffffffffffffffffffffff160217905550808273ffffffffffffffffffffffffffffffffffffffff1661143a83610ca7565b73ffffffffffffffffffffffffffffffffffffffff167f8c5be1e5ebec7d5bd14f71427d1e84f3dd0314c0f7b2291e5b200ac8c7c3b92560405160405180910390a45050565b61148a8282610e5a565b611519576114af8173ffffffffffffffffffffffffffffffffffffffff166014611e76565b6114bd8360001c6020611e76565b6040516020016114ce929190613f01565b6040516020818303038152906040526040517f08c379a00000000000000000000000000000000000000000000000000000000081526004016115109190613fd8565b60405180910390fd5b5050565b61152682611353565b611565576040517f08c379a000000000000000000000000000000000000000000000000000000000815260040161155c9061417a565b60405180910390fd5b80600a6000848152602001908152602001600020908051906020019061158c929190612f89565b505050565b600061159c82611353565b6115db576040517f08c379a00000000000000000000000000000000000000000000000000000000081526004016115d2906140da565b60405180910390fd5b60006115e683610ca7565b90508073ffffffffffffffffffffffffffffffffffffffff168473ffffffffffffffffffffffffffffffffffffffff16148061165557508373ffffffffffffffffffffffffffffffffffffffff1661163d84610743565b73ffffffffffffffffffffffffffffffffffffffff16145b8061166657506116658185611245565b5b91505092915050565b8273ffffffffffffffffffffffffffffffffffffffff1661168f82610ca7565b73ffffffffffffffffffffffffffffffffffffffff16146116e5576040517f08c379a00000000000000000000000000000000000000000000000000000000081526004016116dc906141fa565b60405180910390fd5b600073ffffffffffffffffffffffffffffffffffffffff168273ffffffffffffffffffffffffffffffffffffffff161415611755576040517f08c379a000000000000000000000000000000000000000000000000000000000815260040161174c9061409a565b60405180910390fd5b611760838383612170565b61176b6000826113c7565b6001600360008573ffffffffffffffffffffffffffffffffffffffff1673ffffffffffffffffffffffffffffffffffffffff16815260200190815260200160002060008282546117bb91906144aa565b925050819055506001600360008473ffffffffffffffffffffffffffffffffffffffff1673ffffffffffffffffffffffffffffffffffffffff168152602001908152602001600020600082825461181291906143c9565b92505081905550816002600083815260200190815260200160002060006101000a81548173ffffffffffffffffffffffffffffffffffffffff021916908373ffffffffffffffffffffffffffffffffffffffff160217905550808273ffffffffffffffffffffffffffffffffffffffff168473ffffffffffffffffffffffffffffffffffffffff167fddf252ad1be2c89b69c2b068fc378daa952ba7f163c4a11628f55a4df523b3ef60405160405180910390a4505050565b6118d58282610e5a565b6119a8576001600c600084815260200190815260200160002060000160008373ffffffffffffffffffffffffffffffffffffffff1673ffffffffffffffffffffffffffffffffffffffff16815260200190815260200160002060006101000a81548160ff02191690831515021790555061194d6113bf565b73ffffffffffffffffffffffffffffffffffffffff168173ffffffffffffffffffffffffffffffffffffffff16837f2f8788117e7eff1d82e926ec794901d17c78024a50270940304540a733656f0d60405160405180910390a45b5050565b6119b68282610e5a565b15611a8a576000600c600084815260200190815260200160002060000160008373ffffffffffffffffffffffffffffffffffffffff1673ffffffffffffffffffffffffffffffffffffffff16815260200190815260200160002060006101000a81548160ff021916908315150217905550611a2f6113bf565b73ffffffffffffffffffffffffffffffffffffffff168173ffffffffffffffffffffffffffffffffffffffff16837ff6391f5c32d9c69d2a47ea670b442974b53935d1edc7fd64eb21e047a839171b60405160405180910390a45b5050565b611a96610c90565b611ad5576040517f08c379a0000000000000000000000000000000000000000000000000000000008152600401611acc9061401a565b60405180910390fd5b6000600b60006101000a81548160ff0219169083151502179055507f5db9ee0a495bf2e6ff9c91a7834c1ba4fdd244a5e8aa4e537bd38aeae4b073aa611b196113bf565b604051611b269190613f3b565b60405180910390a1565b611b39816121c8565b50565b604051806020016040528082815250600e6000848152602001908152602001600020600082015181600001559050505050565b611b77610c90565b15611bb7576040517f08c379a0000000000000000000000000000000000000000000000000000000008152600401611bae906140fa565b60405180910390fd5b6001600b60006101000a81548160ff0219169083151502179055507f62e78cea01bee320cd4e420270b5ea74000d11b0c9f74754ebdbfc544b05a258611bfb6113bf565b604051611c089190613f3b565b60405180910390a1565b611c1d84848461166f565b611c298484848461221b565b611c68576040517f08c379a0000000000000000000000000000000000000000000000000000000008152600401611c5f9061405a565b60405180910390fd5b50505050565b611c78600d6123b2565b6000611c84600d6123c8565b9050611c908183611b3c565b611c9a84826123d6565b611ca4818461151d565b50505050565b6060611cb582611353565b611cf4576040517f08c379a0000000000000000000000000000000000000000000000000000000008152600401611ceb906141ba565b60405180910390fd5b6000600a60008481526020019081526020016000208054611d14906145c8565b80601f0160208091040260200160405190810160405280929190818152602001828054611d40906145c8565b8015611d8d5780601f10611d6257610100808354040283529160200191611d8d565b820191906000526020600020905b815481529060010190602001808311611d7057829003601f168201915b505050505090506000611d9e6123f4565b9050600081511415611db4578192505050611df7565b600082511115611de9578082604051602001611dd1929190613edd565b60405160208183030381529060405292505050611df7565b611df28461240b565b925050505b919050565b60007f780e9d63000000000000000000000000000000000000000000000000000000007bffffffffffffffffffffffffffffffffffffffffffffffffffffffff1916827bffffffffffffffffffffffffffffffffffffffffffffffffffffffff19161480611e6f5750611e6e826124b2565b5b9050919050565b606060006002836002611e899190614450565b611e9391906143c9565b67ffffffffffffffff811115611ed2577f4e487b7100000000000000000000000000000000000000000000000000000000600052604160045260246000fd5b6040519080825280601f01601f191660200182016040528015611f045781602001600182028036833780820191505090505b5090507f300000000000000000000000000000000000000000000000000000000000000081600081518110611f62577f4e487b7100000000000000000000000000000000000000000000000000000000600052603260045260246000fd5b60200101907effffffffffffffffffffffffffffffffffffffffffffffffffffffffffffff1916908160001a9053507f780000000000000000000000000000000000000000000000000000000000000081600181518110611fec577f4e487b7100000000000000000000000000000000000000000000000000000000600052603260045260246000fd5b60200101907effffffffffffffffffffffffffffffffffffffffffffffffffffffffffffff1916908160001a9053506000600184600261202c9190614450565b61203691906143c9565b90505b6001811115612122577f3031323334353637383961626364656600000000000000000000000000000000600f86166010811061209e577f4e487b7100000000000000000000000000000000000000000000000000000000600052603260045260246000fd5b1a60f81b8282815181106120db577f4e487b7100000000000000000000000000000000000000000000000000000000600052603260045260246000fd5b60200101907effffffffffffffffffffffffffffffffffffffffffffffffffffffffffffff1916908160001a905350600485901c94508061211b9061459e565b9050612039565b5060008414612166576040517f08c379a000000000000000000000000000000000000000000000000000000000815260040161215d90613ffa565b60405180910390fd5b8091505092915050565b612178610c90565b156121b8576040517f08c379a00000000000000000000000000000000000000000000000000000000081526004016121af906140fa565b60405180910390fd5b6121c3838383612594565b505050565b6121d1816126a8565b6000600a600083815260200190815260200160002080546121f1906145c8565b90501461221857600a60008281526020019081526020016000206000612217919061300f565b5b50565b600061223c8473ffffffffffffffffffffffffffffffffffffffff166127b9565b156123a5578373ffffffffffffffffffffffffffffffffffffffff1663150b7a026122656113bf565b8786866040518563ffffffff1660e01b81526004016122879493929190613f56565b602060405180830381600087803b1580156122a157600080fd5b505af19250505080156122d257506040513d601f19601f820116820180604052508101906122cf9190613456565b60015b612355573d8060008114612302576040519150601f19603f3d011682016040523d82523d6000602084013e612307565b606091505b5060008151141561234d576040517f08c379a00000000000000000000000000000000000000000000000000000000081526004016123449061405a565b60405180910390fd5b805181602001fd5b63150b7a0260e01b7bffffffffffffffffffffffffffffffffffffffffffffffffffffffff1916817bffffffffffffffffffffffffffffffffffffffffffffffffffffffff1916149150506123aa565b600190505b949350505050565b6001816000016000828254019250508190555050565b600081600001549050919050565b6123f08282604051806020016040528060008152506127cc565b5050565b606060405180602001604052806000815250905090565b606061241682611353565b612455576040517f08c379a000000000000000000000000000000000000000000000000000000000815260040161244c9061421a565b60405180910390fd5b600061245f6123f4565b9050600081511161247f57604051806020016040528060008152506124aa565b8061248984612827565b60405160200161249a929190613edd565b6040516020818303038152906040525b915050919050565b60007f80ac58cd000000000000000000000000000000000000000000000000000000007bffffffffffffffffffffffffffffffffffffffffffffffffffffffff1916827bffffffffffffffffffffffffffffffffffffffffffffffffffffffff1916148061257d57507f5b5e139f000000000000000000000000000000000000000000000000000000007bffffffffffffffffffffffffffffffffffffffffffffffffffffffff1916827bffffffffffffffffffffffffffffffffffffffffffffffffffffffff1916145b8061258d575061258c826129d4565b5b9050919050565b61259f838383612a3e565b600073ffffffffffffffffffffffffffffffffffffffff168373ffffffffffffffffffffffffffffffffffffffff1614156125e2576125dd81612a43565b612621565b8173ffffffffffffffffffffffffffffffffffffffff168373ffffffffffffffffffffffffffffffffffffffff16146126205761261f8382612a8c565b5b5b600073ffffffffffffffffffffffffffffffffffffffff168273ffffffffffffffffffffffffffffffffffffffff1614156126645761265f81612bf9565b6126a3565b8273ffffffffffffffffffffffffffffffffffffffff168273ffffffffffffffffffffffffffffffffffffffff16146126a2576126a18282612d3c565b5b5b505050565b60006126b382610ca7565b90506126c181600084612170565b6126cc6000836113c7565b6001600360008373ffffffffffffffffffffffffffffffffffffffff1673ffffffffffffffffffffffffffffffffffffffff168152602001908152602001600020600082825461271c91906144aa565b925050819055506002600083815260200190815260200160002060006101000a81549073ffffffffffffffffffffffffffffffffffffffff021916905581600073ffffffffffffffffffffffffffffffffffffffff168273ffffffffffffffffffffffffffffffffffffffff167fddf252ad1be2c89b69c2b068fc378daa952ba7f163c4a11628f55a4df523b3ef60405160405180910390a45050565b600080823b905060008111915050919050565b6127d68383612dbb565b6127e3600084848461221b565b612822576040517f08c379a00000000000000000000000000000000000000000000000000000000081526004016128199061405a565b60405180910390fd5b505050565b6060600082141561286f576040518060400160405280600181526020017f300000000000000000000000000000000000000000000000000000000000000081525090506129cf565b600082905060005b600082146128a157808061288a906145fa565b915050600a8261289a919061441f565b9150612877565b60008167ffffffffffffffff8111156128e3577f4e487b7100000000000000000000000000000000000000000000000000000000600052604160045260246000fd5b6040519080825280601f01601f1916602001820160405280156129155781602001600182028036833780820191505090505b5090505b600085146129c85760018261292e91906144aa565b9150600a8561293d9190614643565b603061294991906143c9565b60f81b818381518110612985577f4e487b7100000000000000000000000000000000000000000000000000000000600052603260045260246000fd5b60200101907effffffffffffffffffffffffffffffffffffffffffffffffffffffffffffff1916908160001a905350600a856129c1919061441f565b9450612919565b8093505050505b919050565b60007f01ffc9a7000000000000000000000000000000000000000000000000000000007bffffffffffffffffffffffffffffffffffffffffffffffffffffffff1916827bffffffffffffffffffffffffffffffffffffffffffffffffffffffff1916149050919050565b505050565b6008805490506009600083815260200190815260200160002081905550600881908060018154018082558091505060019003906000526020600020016000909190919091505550565b60006001612a9984610d59565b612aa391906144aa565b9050600060076000848152602001908152602001600020549050818114612b88576000600660008673ffffffffffffffffffffffffffffffffffffffff1673ffffffffffffffffffffffffffffffffffffffff168152602001908152602001600020600084815260200190815260200160002054905080600660008773ffffffffffffffffffffffffffffffffffffffff1673ffffffffffffffffffffffffffffffffffffffff168152602001908152602001600020600084815260200190815260200160002081905550816007600083815260200190815260200160002081905550505b6007600084815260200190815260200160002060009055600660008573ffffffffffffffffffffffffffffffffffffffff1673ffffffffffffffffffffffffffffffffffffffff16815260200190815260200160002060008381526020019081526020016000206000905550505050565b60006001600880549050612c0d91906144aa565b9050600060096000848152602001908152602001600020549050600060088381548110612c63577f4e487b7100000000000000000000000000000000000000000000000000000000600052603260045260246000fd5b906000526020600020015490508060088381548110612cab577f4e487b7100000000000000000000000000000000000000000000000000000000600052603260045260246000fd5b906000526020600020018190555081600960008381526020019081526020016000208190555060096000858152602001908152602001600020600090556008805480612d20577f4e487b7100000000000000000000000000000000000000000000000000000000600052603160045260246000fd5b6001900381819060005260206000200160009055905550505050565b6000612d4783610d59565b905081600660008573ffffffffffffffffffffffffffffffffffffffff1673ffffffffffffffffffffffffffffffffffffffff168152602001908152602001600020600083815260200190815260200160002081905550806007600084815260200190815260200160002081905550505050565b600073ffffffffffffffffffffffffffffffffffffffff168273ffffffffffffffffffffffffffffffffffffffff161415612e2b576040517f08c379a0000000000000000000000000000000000000000000000000000000008152600401612e229061419a565b60405180910390fd5b612e3481611353565b15612e74576040517f08c379a0000000000000000000000000000000000000000000000000000000008152600401612e6b9061407a565b60405180910390fd5b612e8060008383612170565b6001600360008473ffffffffffffffffffffffffffffffffffffffff1673ffffffffffffffffffffffffffffffffffffffff1681526020019081526020016000206000828254612ed091906143c9565b92505081905550816002600083815260200190815260200160002060006101000a81548173ffffffffffffffffffffffffffffffffffffffff021916908373ffffffffffffffffffffffffffffffffffffffff160217905550808273ffffffffffffffffffffffffffffffffffffffff16600073ffffffffffffffffffffffffffffffffffffffff167fddf252ad1be2c89b69c2b068fc378daa952ba7f163c4a11628f55a4df523b3ef60405160405180910390a45050565b828054612f95906145c8565b90600052602060002090601f016020900481019282612fb75760008555612ffe565b82601f10612fd057805160ff1916838001178555612ffe565b82800160010185558215612ffe579182015b82811115612ffd578251825591602001919060010190612fe2565b5b50905061300b919061304f565b5090565b50805461301b906145c8565b6000825580601f1061302d575061304c565b601f01602090049060005260206000209081019061304b919061304f565b5b50565b5b80821115613068576000816000905550600101613050565b5090565b600061307f61307a84614326565b6142f5565b90508281526020810184848401111561309757600080fd5b6130a284828561455c565b509392505050565b60006130bd6130b884614356565b6142f5565b9050828152602081018484840111156130d557600080fd5b6130e084828561455c565b509392505050565b6000813590506130f781614741565b92915050565b60008135905061310c81614758565b92915050565b6000813590506131218161476f565b92915050565b60008135905061313681614786565b92915050565b60008151905061314b81614786565b92915050565b600082601f83011261316257600080fd5b813561317284826020860161306c565b91505092915050565b600082601f83011261318c57600080fd5b813561319c8482602086016130aa565b91505092915050565b6000813590506131b48161479d565b92915050565b6000602082840312156131cc57600080fd5b60006131da848285016130e8565b91505092915050565b600080604083850312156131f657600080fd5b6000613204858286016130e8565b9250506020613215858286016130e8565b9150509250929050565b60008060006060848603121561323457600080fd5b6000613242868287016130e8565b9350506020613253868287016130e8565b9250506040613264868287016131a5565b9150509250925092565b6000806000806080858703121561328457600080fd5b6000613292878288016130e8565b94505060206132a3878288016130e8565b93505060406132b4878288016131a5565b925050606085013567ffffffffffffffff8111156132d157600080fd5b6132dd87828801613151565b91505092959194509250565b600080604083850312156132fc57600080fd5b600061330a858286016130e8565b925050602061331b858286016130fd565b9150509250929050565b60008060006060848603121561333a57600080fd5b6000613348868287016130e8565b935050602084013567ffffffffffffffff81111561336557600080fd5b6133718682870161317b565b9250506040613382868287016131a5565b9150509250925092565b6000806040838503121561339f57600080fd5b60006133ad858286016130e8565b92505060206133be858286016131a5565b9150509250929050565b6000602082840312156133da57600080fd5b60006133e884828501613112565b91505092915050565b6000806040838503121561340457600080fd5b600061341285828601613112565b9250506020613423858286016130e8565b9150509250929050565b60006020828403121561343f57600080fd5b600061344d84828501613127565b91505092915050565b60006020828403121561346857600080fd5b60006134768482850161313c565b91505092915050565b60006020828403121561349157600080fd5b600061349f848285016131a5565b91505092915050565b600080604083850312156134bb57600080fd5b60006134c9858286016131a5565b925050602083013567ffffffffffffffff8111156134e657600080fd5b6134f28582860161317b565b9150509250929050565b6000806040838503121561350f57600080fd5b600061351d858286016131a5565b925050602061352e858286016131a5565b9150509250929050565b613541816144de565b82525050565b613550816144f0565b82525050565b61355f816144fc565b82525050565b600061357082614386565b61357a818561439c565b935061358a81856020860161456b565b61359381614730565b840191505092915050565b60006135a982614391565b6135b381856143ad565b93506135c381856020860161456b565b6135cc81614730565b840191505092915050565b60006135e282614391565b6135ec81856143be565b93506135fc81856020860161456b565b80840191505092915050565b60006136156020836143ad565b91507f537472696e67733a20686578206c656e67746820696e73756666696369656e746000830152602082019050919050565b60006136556014836143ad565b91507f5061757361626c653a206e6f74207061757365640000000000000000000000006000830152602082019050919050565b6000613695602b836143ad565b91507f455243373231456e756d657261626c653a206f776e657220696e646578206f7560008301527f74206f6620626f756e64730000000000000000000000000000000000000000006020830152604082019050919050565b60006136fb6032836143ad565b91507f4552433732313a207472616e7366657220746f206e6f6e20455243373231526560008301527f63656976657220696d706c656d656e74657200000000000000000000000000006020830152604082019050919050565b6000613761601c836143ad565b91507f4552433732313a20746f6b656e20616c7265616479206d696e746564000000006000830152602082019050919050565b60006137a16024836143ad565b91507f4552433732313a207472616e7366657220746f20746865207a65726f2061646460008301527f72657373000000000000000000000000000000000000000000000000000000006020830152604082019050919050565b60006138076019836143ad565b91507f4552433732313a20617070726f766520746f2063616c6c6572000000000000006000830152602082019050919050565b6000613847602c836143ad565b91507f4552433732313a206f70657261746f7220717565727920666f72206e6f6e657860008301527f697374656e7420746f6b656e00000000000000000000000000000000000000006020830152604082019050919050565b60006138ad6010836143ad565b91507f5061757361626c653a20706175736564000000000000000000000000000000006000830152602082019050919050565b60006138ed6038836143ad565b91507f4552433732313a20617070726f76652063616c6c6572206973206e6f74206f7760008301527f6e6572206e6f7220617070726f76656420666f7220616c6c00000000000000006020830152604082019050919050565b6000613953602a836143ad565b91507f4552433732313a2062616c616e636520717565727920666f7220746865207a6560008301527f726f2061646472657373000000000000000000000000000000000000000000006020830152604082019050919050565b60006139b96029836143ad565b91507f4552433732313a206f776e657220717565727920666f72206e6f6e657869737460008301527f656e7420746f6b656e00000000000000000000000000000000000000000000006020830152604082019050919050565b6000613a1f602e836143ad565b91507f45524337323155524953746f726167653a2055524920736574206f66206e6f6e60008301527f6578697374656e7420746f6b656e0000000000000000000000000000000000006020830152604082019050919050565b6000613a856020836143ad565b91507f4552433732313a206d696e7420746f20746865207a65726f20616464726573736000830152602082019050919050565b6000613ac56031836143ad565b91507f45524337323155524953746f726167653a2055524920717565727920666f722060008301527f6e6f6e6578697374656e7420746f6b656e0000000000000000000000000000006020830152604082019050919050565b6000613b2b602c836143ad565b91507f4552433732313a20617070726f76656420717565727920666f72206e6f6e657860008301527f697374656e7420746f6b656e00000000000000000000000000000000000000006020830152604082019050919050565b6000613b916029836143ad565b91507f4552433732313a207472616e73666572206f6620746f6b656e2074686174206960008301527f73206e6f74206f776e00000000000000000000000000000000000000000000006020830152604082019050919050565b6000613bf7602f836143ad565b91507f4552433732314d657461646174613a2055524920717565727920666f72206e6f60008301527f6e6578697374656e7420746f6b656e00000000000000000000000000000000006020830152604082019050919050565b6000613c5d6021836143ad565b91507f4552433732313a20617070726f76616c20746f2063757272656e74206f776e6560008301527f72000000000000000000000000000000000000000000000000000000000000006020830152604082019050919050565b6000613cc36031836143ad565b91507f4552433732313a207472616e736665722063616c6c6572206973206e6f74206f60008301527f776e6572206e6f7220617070726f7665640000000000000000000000000000006020830152604082019050919050565b6000613d29602c836143ad565b91507f455243373231456e756d657261626c653a20676c6f62616c20696e646578206f60008301527f7574206f6620626f756e647300000000000000000000000000000000000000006020830152604082019050919050565b6000613d8f6017836143be565b91507f416363657373436f6e74726f6c3a206163636f756e74200000000000000000006000830152601782019050919050565b6000613dcf6030836143ad565b91507f4552433732314275726e61626c653a2063616c6c6572206973206e6f74206f7760008301527f6e6572206e6f7220617070726f766564000000000000000000000000000000006020830152604082019050919050565b6000613e356011836143be565b91507f206973206d697373696e6720726f6c65200000000000000000000000000000006000830152601182019050919050565b6000613e75602f836143ad565b91507f416363657373436f6e74726f6c3a2063616e206f6e6c792072656e6f756e636560008301527f20726f6c657320666f722073656c6600000000000000000000000000000000006020830152604082019050919050565b613ed781614552565b82525050565b6000613ee982856135d7565b9150613ef582846135d7565b91508190509392505050565b6000613f0c82613d82565b9150613f1882856135d7565b9150613f2382613e28565b9150613f2f82846135d7565b91508190509392505050565b6000602082019050613f506000830184613538565b92915050565b6000608082019050613f6b6000830187613538565b613f786020830186613538565b613f856040830185613ece565b8181036060830152613f978184613565565b905095945050505050565b6000602082019050613fb76000830184613547565b92915050565b6000602082019050613fd26000830184613556565b92915050565b60006020820190508181036000830152613ff2818461359e565b905092915050565b6000602082019050818103600083015261401381613608565b9050919050565b6000602082019050818103600083015261403381613648565b9050919050565b6000602082019050818103600083015261405381613688565b9050919050565b60006020820190508181036000830152614073816136ee565b9050919050565b6000602082019050818103600083015261409381613754565b9050919050565b600060208201905081810360008301526140b381613794565b9050919050565b600060208201905081810360008301526140d3816137fa565b9050919050565b600060208201905081810360008301526140f38161383a565b9050919050565b60006020820190508181036000830152614113816138a0565b9050919050565b60006020820190508181036000830152614133816138e0565b9050919050565b6000602082019050818103600083015261415381613946565b9050919050565b60006020820190508181036000830152614173816139ac565b9050919050565b6000602082019050818103600083015261419381613a12565b9050919050565b600060208201905081810360008301526141b381613a78565b9050919050565b600060208201905081810360008301526141d381613ab8565b9050919050565b600060208201905081810360008301526141f381613b1e565b9050919050565b6000602082019050818103600083015261421381613b84565b9050919050565b6000602082019050818103600083015261423381613bea565b9050919050565b6000602082019050818103600083015261425381613c50565b9050919050565b6000602082019050818103600083015261427381613cb6565b9050919050565b6000602082019050818103600083015261429381613d1c565b9050919050565b600060208201905081810360008301526142b381613dc2565b9050919050565b600060208201905081810360008301526142d381613e68565b9050919050565b60006020820190506142ef6000830184613ece565b92915050565b6000604051905081810181811067ffffffffffffffff8211171561431c5761431b614701565b5b8060405250919050565b600067ffffffffffffffff82111561434157614340614701565b5b601f19601f8301169050602081019050919050565b600067ffffffffffffffff82111561437157614370614701565b5b601f19601f8301169050602081019050919050565b600081519050919050565b600081519050919050565b600082825260208201905092915050565b600082825260208201905092915050565b600081905092915050565b60006143d482614552565b91506143df83614552565b9250827fffffffffffffffffffffffffffffffffffffffffffffffffffffffffffffffff0382111561441457614413614674565b5b828201905092915050565b600061442a82614552565b915061443583614552565b925082614445576144446146a3565b5b828204905092915050565b600061445b82614552565b915061446683614552565b9250817fffffffffffffffffffffffffffffffffffffffffffffffffffffffffffffffff048311821515161561449f5761449e614674565b5b828202905092915050565b60006144b582614552565b91506144c083614552565b9250828210156144d3576144d2614674565b5b828203905092915050565b60006144e982614532565b9050919050565b60008115159050919050565b6000819050919050565b60007fffffffff0000000000000000000000000000000000000000000000000000000082169050919050565b600073ffffffffffffffffffffffffffffffffffffffff82169050919050565b6000819050919050565b82818337600083830152505050565b60005b8381101561458957808201518184015260208101905061456e565b83811115614598576000848401525b50505050565b60006145a982614552565b915060008214156145bd576145bc614674565b5b600182039050919050565b600060028204905060018216806145e057607f821691505b602082108114156145f4576145f36146d2565b5b50919050565b600061460582614552565b91507fffffffffffffffffffffffffffffffffffffffffffffffffffffffffffffffff82141561463857614637614674565b5b600182019050919050565b600061464e82614552565b915061465983614552565b925082614669576146686146a3565b5b828206905092915050565b7f4e487b7100000000000000000000000000000000000000000000000000000000600052601160045260246000fd5b7f4e487b7100000000000000000000000000000000000000000000000000000000600052601260045260246000fd5b7f4e487b7100000000000000000000000000000000000000000000000000000000600052602260045260246000fd5b7f4e487b7100000000000000000000000000000000000000000000000000000000600052604160045260246000fd5b6000601f19601f8301169050919050565b61474a816144de565b811461475557600080fd5b50565b614761816144f0565b811461476c57600080fd5b50565b614778816144fc565b811461478357600080fd5b50565b61478f81614506565b811461479a57600080fd5b50565b6147a681614552565b81146147b157600080fd5b5056fea26469706673582212202a28f634138cab57869ad8efad80d2e04fc888013133f47df89e90b4d285a1cd64736f6c63430008000033",
    "linkReferences": {},
    "deployedLinkReferences": {}
}