{
    "_format": "hh-sol-artifact-1",
    "contractName": "GameMaster",
    "sourceName": "contracts/GameMaster.sol",
    "abi": [
        {
            "inputs": [
                {
                    "internalType": "address",
                    "name": "erc20",
                    "type": "address"
                },
                {
                    "internalType": "address",
                    "name": "erc721",
                    "type": "address"
                }
            ],
            "stateMutability": "nonpayable",
            "type": "constructor"
        },
        {
            "anonymous": false,
            "inputs": [
                {
                    "indexed": false,
                    "internalType": "uint256",
                    "name": "gameid",
                    "type": "uint256"
                },
                {
                    "indexed": false,
                    "internalType": "address[]",
                    "name": "players",
                    "type": "address[]"
                },
                {
                    "indexed": false,
                    "internalType": "bool",
                    "name": "isActive",
                    "type": "bool"
                }
            ],
            "name": "GameStarted",
            "type": "event"
        },
        {
            "anonymous": false,
            "inputs": [
                {
                    "indexed": true,
                    "internalType": "bytes32",
                    "name": "role",
                    "type": "bytes32"
                },
                {
                    "indexed": true,
                    "internalType": "bytes32",
                    "name": "previousAdminRole",
                    "type": "bytes32"
                },
                {
                    "indexed": true,
                    "internalType": "bytes32",
                    "name": "newAdminRole",
                    "type": "bytes32"
                }
            ],
            "name": "RoleAdminChanged",
            "type": "event"
        },
        {
            "anonymous": false,
            "inputs": [
                {
                    "indexed": true,
                    "internalType": "bytes32",
                    "name": "role",
                    "type": "bytes32"
                },
                {
                    "indexed": true,
                    "internalType": "address",
                    "name": "account",
                    "type": "address"
                },
                {
                    "indexed": true,
                    "internalType": "address",
                    "name": "sender",
                    "type": "address"
                }
            ],
            "name": "RoleGranted",
            "type": "event"
        },
        {
            "anonymous": false,
            "inputs": [
                {
                    "indexed": true,
                    "internalType": "bytes32",
                    "name": "role",
                    "type": "bytes32"
                },
                {
                    "indexed": true,
                    "internalType": "address",
                    "name": "account",
                    "type": "address"
                },
                {
                    "indexed": true,
                    "internalType": "address",
                    "name": "sender",
                    "type": "address"
                }
            ],
            "name": "RoleRevoked",
            "type": "event"
        },
        {
            "inputs": [],
            "name": "DEFAULT_ADMIN_ROLE",
            "outputs": [
                {
                    "internalType": "bytes32",
                    "name": "",
                    "type": "bytes32"
                }
            ],
            "stateMutability": "view",
            "type": "function"
        },
        {
            "inputs": [],
            "name": "MINTER_ROLE",
            "outputs": [
                {
                    "internalType": "bytes32",
                    "name": "",
                    "type": "bytes32"
                }
            ],
            "stateMutability": "view",
            "type": "function"
        },
        {
            "inputs": [],
            "name": "UPGRADER_ROLE",
            "outputs": [
                {
                    "internalType": "bytes32",
                    "name": "",
                    "type": "bytes32"
                }
            ],
            "stateMutability": "view",
            "type": "function"
        },
        {
            "inputs": [],
            "name": "gameId",
            "outputs": [
                {
                    "internalType": "uint256",
                    "name": "_value",
                    "type": "uint256"
                }
            ],
            "stateMutability": "view",
            "type": "function"
        },
        {
            "inputs": [],
            "name": "gameMaster",
            "outputs": [
                {
                    "internalType": "address",
                    "name": "",
                    "type": "address"
                }
            ],
            "stateMutability": "view",
            "type": "function"
        },
        {
            "inputs": [
                {
                    "internalType": "uint256",
                    "name": "",
                    "type": "uint256"
                }
            ],
            "name": "games",
            "outputs": [
                {
                    "internalType": "uint256",
                    "name": "id",
                    "type": "uint256"
                },
                {
                    "internalType": "bool",
                    "name": "isActive",
                    "type": "bool"
                }
            ],
            "stateMutability": "view",
            "type": "function"
        },
        {
            "inputs": [
                {
                    "internalType": "bytes32",
                    "name": "role",
                    "type": "bytes32"
                }
            ],
            "name": "getRoleAdmin",
            "outputs": [
                {
                    "internalType": "bytes32",
                    "name": "",
                    "type": "bytes32"
                }
            ],
            "stateMutability": "view",
            "type": "function"
        },
        {
            "inputs": [
                {
                    "internalType": "bytes32",
                    "name": "role",
                    "type": "bytes32"
                },
                {
                    "internalType": "address",
                    "name": "account",
                    "type": "address"
                }
            ],
            "name": "grantRole",
            "outputs": [],
            "stateMutability": "nonpayable",
            "type": "function"
        },
        {
            "inputs": [
                {
                    "internalType": "bytes32",
                    "name": "role",
                    "type": "bytes32"
                },
                {
                    "internalType": "address",
                    "name": "account",
                    "type": "address"
                }
            ],
            "name": "hasRole",
            "outputs": [
                {
                    "internalType": "bool",
                    "name": "",
                    "type": "bool"
                }
            ],
            "stateMutability": "view",
            "type": "function"
        },
        {
            "inputs": [],
            "name": "hostingFeeX10",
            "outputs": [
                {
                    "internalType": "uint256",
                    "name": "",
                    "type": "uint256"
                }
            ],
            "stateMutability": "view",
            "type": "function"
        },
        {
            "inputs": [],
            "name": "nft",
            "outputs": [
                {
                    "internalType": "address",
                    "name": "",
                    "type": "address"
                }
            ],
            "stateMutability": "view",
            "type": "function"
        },
        {
            "inputs": [
                {
                    "internalType": "address",
                    "name": "",
                    "type": "address"
                }
            ],
            "name": "playerToGameId",
            "outputs": [
                {
                    "internalType": "uint256",
                    "name": "",
                    "type": "uint256"
                }
            ],
            "stateMutability": "view",
            "type": "function"
        },
        {
            "inputs": [
                {
                    "internalType": "address",
                    "name": "",
                    "type": "address"
                }
            ],
            "name": "players",
            "outputs": [
                {
                    "internalType": "uint256",
                    "name": "ticket",
                    "type": "uint256"
                },
                {
                    "internalType": "uint256",
                    "name": "point",
                    "type": "uint256"
                }
            ],
            "stateMutability": "view",
            "type": "function"
        },
        {
            "inputs": [
                {
                    "internalType": "bytes32",
                    "name": "role",
                    "type": "bytes32"
                },
                {
                    "internalType": "address",
                    "name": "account",
                    "type": "address"
                }
            ],
            "name": "renounceRole",
            "outputs": [],
            "stateMutability": "nonpayable",
            "type": "function"
        },
        {
            "inputs": [
                {
                    "internalType": "bytes32",
                    "name": "role",
                    "type": "bytes32"
                },
                {
                    "internalType": "address",
                    "name": "account",
                    "type": "address"
                }
            ],
            "name": "revokeRole",
            "outputs": [],
            "stateMutability": "nonpayable",
            "type": "function"
        },
        {
            "inputs": [
                {
                    "internalType": "address",
                    "name": "newGameMaster",
                    "type": "address"
                }
            ],
            "name": "setGameMaster",
            "outputs": [],
            "stateMutability": "nonpayable",
            "type": "function"
        },
        {
            "inputs": [
                {
                    "internalType": "bytes4",
                    "name": "interfaceId",
                    "type": "bytes4"
                }
            ],
            "name": "supportsInterface",
            "outputs": [
                {
                    "internalType": "bool",
                    "name": "",
                    "type": "bool"
                }
            ],
            "stateMutability": "view",
            "type": "function"
        },
        {
            "inputs": [],
            "name": "token",
            "outputs": [
                {
                    "internalType": "address",
                    "name": "",
                    "type": "address"
                }
            ],
            "stateMutability": "view",
            "type": "function"
        }
    ],
    "bytecode": "0x60806040523480156200001157600080fd5b506040516200178638038062001786833981810160405281019062000037919062000313565b6200004c6000801b336200018360201b60201c565b6200007e7f9f2df0fed2c77648de5860a4cc508cd0818c85b8b8a1ab4ceeef8d981c8956a6336200018360201b60201c565b620000b07f189ab7a9244df0848122154315af71fe140f3db0fe014031783b0946b8c9d2e3336200018360201b60201c565b81600260006101000a81548173ffffffffffffffffffffffffffffffffffffffff021916908373ffffffffffffffffffffffffffffffffffffffff16021790555080600360006101000a81548173ffffffffffffffffffffffffffffffffffffffff021916908373ffffffffffffffffffffffffffffffffffffffff16021790555033600460006101000a81548173ffffffffffffffffffffffffffffffffffffffff021916908373ffffffffffffffffffffffffffffffffffffffff16021790555060326005819055505050620003a2565b6200019582826200019960201b60201c565b5050565b620001ab82826200028a60201b60201c565b6200028657600160008084815260200190815260200160002060000160008373ffffffffffffffffffffffffffffffffffffffff1673ffffffffffffffffffffffffffffffffffffffff16815260200190815260200160002060006101000a81548160ff0219169083151502179055506200022b620002f460201b60201c565b73ffffffffffffffffffffffffffffffffffffffff168173ffffffffffffffffffffffffffffffffffffffff16837f2f8788117e7eff1d82e926ec794901d17c78024a50270940304540a733656f0d60405160405180910390a45b5050565b600080600084815260200190815260200160002060000160008373ffffffffffffffffffffffffffffffffffffffff1673ffffffffffffffffffffffffffffffffffffffff16815260200190815260200160002060009054906101000a900460ff16905092915050565b600033905090565b6000815190506200030d8162000388565b92915050565b600080604083850312156200032757600080fd5b60006200033785828601620002fc565b92505060206200034a85828601620002fc565b9150509250929050565b6000620003618262000368565b9050919050565b600073ffffffffffffffffffffffffffffffffffffffff82169050919050565b620003938162000354565b81146200039f57600080fd5b50565b6113d480620003b26000396000f3fe608060405234801561001057600080fd5b50600436106101165760003560e01c8063bdf84ae7116100a2578063d7c81b5511610071578063d7c81b55146102f4578063e2eb41ff14610312578063f4883ca814610343578063f72c0d8b14610361578063fc0c546a1461037f57610116565b8063bdf84ae714610280578063c2e949271461029e578063d5391393146102ba578063d547741f146102d857610116565b80632f2ff15d116100e95780632f2ff15d146101dc57806336568abe146101f857806347ccca021461021457806391d1485414610232578063a217fddf1461026257610116565b806301ffc9a71461011b578063038c20261461014b578063117a5b901461017b578063248a9ca3146101ac575b600080fd5b61013560048036038101906101309190610dd8565b61039d565b604051610142919061104b565b60405180910390f35b61016560048036038101906101609190610d4a565b610417565b60405161017291906110e3565b60405180910390f35b61019560048036038101906101909190610e01565b61042f565b6040516101a39291906110fe565b60405180910390f35b6101c660048036038101906101c19190610d73565b610460565b6040516101d39190611066565b60405180910390f35b6101f660048036038101906101f19190610d9c565b61047f565b005b610212600480360381019061020d9190610d9c565b6104a8565b005b61021c61052b565b6040516102299190611030565b60405180910390f35b61024c60048036038101906102479190610d9c565b610551565b604051610259919061104b565b60405180910390f35b61026a6105bb565b6040516102779190611066565b60405180910390f35b6102886105c2565b6040516102959190611030565b60405180910390f35b6102b860048036038101906102b39190610d4a565b6105e8565b005b6102c261065f565b6040516102cf9190611066565b60405180910390f35b6102f260048036038101906102ed9190610d9c565b610683565b005b6102fc6106ac565b60405161030991906110e3565b60405180910390f35b61032c60048036038101906103279190610d4a565b6106b8565b60405161033a929190611127565b60405180910390f35b61034b6106dc565b60405161035891906110e3565b60405180910390f35b6103696106e2565b6040516103769190611066565b60405180910390f35b610387610706565b6040516103949190611030565b60405180910390f35b60007f7965db0b000000000000000000000000000000000000000000000000000000007bffffffffffffffffffffffffffffffffffffffffffffffffffffffff1916827bffffffffffffffffffffffffffffffffffffffffffffffffffffffff19161480610410575061040f8261072c565b5b9050919050565b60066020528060005260406000206000915090505481565b60086020528060005260406000206000915090508060000154908060020160009054906101000a900460ff16905082565b6000806000838152602001908152602001600020600101549050919050565b61048882610460565b61049981610494610796565b61079e565b6104a3838361083b565b505050565b6104b0610796565b73ffffffffffffffffffffffffffffffffffffffff168173ffffffffffffffffffffffffffffffffffffffff161461051d576040517f08c379a0000000000000000000000000000000000000000000000000000000008152600401610514906110c3565b60405180910390fd5b610527828261091b565b5050565b600360009054906101000a900473ffffffffffffffffffffffffffffffffffffffff1681565b600080600084815260200190815260200160002060000160008373ffffffffffffffffffffffffffffffffffffffff1673ffffffffffffffffffffffffffffffffffffffff16815260200190815260200160002060009054906101000a900460ff16905092915050565b6000801b81565b600460009054906101000a900473ffffffffffffffffffffffffffffffffffffffff1681565b7f9f2df0fed2c77648de5860a4cc508cd0818c85b8b8a1ab4ceeef8d981c8956a661061a81610615610796565b61079e565b81600460006101000a81548173ffffffffffffffffffffffffffffffffffffffff021916908373ffffffffffffffffffffffffffffffffffffffff1602179055505050565b7f9f2df0fed2c77648de5860a4cc508cd0818c85b8b8a1ab4ceeef8d981c8956a681565b61068c82610460565b61069d81610698610796565b61079e565b6106a7838361091b565b505050565b60018060000154905081565b60076020528060005260406000206000915090508060000154908060010154905082565b60055481565b7f189ab7a9244df0848122154315af71fe140f3db0fe014031783b0946b8c9d2e381565b600260009054906101000a900473ffffffffffffffffffffffffffffffffffffffff1681565b60007f01ffc9a7000000000000000000000000000000000000000000000000000000007bffffffffffffffffffffffffffffffffffffffffffffffffffffffff1916827bffffffffffffffffffffffffffffffffffffffffffffffffffffffff1916149050919050565b600033905090565b6107a88282610551565b610837576107cd8173ffffffffffffffffffffffffffffffffffffffff1660146109fc565b6107db8360001c60206109fc565b6040516020016107ec929190610ff6565b6040516020818303038152906040526040517f08c379a000000000000000000000000000000000000000000000000000000000815260040161082e9190611081565b60405180910390fd5b5050565b6108458282610551565b61091757600160008084815260200190815260200160002060000160008373ffffffffffffffffffffffffffffffffffffffff1673ffffffffffffffffffffffffffffffffffffffff16815260200190815260200160002060006101000a81548160ff0219169083151502179055506108bc610796565b73ffffffffffffffffffffffffffffffffffffffff168173ffffffffffffffffffffffffffffffffffffffff16837f2f8788117e7eff1d82e926ec794901d17c78024a50270940304540a733656f0d60405160405180910390a45b5050565b6109258282610551565b156109f857600080600084815260200190815260200160002060000160008373ffffffffffffffffffffffffffffffffffffffff1673ffffffffffffffffffffffffffffffffffffffff16815260200190815260200160002060006101000a81548160ff02191690831515021790555061099d610796565b73ffffffffffffffffffffffffffffffffffffffff168173ffffffffffffffffffffffffffffffffffffffff16837ff6391f5c32d9c69d2a47ea670b442974b53935d1edc7fd64eb21e047a839171b60405160405180910390a45b5050565b606060006002836002610a0f91906111cd565b610a199190611177565b67ffffffffffffffff811115610a58577f4e487b7100000000000000000000000000000000000000000000000000000000600052604160045260246000fd5b6040519080825280601f01601f191660200182016040528015610a8a5781602001600182028036833780820191505090505b5090507f300000000000000000000000000000000000000000000000000000000000000081600081518110610ae8577f4e487b7100000000000000000000000000000000000000000000000000000000600052603260045260246000fd5b60200101907effffffffffffffffffffffffffffffffffffffffffffffffffffffffffffff1916908160001a9053507f780000000000000000000000000000000000000000000000000000000000000081600181518110610b72577f4e487b7100000000000000000000000000000000000000000000000000000000600052603260045260246000fd5b60200101907effffffffffffffffffffffffffffffffffffffffffffffffffffffffffffff1916908160001a90535060006001846002610bb291906111cd565b610bbc9190611177565b90505b6001811115610ca8577f3031323334353637383961626364656600000000000000000000000000000000600f861660108110610c24577f4e487b7100000000000000000000000000000000000000000000000000000000600052603260045260246000fd5b1a60f81b828281518110610c61577f4e487b7100000000000000000000000000000000000000000000000000000000600052603260045260246000fd5b60200101907effffffffffffffffffffffffffffffffffffffffffffffffffffffffffffff1916908160001a905350600485901c945080610ca1906112d8565b9050610bbf565b5060008414610cec576040517f08c379a0000000000000000000000000000000000000000000000000000000008152600401610ce3906110a3565b60405180910390fd5b8091505092915050565b600081359050610d0581611342565b92915050565b600081359050610d1a81611359565b92915050565b600081359050610d2f81611370565b92915050565b600081359050610d4481611387565b92915050565b600060208284031215610d5c57600080fd5b6000610d6a84828501610cf6565b91505092915050565b600060208284031215610d8557600080fd5b6000610d9384828501610d0b565b91505092915050565b60008060408385031215610daf57600080fd5b6000610dbd85828601610d0b565b9250506020610dce85828601610cf6565b9150509250929050565b600060208284031215610dea57600080fd5b6000610df884828501610d20565b91505092915050565b600060208284031215610e1357600080fd5b6000610e2184828501610d35565b91505092915050565b610e3381611227565b82525050565b610e4281611239565b82525050565b610e5181611245565b82525050565b6000610e6282611150565b610e6c818561115b565b9350610e7c8185602086016112a5565b610e8581611331565b840191505092915050565b6000610e9b82611150565b610ea5818561116c565b9350610eb58185602086016112a5565b80840191505092915050565b6000610ece60208361115b565b91507f537472696e67733a20686578206c656e67746820696e73756666696369656e746000830152602082019050919050565b6000610f0e60178361116c565b91507f416363657373436f6e74726f6c3a206163636f756e74200000000000000000006000830152601782019050919050565b6000610f4e60118361116c565b91507f206973206d697373696e6720726f6c65200000000000000000000000000000006000830152601182019050919050565b6000610f8e602f8361115b565b91507f416363657373436f6e74726f6c3a2063616e206f6e6c792072656e6f756e636560008301527f20726f6c657320666f722073656c6600000000000000000000000000000000006020830152604082019050919050565b610ff08161129b565b82525050565b600061100182610f01565b915061100d8285610e90565b915061101882610f41565b91506110248284610e90565b91508190509392505050565b60006020820190506110456000830184610e2a565b92915050565b60006020820190506110606000830184610e39565b92915050565b600060208201905061107b6000830184610e48565b92915050565b6000602082019050818103600083015261109b8184610e57565b905092915050565b600060208201905081810360008301526110bc81610ec1565b9050919050565b600060208201905081810360008301526110dc81610f81565b9050919050565b60006020820190506110f86000830184610fe7565b92915050565b60006040820190506111136000830185610fe7565b6111206020830184610e39565b9392505050565b600060408201905061113c6000830185610fe7565b6111496020830184610fe7565b9392505050565b600081519050919050565b600082825260208201905092915050565b600081905092915050565b60006111828261129b565b915061118d8361129b565b9250827fffffffffffffffffffffffffffffffffffffffffffffffffffffffffffffffff038211156111c2576111c1611302565b5b828201905092915050565b60006111d88261129b565b91506111e38361129b565b9250817fffffffffffffffffffffffffffffffffffffffffffffffffffffffffffffffff048311821515161561121c5761121b611302565b5b828202905092915050565b60006112328261127b565b9050919050565b60008115159050919050565b6000819050919050565b60007fffffffff0000000000000000000000000000000000000000000000000000000082169050919050565b600073ffffffffffffffffffffffffffffffffffffffff82169050919050565b6000819050919050565b60005b838110156112c35780820151818401526020810190506112a8565b838111156112d2576000848401525b50505050565b60006112e38261129b565b915060008214156112f7576112f6611302565b5b600182039050919050565b7f4e487b7100000000000000000000000000000000000000000000000000000000600052601160045260246000fd5b6000601f19601f8301169050919050565b61134b81611227565b811461135657600080fd5b50565b61136281611245565b811461136d57600080fd5b50565b6113798161124f565b811461138457600080fd5b50565b6113908161129b565b811461139b57600080fd5b5056fea2646970667358221220b3e75b6c6f30042d3ab2b3d852a59534fe13455f1d2c2002a8ea315642107f9464736f6c63430008000033",
    "linkReferences": {},
    "deployedLinkReferences": {}
}