{
    "_format": "hh-sol-artifact-1",
    "contractName": "Test",
    "sourceName": "contracts/Test.sol",
    "abi": [
        {
            "inputs": [
                {
                    "internalType": "uint256",
                    "name": "_num",
                    "type": "uint256"
                }
            ],
            "stateMutability": "nonpayable",
            "type": "constructor"
        },
        {
            "anonymous": false,
            "inputs": [
                {
                    "indexed": false,
                    "internalType": "uint256",
                    "name": "oldValue",
                    "type": "uint256"
                },
                {
                    "indexed": false,
                    "internalType": "uint256",
                    "name": "newValue",
                    "type": "uint256"
                }
            ],
            "name": "NumChanged",
            "type": "event"
        },
        {
            "anonymous": false,
            "inputs": [
                {
                    "indexed": true,
                    "internalType": "address",
                    "name": "previousOwner",
                    "type": "address"
                },
                {
                    "indexed": true,
                    "internalType": "address",
                    "name": "newOwner",
                    "type": "address"
                }
            ],
            "name": "OwnershipTransferred",
            "type": "event"
        },
        {
            "inputs": [],
            "name": "num",
            "outputs": [
                {
                    "internalType": "uint256",
                    "name": "",
                    "type": "uint256"
                }
            ],
            "stateMutability": "view",
            "type": "function"
        },
        {
            "inputs": [],
            "name": "owner",
            "outputs": [
                {
                    "internalType": "address",
                    "name": "",
                    "type": "address"
                }
            ],
            "stateMutability": "view",
            "type": "function"
        },
        {
            "inputs": [],
            "name": "renounceOwnership",
            "outputs": [],
            "stateMutability": "nonpayable",
            "type": "function"
        },
        {
            "inputs": [
                {
                    "internalType": "uint256",
                    "name": "_num",
                    "type": "uint256"
                }
            ],
            "name": "setNum",
            "outputs": [],
            "stateMutability": "nonpayable",
            "type": "function"
        },
        {
            "inputs": [
                {
                    "internalType": "address",
                    "name": "newOwner",
                    "type": "address"
                }
            ],
            "name": "transferOwnership",
            "outputs": [],
            "stateMutability": "nonpayable",
            "type": "function"
        }
    ],
    "bytecode": "0x6080604052600560015534801561001557600080fd5b5060405161084838038061084883398181016040528101906100379190610141565b61005361004861006060201b60201c565b61006860201b60201c565b806001819055505061018b565b600033905090565b60008060009054906101000a900473ffffffffffffffffffffffffffffffffffffffff169050816000806101000a81548173ffffffffffffffffffffffffffffffffffffffff021916908373ffffffffffffffffffffffffffffffffffffffff1602179055508173ffffffffffffffffffffffffffffffffffffffff168173ffffffffffffffffffffffffffffffffffffffff167f8be0079c531659141344cd1fd0a4f28419497f9722a3daafe3b4186f6b6457e060405160405180910390a35050565b60008151905061013b81610174565b92915050565b60006020828403121561015357600080fd5b60006101618482850161012c565b91505092915050565b6000819050919050565b61017d8161016a565b811461018857600080fd5b50565b6106ae8061019a6000396000f3fe608060405234801561001057600080fd5b50600436106100575760003560e01c80634e70b1dc1461005c578063715018a61461007a5780638da5cb5b14610084578063cd16ecbf146100a2578063f2fde38b146100be575b600080fd5b6100646100da565b60405161007191906105b9565b60405180910390f35b6100826100e0565b005b61008c610168565b604051610099919061055e565b60405180910390f35b6100bc60048036038101906100b79190610471565b610191565b005b6100d860048036038101906100d39190610448565b61025a565b005b60015481565b6100e8610352565b73ffffffffffffffffffffffffffffffffffffffff16610106610168565b73ffffffffffffffffffffffffffffffffffffffff161461015c576040517f08c379a000000000000000000000000000000000000000000000000000000000815260040161015390610599565b60405180910390fd5b610166600061035a565b565b60008060009054906101000a900473ffffffffffffffffffffffffffffffffffffffff16905090565b610199610352565b73ffffffffffffffffffffffffffffffffffffffff166101b7610168565b73ffffffffffffffffffffffffffffffffffffffff161461020d576040517f08c379a000000000000000000000000000000000000000000000000000000000815260040161020490610599565b60405180910390fd5b60006001549050816001819055507f1a5ada789662e2314e93364687f749606c189c64cc69976f23cf3adaf8a683778160015460405161024e9291906105d4565b60405180910390a15050565b610262610352565b73ffffffffffffffffffffffffffffffffffffffff16610280610168565b73ffffffffffffffffffffffffffffffffffffffff16146102d6576040517f08c379a00000000000000000000000000000000000000000000000000000000081526004016102cd90610599565b60405180910390fd5b600073ffffffffffffffffffffffffffffffffffffffff168173ffffffffffffffffffffffffffffffffffffffff161415610346576040517f08c379a000000000000000000000000000000000000000000000000000000000815260040161033d90610579565b60405180910390fd5b61034f8161035a565b50565b600033905090565b60008060009054906101000a900473ffffffffffffffffffffffffffffffffffffffff169050816000806101000a81548173ffffffffffffffffffffffffffffffffffffffff021916908373ffffffffffffffffffffffffffffffffffffffff1602179055508173ffffffffffffffffffffffffffffffffffffffff168173ffffffffffffffffffffffffffffffffffffffff167f8be0079c531659141344cd1fd0a4f28419497f9722a3daafe3b4186f6b6457e060405160405180910390a35050565b60008135905061042d8161064a565b92915050565b60008135905061044281610661565b92915050565b60006020828403121561045a57600080fd5b60006104688482850161041e565b91505092915050565b60006020828403121561048357600080fd5b600061049184828501610433565b91505092915050565b6104a38161060e565b82525050565b60006104b66026836105fd565b91507f4f776e61626c653a206e6577206f776e657220697320746865207a65726f206160008301527f64647265737300000000000000000000000000000000000000000000000000006020830152604082019050919050565b600061051c6020836105fd565b91507f4f776e61626c653a2063616c6c6572206973206e6f7420746865206f776e65726000830152602082019050919050565b61055881610640565b82525050565b6000602082019050610573600083018461049a565b92915050565b60006020820190508181036000830152610592816104a9565b9050919050565b600060208201905081810360008301526105b28161050f565b9050919050565b60006020820190506105ce600083018461054f565b92915050565b60006040820190506105e9600083018561054f565b6105f6602083018461054f565b9392505050565b600082825260208201905092915050565b600061061982610620565b9050919050565b600073ffffffffffffffffffffffffffffffffffffffff82169050919050565b6000819050919050565b6106538161060e565b811461065e57600080fd5b50565b61066a81610640565b811461067557600080fd5b5056fea2646970667358221220da42bc87ccc6d04cba72278c3ee5e6125518a98e37a18592fa5860786d30b76864736f6c63430008000033",
    "linkReferences": {},
    "deployedLinkReferences": {}
}